:020000040800F2
:1000000040C40024E5030008F59B00088997000818
:10001000B99B00083B1F000865EA000800000000CB
:1000200000000000000000000000000049AE0008D1
:100030009525000800000000679E00087DAE0008BE
:10004000FF030008FF030008FF030008FF03000888
:10005000FF030008FF030008FF030008FF03000878
:10006000FF030008FF030008FF0300081920000831
:10007000FF030008FF030008FF030008FF03000858
:10008000FF030008FF030008FF030008FF03000848
:10009000FF030008FF030008FF030008FF03000838
:1000A000FF030008FF030008FF030008FF03000828
:1000B000FF030008FF030008FF030008FF03000818
:1000C000FF030008FF030008FF03000839AE000823
:1000D000FF03000841C10008FF030008FF030008F8
:1000E000FF030008FF03000800000000FF030008F2
:1000F000FF030008FF030008FF030008FF030008D8
:10010000FF030008FF030008FF030008FF030008C7
:10011000FF030008FF030008FF030008FF030008B7
:10012000FF030008FF030008FF030008FF030008A7
:10013000FF030008FF030008FF030008FF03000897
:1001400000000000000000000000000000000000AF
:10015000FF030008FF030008FF030008FF03000877
:10016000FF030008FF030008FF030008FF03000867
:10017000FF030008FF030008FF0300080000000061
:10018000FF030008FF030008FF030008FF03000847
:10019000FF030008FF030008FF030008FF03000837
:1001A000FF030008FF030008FF030008FF03000827
:1001B000FF030008FF030008FF030008FF03000817
:1001C000FF030008FF030008FF030008FF03000807
:1001D000FF030008F99B0008FF030008FF03000865
:1001E000FF030008FF030008FF030008FF030008E7
:1001F000FF030008FF030008FF030008FF030008D7
:10020000FF030008FF030008FF030008FF030008C6
:10021000FF030008FF030008FF030008FF030008B6
:10022000FF030008FF030008FF03000800000000B0
:10023000FF030008FF03000800000000FF030008A0
:10024000FF030008FF030008FF030008FF03000886
:10025000FF030008FF030008FF030008FF03000876
:10026000FF030008FF030008FF030008FF03000866
:10027000FF030008FF030008FF0300080000000060
:10028000FF030008FF030008FF0300080000000050
:1002900000000000FF03000800F002F800F092F8F0
:1002A0000AA090E8000C82448344AAF10107DA45D1
:1002B00001D100F087F8AFF2090EBAE80F0013F091
:1002C000010F18BFFB1A43F0010318472CEA000086
:1002D0004CEA0000103A24BF78C878C1FAD8520717
:1002E00024BF30C830C144BF04680C6070470000B0
:1002F0000023002400250026103A28BF78C1FBD82F
:10030000520728BF30C148BF0B6070476E2900F00C
:100310009382702900F0D58366290EF04A846529FE
:100320000EF0478467290EF0448461290EF043845F
:1003300003681B0A28BF41F08001692900F0408250
:10034000642900F03D82752900F03A826F2900F09F
:100350006283782900F0A183E92900F0FD82E42975
:1003600000F0FA82F52900F0F782EF2900F05F83B0
:10037000F82900F0A0830368DB0928BF41F0800161
:10038000632901F0A380732901F0A880E32901F01B
:10039000B380F32901F0B880002070471FB50EF03C
:1003A00003FC01F007F90400002000210EF0E6FB39
:1003B000401C6060002000210EF0CAFBE0601FBD01
:1003C00010B510BD01F0C8F81146FFF7E7FF0EF0B9
:1003D00087FB01F0A5F903B4FFF7F2FF03BC01F0BE
:1003E000DDF900000948804709480047FEE7FEE7BD
:1003F000FEE7FEE7FEE7FEE7FEE7FEE7FEE7FEE7D5
:1004000004480549054A064B70470000C5AF00087F
:100410009902000840A4002440C4002440B40024F1
:1004200040B4002453EA020C00F069802DE9F04B3F
:100430004FF00006002B1FBFB3FA83F503FA05F453
:1004400024FA05F65E4012BF1643B2FA82F502FAAC
:1004500005F4C5F120051EBF22FA05FC44EA0C0490
:10046000203556EA044C4FEA144418BF641C4FF080
:1004700000084FF00009904271EB030C39D30029BA
:1004800019BFB1FA81F701FA07F6B0FA80F700FA5E
:1004900007F6C7F120071EBF20FA07FC46EA0C0644
:1004A0002037B6FBF4FCA7EB0507103F07F01F0B46
:1004B000CBF120060CFA0BFB2CFA06F644BFB34630
:1004C0000026202FA4BF5E464FF0000B5BEA060C0F
:1004D00008BF4FF0010B19EB0B09ABFB027C48EB9B
:1004E0000608C01B06FB02CC0BFB03CC71EB0C0116
:1004F000C1E70B46024641464846BDE8F08B13B5BE
:100500004FF000004FF00001AFF30080BDE81C4049
:10051000704700001CB50C46064B7B4469460090B2
:10052000204600F0A2F904460020694600F0B0F928
:1005300020461CBD7303000010B5431C02E010F8F8
:10054000011B71B18107FAD14FF0013202C88C1A38
:100550008C4314EAC211F9D0C01A0A0603D0C01E97
:1005600010BDC01A10BD0A0401D0801E10BD0902C2
:10057000FCD0401E10BD032A40F2308010F0030C66
:1005800000F0158011F8013BBCF1020F624498BFE6
:1005900011F801CB00F8013B38BF11F8013BA2F183
:1005A000040298BF00F801CB38BF00F8013B11F0FE
:1005B000030300F02580083AC0F0088051F8043B9E
:1005C000083A51F804CBA0E80810F5E7121D5CBF0B
:1005D00051F8043B40F8043BAFF30080D20724BF3E
:1005E00011F8013B11F801CB48BF11F8012B24BFD2
:1005F00000F8013B00F801CB48BF00F8012B704721
:1006000010B5203AC0F00B80B1E81850203AA0E8AD
:100610001850B1E81850A0E81850BFF4F5AF5FEAE1
:10062000027C24BFB1E81850A0E8185044BF18C994
:1006300018C0BDE810405FEA827C24BF51F8043B3B
:1006400040F8043B08BF7047D20728BF31F8023B8F
:1006500048BF11F8012B28BF20F8023B48BF00F823
:10066000012B70474FF000020429C0F0128010F0F7
:10067000030C00F01B80CCF1040CBCF1020F18BF7E
:1006800000F8012BA8BF20F8022BA1EB0C0100F011
:100690000DB85FEAC17C24BF00F8012B00F8012BE4
:1006A00048BF00F8012B70474FF0000200B5134619
:1006B00094469646203922BFA0E80C50A0E80C5082
:1006C000B1F12001BFF4F7AF090728BFA0E80C5033
:1006D00048BF0CC05DF804EB890028BF40F8042B2C
:1006E00008BF704748BF20F8022B11F0804F18BF99
:1006F00000F8012B704770477047704770B504468B
:1007000085690068C10601D5302600E02026C007B3
:1007100007D070BDD4E9012130469047206A401CC3
:1007200020626D1EF6D570BD70B5044685690078EF
:10073000C00707D170BDD4E9012120209047206A6D
:10074000401C20626D1EF6D570BD09684A0501D5B2
:1007500040B27047C905FCD500B2704709684A0528
:1007600001D5C0B27047C905FCD580B2704770B5DD
:100770000C460546012A05D02878800600D5EA698E
:10078000002302E0012305E05B1C934202D2E05CFF
:100790000028F9D1A869E618C01AA861286A184487
:1007A00028622846FFF7AAFF04E0D5E9012114F8E2
:1007B000010B9047B442F8D32846FFF7B5FF70BD50
:1007C0002DE9F0410646002410687529314616A52A
:1007D00010D0FFF7BAFF002802DA404213A507E065
:1007E00031688A0701D512A502E0490704D511A591
:1007F000012401E0FFF7B2FF00210A2206F12407DD
:1008000009E0B0FBF2FCB0FBF2F302FB1C0030305D
:1008100078541846491C0028F3D123462A4630460E
:10082000BDE8F04100F061BA000000002D000000BA
:100830002B0000002000000011680268006A5305C8
:1008400001D508700AE0D30501D5088006E013063B
:1008500003D5C217C1E9000200E00860012070471B
:1008600001694A1C02610878704700B58FB0CDE974
:1008700001310021059105497944CDE90310114664
:10088000684600F029F90FB000BD0000E5FFFFFF4A
:100890000A6802F8010B0A60704700002DE9FF5F4B
:1008A00015468A460446DFF8AC80F8440027D8E9AC
:1008B00000103E46CDE9001010E03AF816106A46E6
:1008C00002A800F025FE411C07D02178890603D537
:1008D000E269391891420DD80744761C20788006C9
:1008E00002D5E069B84205DDAE42E6DB3AF8160013
:1008F0000028E2D1A069C01BA0612046FFF7FEFEE0
:10090000D8E90010CDE90010002017E03AF81810DF
:100910006A4602A800F0FCFDB0F1FF3F81460BD013
:1009200000250DF1080B05E0D4E901211BF80500B5
:1009300090476D1C4D45F7D308F10100B042804649
:10094000E4DB206A384420622046FFF7EDFEBDE874
:10095000FF9F00004EE300002DE9F0418046D21DCC
:1009600022F007020025D2E90002F52915A614D0CD
:10097000011E72F1000106DA0023D0EB030063EBE5
:10098000020211A608E0D8F800108B0701D50FA6C7
:1009900002E0490701D50EA601251146002408F101
:1009A000240704E000F05CF930323A55641C50EA48
:1009B0000102F7D12B46324621464046BDE8F041C0
:1009C00000F093B9000000002D0000002B00000093
:1009D0002000000030B4002100F1240408E002F0FF
:1009E0000705D208303542EA4372DB086554491CDA
:1009F00052EA0305F3D10468002310A2250707D5A6
:100A0000A40600D421B1C46901230DA2641EC461EF
:100A100030BC00F06AB910B5044621461068FFF7F3
:100A20009DFE02462046BDE810400023D2E7D21DBD
:100A300022F00701D1E90023CCE70000000000000C
:100A400030000000F0B40D460188090502D5214CA4
:100A50007C4402E01F4C7C440E34002100F124064B
:100A600008E002F00F071209E75D42EA03721B0972
:100A70007754491C52EA0307F3D102780023120786
:100A800004D5702D06D009B1022311342246F0BCE2
:100A900000F02BB901231034F8E770B504460D4679
:100AA00021461068FFF75AFE024629462046BDE857
:100AB00070400023C6E7D21D22F00703D3E90023CC
:100AC000C0E70368126843F0200303600823C36192
:100AD0000023B7E7B0E100002DE9F05F8946044646
:100AE0004FF0000ADFF874B1FB44C0F820A02046A4
:100AF000E1688847002874D0252806D0D4E9012170
:100B00009047206A401C2062F1E700265F4620469D
:100B1000E16888472028054607DB312D05D2781982
:100B200010F8200C08B10643F1E7B00701D526F014
:100B30000406C4F81CA00027C4F818A02A2D09D068
:100B400028460DF0C5FF38B304EB8708303DC8F8E0
:100B5000185019E059F8041B204604EB87029161F4
:100B6000E1688847012F054618D1E069002820DA9E
:100B700026F020061DE0D8F8180000EB800005EBF9
:100B800040003038C8F818002046E168884705461C
:100B90000DF09EFF0028EED1012F0AD02E2D08D196
:100BA0002046E16888477F1C0546022F46F0200654
:100BB000C4DBA069002803DA404246F00106A061C8
:100BC000F00701D026F010066C2D0BD0682D09D04F
:100BD0004C2D39D06A2D35D0742D35D07A2D33D0A7
:100BE00016E038E0E1682F4620468847B8420546BF
:100BF00009D16C2F26D04FF48060E168064320466F
:100C00008847054604E06C2F1AD04FF480700643E5
:100C10000DB3A5F14100192802D8203546F400662D
:100C20004A462946204626604E46FFF76FFB80B1B4
:100C300001280BD0F61D26F0070000F1080956E741
:100C40004020E4E78020D8E70020D6E706F1040939
:100C50004DE7284652E7206ABDE8F09F40E10000DA
:100C600030B5B0F10A024FEA900E71F100034EEA7E
:100C7000817EB0EB0E0061EB91014FEA101E4EEA4F
:100C8000017E10EB0E0041EB11114FEA102E4EEADF
:100C9000016E10EB0E0041EB11214FEA104E4EEAAF
:100CA000014E10EB0E0041EB1141401841F10001E3
:100CB0004FEAD00040EA41704FEAD10110EB8005C5
:100CC0004FEA810444EA907444EB01046D1944EB4B
:100CD0000404521BA3414FF0000348BF0A3200D561
:100CE00030BD401C41F1000130BD2DE9F0470D46FB
:100CF00099469246044600F124080168880604D506
:100D0000E06921F01001216000E00120A84201DD2E
:100D1000471B00E00027A1697A1902EB0900081AB5
:100D2000A0612078C00602D42046FFF7E7FC002629
:100D300008E0D4E901211AF806009047206A401C17
:100D4000761C20624E45F4DB2078C0060AD520468A
:100D5000FFF7D4FC06E0D4E9012130209047206A57
:100D6000401C2062381EA7F10107F4DC07E0D4E93B
:100D7000012118F805009047206A401C2062281EB7
:100D8000A5F10105F3DC2046FFF7CEFC2078000634
:100D900002D50220BDE8F0870120FBE770472DE96E
:100DA000FF4F0C461E464FF0FF378BB0D2E90001D3
:100DB000DDF860800A908A46C1F30A5505B93D46C0
:100DC000002108464FF00000BAF1000F00F4400087
:100DD00005DA00EB80004FF4400101EA50004FEAD1
:100DE0009059B9F1010F00DDB9460A9850EA4A005E
:100DF0000ED044F61050A5F2FF3545432F14B8F13C
:100E0000000F1ED07542291E1EDDC9F100021CE034
:100E1000B8F1010F4FF0000001D0302103E0F243A0
:100E200005E02154401CB042FBDB3046002200218B
:100E300021540B99C1F80880C1E900200FB0BDE82A
:100E4000F08FBD1B6D1CDEE74A4600DA694206A83A
:100E500000F0F4FB06AB93E8070003AB83E8070060
:100E600050460A9900F0A1FC8DE80700A0F500505B
:100E70001F3800900398002D0ADD42F21F014A46F8
:100E80000844002303A90390684600F00AFF09E024
:100E9000A0F500504A461F38002303A90390684676
:100EA00000F014FF8DE807000004000C03D04FF0A1
:100EB000FF30410800E01046B8F1000F03D00022D7
:100EC000009215461EE0751E05D4FFF7C9FE3032AC
:100ED00062556D1EF9D5B3460122084302D00022A7
:100EE0007F1C04E02078302801D100227F1E002AD8
:100EF000099784D01DE0112D07DAFFF7B1FE3032DB
:100F000062556D1C50EA0102F5D1084302D00098E9
:100F1000C8B10EE00021681E05E0235C625C6354EA
:100F20002254401E491C8142F7DBAB46A81B401EE1
:100F30000990002004F80B000B98099AC0F808806B
:100F4000C0E9002B7AE711264FF0000857E72DE99A
:100F5000F04F88460446D21D22F0070191B0D1E936
:100F60000001CDE90A010DF07FFD02460B98C00F8C
:100F700001D02D2007E02068810701D52B2002E059
:100F8000202101EAC000032A099001D0072A05DBCD
:100F900003464146204600F011FB0BE12078800615
:100FA00001D5E06900E00620B8F1650F814606D062
:100FB000B8F1660F18D0B8F1670F70D131E000209A
:100FC000B9F1110F009001DB112301E009F10103D8
:100FD0000AAA01A90CA8FFF7E2FEDDE90C700026C1
:100FE00009F10105834647E001204B4600904FF090
:100FF00000470AAA01A90CA8FFF7D1FEDDE90DB050
:101000000C995D46002610B909F101000D18B9EBE5
:10101000050003D4C0F1FF3609F10105A5EB090075
:101020002BE0B9F1010F01DA4FF001090020B9F10D
:10103000110F0090484601DD112300E003460AAA83
:1010400001A90CA8FFF7ABFEDDE90C704D460026A8
:101050008346207800070AD4AB4500DA5D4601A834
:10106000012D04DD411911F8011C302907D04F452D
:1010700002DA17F1040F04DA012082460FE06D1E38
:10108000EEE7002F02DCED1B3E4403E0781CA84293
:1010900000DD7D1CB81B00F1010A4FF000472078ED
:1010A000000703D4AA4501DB4FF0FF3A0021B7F156
:1010B000004F0DF143088DF8431024D002202B235C
:1010C000002F01DA7F422D230A21021EA0F1010028
:1010D00000DC5FB197FBF1FC97FBF1F201FB1C7C9C
:1010E00017460CF1300C08F801CDEEE7A8F101002D
:1010F00003702188090501D5452100E06521A0F193
:10110000010800F8011C09980FA9A1EB0807FF1DB1
:1011100000B10120411901EBEA70A1693844081AB5
:10112000401EA0612078C00602D42046FFF7E6FAF0
:10113000099828B1D4E901219047206A401C206217
:101140002078C00622D52046FFF7D8FA1EE0002EF0
:1011500004DBB34502DD01A8805D00E03020D4E966
:1011600001219047206A401C2062761CAAF10100F0
:101170005FEA000A0AD100F01DFAC0680168405C0D
:10118000D4E901219047206A401C2062281EA5F165
:101190000105DCDC07E0D4E9012118F8010B9047D8
:1011A000206A401C2062381EA7F10107F3DC2046AC
:1011B000FFF7BAFA032011B041E600002DE9F04F25
:1011C00004460D46D21D22F0070089B0D0E90097F1
:1011D000484639460DF048FC0246F80F01D02D2351
:1011E00007E02068810701D52B2302E0202101EAD6
:1011F000C0038DF820300BB1012000E00020032A4D
:10120000824601D0072A04DB2946204600F0D6F9A1
:101210003FE12078800601D40D2500E0E569C7F3A1
:101220000A560D2D49DA00214FEA175B08464FF0A8
:101230000000002F00F4400007DA00EB80004FF4BC
:10124000400100EBD07001EA60008115012901DD49
:101250004FF0FF3100224FEA850CBCF1180F06D386
:101260001346ACF118004FF08052C24003E04FF437
:10127000801323FA0CF30CF10C0CBCF1200F04D3F7
:10128000ACF1200C09FA0CF001E007FA0CF000298F
:101290004FF0004801DD18B90FE00ED140450CD3E6
:1012A00019EB02095F4121B9404502D19F4329EA68
:1012B0000209BBEB175F00D0761C2088000502D521
:1012C0007B48784402E07A487844193808AA3023E9
:1012D00002F80A30037C0AF10101002E0AF1020A29
:1012E00053546A4602DC4FF0300101E04FF0310107
:1012F0004FF001088DF8001002D0A6F2FF3603E08F
:1013000059EA470100D06B4E002D02DC2178090715
:1013100004D54FF002082E218DF80110C44600219B
:101320000BE0C7F303433F01C35C491C6D1E02F889
:101330000830052908F1010801DA002DF1DC00214F
:101340000CE000EB1973491C1B786D1E082902F88C
:1013500008304FEA091908F1010801DA002DF0DC24
:1013600021688B0602D516E0A8F10108E04505DDED
:1013700002EB080313F8013C302BF5D0B8F1000F55
:1013800009DD02EB080313F8013C2E2B03D10907FA
:1013900001D4A8F10108002D05DD3E2102F8081056
:1013A0006D1E08F10108407C002E02F8080008F1CB
:1013B000010804DA2D20764202F8080002E02B2012
:1013C00002F808000A214FF47A70864208F10108F9
:1013D0000BDB96FBF0F3303302F8083096FBF0F3AA
:1013E00008F1010800FB136601E0642E0CDB6420A9
:1013F00096FBF0F3303302F8083096FBF0F308F177
:10140000010800FB136601E00A2E06DB96FBF1F0F3
:10141000303002F8080008F1010896FBF1F001FBFA
:101420001060303002F80800A16908F1010808EBEB
:10143000050202EB0A00081AA0612078C00602D457
:101440002046FFF75BF9216A08AE01EB0A00206233
:1014500004E0D4E9012116F8010B9047BAF1010A22
:10146000F7D22078C00602D52046FFF747F96E462E
:1014700009E016F8010B3E280FD0D4E9012190476E
:10148000206A401C2062B8F10108F2D22046FFF722
:101490004BF909B00320BDE8F08F206A2844206290
:1014A00003E0D4E90121302090476D1EEBD3F8E72B
:1014B0008AD9000002FCFFFF10B5436913B1AFF3F6
:1014C000008001E0FFF753F9012010BD127800F110
:1014D00024010A7000224A700122EDE711684FF0E2
:1014E000FF32E9E710B5436913B1AFF3008001E0C3
:1014F000FFF7D4F9012010BD128800F12401828485
:101500000022C2840122EDE711684FF0FF32E9E7C3
:1015100070B516460C46054600F044F8036893F88B
:101520000101012806D0FF2C0FD8185D68B10120F9
:101530002C7070BDD3F807013246214603F2071321
:1015400003442846BDE8704018474FF0FF3070BD97
:1015500000487047E0A300247546FFF7F9FFAE4648
:1015600005006946534620F00700854618B020B5AF
:10157000FEF746FFBDE820404FF000064FF00007A1
:101580004FF000084FF0000B21F00701AC46ACE82B
:10159000C009ACE8C009ACE8C009ACE8C0098D4698
:1015A0007047000010B500F005F8001D10BD00BF29
:1015B000CDD500000048704700A400242DE9F0417B
:1015C0001F46044603260168072A01F4006004DB75
:1015D00008B116A505E016A503E008B115A500E0C1
:1015E00015A521F010002060A069C01EA0610FB1F8
:1015F000401EA0612046FFF781F84FB1D4E90121D8
:1016000038469047206A401C2062C01C206206E0D9
:10161000206AFAE7D4E9012115F8010B9047761EFC
:10162000F8D22046FFF780F8BDE8F0814E414E0029
:101630006E616E00494E4600696E66002DE9F04706
:10164000814616468AB0354878440DC88DE80D00AD
:1016500032487844801C03AC0DC884E80D0041F684
:101660009B300844372190FBF1F290FBF1F5A5F196
:10167000800501FB12041B3C02D56442012000E0FE
:101680000020DFF898A080460027FA44AAF1BE0A9D
:101690000EE0E0070AD03246684607EB4701012317
:1016A0000AEB810100F012FB8DE8070064107F1C3B
:1016B000002CEED1194F7F44AE3F19E0E80715D05A
:1016C00007EB04100DF1180A90E80E008AE80E00EE
:1016D000C068F04201D1981908903246012306A94A
:1016E00003A800F0F3FA03AB83E807006D10641C55
:1016F000002DE3D14FF0010332466946B8F1000FE7
:1017000003A802D000F0CDFA01E000F0DFFAC9E949
:101710000001C9F808200AB0BDE8F08794D600009F
:1017200010B50446AFF300802046BDE81040FEF738
:1017300052BE00004FF0013C50F8042B51F8043B1E
:101740009A4215D1A2EB0C03934313EACC130BD1AD
:1017500050F8042B51F8043B9A4209D1A2EB0C0338
:10176000934313EACC13E7D04FF00000704700BF5B
:10177000D01A01BAB1FA81F101F0180122FA01F090
:10178000CB40C1F12001DBB2C0B2C01A2CFA01F388
:10179000D11A914311EAC311E6D1704701491820CB
:1017A000ABBEFEE72600020070475FEA400C08BFB0
:1017B00091F0000F4FEA8C234FEAC12243EA5151C6
:1017C0004FEA1C5018BF00F5F0404FEA300018BF38
:1017D00041F000415FEA6C5C00F02980BCF1FF3F02
:1017E00008BF40F080407047130C06BF12044FF052
:1017F000100C4FF0000C130E04BF12020CF1080C79
:10180000130F04BF12010CF1040C930F04BF9200DC
:101810000CF1020CD30F04BF52000CF1010C114665
:101820004FF00002A0F11F00A0EB0C00704711F078
:10183000004F08BF704731F000413FF4D5AF0B0CAB
:1018400006BF09044FF0100C4FF0000C0B0E04BF44
:1018500009020CF1080C0B0F04BF09010CF1040C78
:101860008B0F04BF89000CF1020CCB0F04BF4900A1
:101870000CF1010CCCF12003A0EB0C0022FA03F3D5
:1018800002FA0CF241EA030100F10100704720F076
:101890007F4C80EA030023F07F47ACEB070303F59E
:1018A0007C5300F0004003F1FF032DE980494FEA2B
:1018B000154B09B44FEA144325EA0B4E24EA0348BA
:1018C0000FF2042606EB132749083E785FEA32023E
:1018D00003FB0667C7F5000707FB06F64FEA543718
:1018E0004FEAD64606F1020607FB066CCCF1005C17
:1018F0004FEA1C472CEA074C07FB06F40CFB06F5E5
:1019000004EB15464FEA961634BF00204FF0004016
:101910004FEAD13706FB07FC4FEA1C4C0CFB0BF7D8
:10192000D21B03FB0CF761EB07010CFB0EF7B0EBCE
:10193000074072EB17420CFB08F734BFA2EB0742DB
:10194000B2EB074261EB17414FEA0C444FEA9107B3
:1019500006FB07FC4FEA1C4C0CFB0BF7B0EBC74037
:1019600072EB573203FB0CF734BFA2EBC742B2EB6A
:10197000C74261EB57310CFB0EF7B0EBC70072EBBF
:1019800057720CFB08F734BFA2EBC702B2EBC702D9
:1019900061EB5771039F4FEA816141EA921104EBB9
:1019A000CC044FEAD1374FEA826206FB07FC42EAD9
:1019B00090124FEA80604FEA1C4C0CFB0BF7D21BD5
:1019C00003FB0CF761EB07010CFB0EF7B0EB0740D4
:1019D00072EB17420CFB08F734BFA2EB0742B2EBE5
:1019E000074261EB17414FEA8C554FEA910704EB30
:1019F0009C2406FB07FC4FEA1C4C0CFB0BF7B0EBDE
:101A0000C74072EB573203FB0CF734BFA2EBC7425F
:101A1000B2EBC74261EB57310CFB0EF7B0EBC700DE
:101A200072EB57720CFB08F734BFA2EBC702B2EBA4
:101A3000C70261EB577115EB4C254FEA816141EA12
:101A400092114FEA82624FEAD13742EA901206FBC6
:101A500007FC44F100044FEA80604FEA1C4C0CFB89
:101A60000BF7D21B03FB0CF761EB07010CFB0EF726
:101A7000B0EB074072EB17420CFB08F734BFA2EB48
:101A80000742B2EB074261EB174115EB1C154FEA19
:101A9000813141EA92414FEA823242EA90424FEA72
:101AA00080304FEA0C7644F1000448EA03434EEAE2
:101AB0000B484FF0000EB2EB080C71EB030724BF8C
:101AC000624639464EEB0E0E4FF0000B00185241A5
:101AD00049414BEB0B0BB2EB080C71EB03077BF1AD
:101AE000000B24BF624639464EEB0E0E4FF0000B42
:101AF0000018524149414BEB0B0BB2EB080C71EB58
:101B000003077BF1000B24BF624639464EEB0E0EF5
:101B100051EA020718BF46F0010616EB0E7655F1A2
:101B2000000254F1000103D5BDE88901BDE8008839
:101B3000BDE88901BDE80048B619524141EB0101F9
:101B4000A3F10103704780807F7E7D7C7B7A79786A
:101B5000777676757473727171706F6E6E6D6C6C72
:101B60006B6A6A6968686766666564646363626114
:101B70006160605F5F5E5E5D5D5C5C5B5B5A5A5995
:101B80005958585757565655555554545353525201
:101B90005251515050504F4F4F4E4E4D4D4D4C4C59
:101BA0004C4B4B4B4A4A4A494949484848474747A2
:101BB00047464646454545444444444343434342DF
:101BC000424242414141002B9C4630D477002BD009
:101BD0001CB54FEA370703B44FF010004FF0100167
:101BE000BAF1000F06D0BCF1000FDCBF40F00800D6
:101BF00040F008014FF000000FBCBDE810400BF1B1
:101C0000010BBBF1010F08BF5FEA170722BF12F1FA
:101C1000010211F101014FF0004143F1000300F016
:101C2000004043EA00007047F9D35708D0E746EA7E
:101C3000064613F1400F4FEA16461FDD13F1200F41
:101C4000DFBF16430A46002120335B42BED0C3F1FA
:101C5000200746EA064602FA07F74FEA164646EA22
:101C60000706C3F1200722FA03F201FA07F721FA67
:101C700003F14FF0000342EA0702A7E746EA020633
:101C800046EA06464FEA164646EA0106BCBF46EA61
:101C90000646360C4FF000034FF000024FF00001F3
:101CA00094E72DE9804C9A46934670B491E8380049
:101CB00007C831EA400C48BF34EA430C03D5FFF7AC
:101CC000E6FDFFF780FFF0BCBDE8008C2DE9804CFD
:101CD0009A46934670B491E8380007C810F0804FD8
:101CE00008BF13F0804F03D100F005F8FFF76BFF3A
:101CF000F0BCBDE8008C20F07F4780EA030023F0B1
:101D00007F4C07EB0C03A3F57C5300F00040A3F1DC
:101D1000FE0392F0000F00F0B38095F0000F00F08A
:101D200077802DE901494FEA11404FEA144621EA34
:101D3000004800FB06FC24EA064708FB06F607FB02
:101D400008F800FB07F718EB06484CEB164C4FEA77
:101D5000124B18EB07484FEA15464CEB174022EAA6
:101D60000B4E0BFB06FC25EA06470EFB06F607FBAF
:101D70000EFE0BFB07F71EEB064E4CEB164C4FF01E
:101D800000061EEB074E4CEB174B18EB0B0840F10F
:101D9000000018EB0E0B58EB000840F100008F1A02
:101DA0004FF000013CBFC943661B14BFB5EB040CE8
:101DB00000213CBFC943F61B4FEA17444EEA8E0E82
:101DC00027EA04454FEA1C4704FB07622CEA074C4C
:101DD00005FB07F70CFB05F604FB0CFC16EB0746AE
:101DE00042EB174216EB0C4642EB1C421BEB06067D
:101DF00058EB0202414146EA9E0601D5BDE8018941
:101E0000B619524141EB0101A3F10103BDE801897B
:101E10004FEA14454FEA114724EA054621EA074CE8
:101E200005FB07F406FB07F70CFB06F105FB0CFCB2
:101E300011EB074144EB17444FEA124711EB0C41F9
:101E400044EB1C4422EA074C05FB07F206FB07F7AC
:101E50000CFB06F605FB0CFC16EB074642EB1742A3
:101E600016EB0C4642EB1C456A1854F1000148BFC2
:101E70007047B619524141EB0101A3F101037047CC
:101E800095F0000F37D04FEA11424FEA144721EA8C
:101E9000024624EA074C02FB07F106FB07F70CFB9E
:101EA00006F402FB0CFC14EB074441EB17414FEA2C
:101EB000154714EB0C4441EB1C4125EA074C02FB8F
:101EC00007F506FB07F70CFB06F602FB0CFC16EB0E
:101ED000074645EB174516EB0C4645EB1C4212191D
:101EE00051F1000148BF7047B619524141EB010161
:101EF000A3F1010370474FEA14454FEA114724EA62
:101F0000054621EA074C05FB07F106FB07F70CFB2A
:101F100006F24FF0000605FB0CFC12EB074241EB0A
:101F2000174112EB0C4251EB1C4148BF704792180D
:101F300041EB0101A3F10103704700BFFEE7034637
:101F4000042B15D007DC7BB1012B0ED0022B0DD05A
:101F5000032B12D10BE0202B0BD0212B0AD0222BEC
:101F600009D0232B09D107E008E007E006E005E0EF
:101F700004E003E002E001E000E000BF00BF002059
:101F8000704700207047000010B500220449054842
:101F90000AF079FB044903480AF066FB002010BDF3
:101FA000C4100024E8030024C408002470B50446CB
:101FB0000D46214606480AF057FB05480AF020FB6B
:101FC000288881B220460BF01FFF002070BD000062
:101FD000E803002410B503460C460021084610BD56
:101FE0002DE9F04104460D4600260A48D0F8BC729F
:101FF000D7F8140210B10120BDE8F0812A4621462D
:1020000004480AF040FB03480AF0F0FB064630465D
:10201000F2E70000E803002410B5024800F012FFC8
:1020200010BD0000140200240146374A086890429F
:1020300049D0354A18320868904244D0324A30328A
:10204000086890423FD0304A4832086890423AD0FF
:102050002D4A60320868904235D02B4A78320868A1
:10206000904230D0284A9032086890422BD0264ABD
:10207000A8320868904226D0244A0868904222D0AC
:10208000224A1832086890421DD0204A303208682F
:10209000904218D01D4A48320868904213D01B4A1B
:1020A0006032086890420ED0184A78320868904230
:1020B00009D0164A90320868904204D0134AA832D8
:1020C0000868904201D1012000E00020B0B10A78F8
:1020D000103A1823B2FBF3F000F007020C4B9A5CA5
:1020E000CA65032805D90A686FF30902121D8A65BB
:1020F00003E00A686FF309028A6503E0086820F0CC
:10210000FF008865886D704710000240100402408F
:10211000BAEB000810B502682B4C0368A34222D02A
:10212000294C14340368A3421DD0274C283403687B
:10213000A34218D0244C3C340368A34213D0224C51
:1021400050340368A3420ED01F4C64340368A3428A
:1021500009D01D4C78340368A34204D01A4C8C3447
:102160000368A34201D1012300E000238BB103786F
:10217000083B1424B3FBF4F1144B03EB8103036617
:10218000124B8033436601F01F040123A340836692
:1021900018E00378103B1824B3FBF4F10C4B9A427F
:1021A00004D80B4BA83B9A4200D30831094B03EBF0
:1021B00081030366074B8033436601F01F0401234C
:1021C000A340836610BD000008540258005802580E
:1021D000B8040240000802400179A9B3082940D898
:1021E000204B02689A4222D01E4B143302689A4256
:1021F0001DD01C4B283302689A4218D0194B3C332F
:1022000002689A4213D0174B503302689A420ED09C
:10221000144B643302689A4209D0124B7833026837
:102220009A4204D00F4B8C3302689A4201D10122AA
:1022300000E000224AB14A1E0B4B03EB8202C26649
:10224000094A4032026708E00BE04A1E074B03EBE5
:102250008202C266054A403202674A1E0123934049
:102260004367704708540258005902580009024059
:10227000014600208A69D2B98A6A32B1012A0DD09A
:10228000022A03D0032A10D10EE000BFCA6A02F06E
:102290008072B2F1807F00D1012007E0CA6AB2F1FA
:1022A000C07F00D1012001E000E000BF36E08A6974
:1022B000B2F5005F1BD18A6A32B1012A07D0022A27
:1022C00003D0032A11D10AE000BF01200EE0CA6A40
:1022D00002F08072B2F1807F00D1012006E0CA6A6C
:1022E000B2F1C07F00D1012000E000BF16E08A6A91
:1022F00032B1012A05D0022A04D0032A0CD103E00E
:1023000000BF00BF012008E0CA6A02F08072B2F18B
:10231000807F00D1012000E000BF00BF70470000B7
:10232000F0B5856D846D984F0668BE4270D0964FAB
:1023300018370668BE426BD0934F30370668BE42EE
:1023400066D0914F48370668BE4261D08E4F6037E5
:102350000668BE425CD08C4F78370668BE4257D0C4
:10236000894F90370668BE4252D0874FA83706681B
:10237000BE424DD0854F0668BE4249D0834F1837C4
:102380000668BE4244D0814F30370668BE423FD017
:102390007E4F48370668BE423AD07C4F60370668A9
:1023A000BE4235D0794F78370668BE4230D0774F7D
:1023B00090370668BE422BD0744FA8370668BE42DD
:1023C00026D0734F0668BE4222D0714F143706687C
:1023D000BE421DD06E4F28370668BE4218D06C4FE3
:1023E0003C370668BE4213D0694F50370668BE427C
:1023F0000ED0674F64370668BE4209D0644F783705
:102400000668BE4204D0624F8C370668BE4201D1D6
:10241000012600E000263EB1D0E919767E60C66E46
:1024200016B1D0E91C767E60574F0668BE4249D08F
:10243000554F18370668BE4244D0534F30370668B0
:10244000BE423FD0504F48370668BE423AD04E4F4A
:1024500060370668BE4235D04B4F78370668BE42BB
:1024600030D0494F90370668BE422BD0464FA83730
:102470000668BE4226D0454F0668BE4222D0434F72
:1024800018370668BE421DD0404F30370668BE423E
:1024900018D03E4F48370668BE4213D03B4F6037D6
:1024A0000668BE420ED0394F78370668BE4209D062
:1024B000364F90370668BE4204D0344FA8370668BE
:1024C000BE4201D1012600E00026DEB190F85C603A
:1024D00006F01F073F26BE40AE600668366826F449
:1024E000802607683E60066873608668402E04D1C7
:1024F0000668B2600668F16044E00668B16006688C
:10250000F2603FE0224F0668BE4222D0204F1437CF
:102510000668BE421DD01E4F28370668BE4218D03E
:102520001B4F3C370668BE4213D0194F5037066820
:10253000BE420ED0164F64370668BE4209D0144F13
:1025400078370668BE4204D0114F8C370668BE4209
:1025500001D1012600E00026A6B190F85C6006F0EB
:102560001F070126BE406660066873608668402EBD
:1025700004D10668B2600668F16003E00668B160E5
:102580000668F260F0BD0000100002401004024036
:1025900008540258704772B600BFFEE770B50A488B
:1025A0000468001D0568001D0668344454B1082203
:1025B0000649204607F01CF9042204491031284638
:1025C00007F016F970BD000000E8F11F4600002476
:1025D0002DE9F041044601F04FFF804614B9012077
:1025E000BDE8F08194F83500022808D080206065AD
:1025F00000BF002084F8340000BF0120F0E7FE494E
:102600002068884249D0FC4918312068884244D06B
:10261000F9493031206888423FD0F7494831206875
:1026200088423AD0F44960312068884235D0F24976
:1026300078312068884230D0EF4990312068884254
:102640002BD0ED49A8312068884226D0EB4920687C
:10265000884222D0E9491831206888421DD0E749D4
:1026600030312068884218D0E449483120688842D7
:1026700013D0E2496031206888420ED0DF497831BA
:102680002068884209D0DD4990312068884204D012
:10269000DA49A8312068884201D1012000E00020F9
:1026A00068B12068006820F01E002168086020687A
:1026B000406920F0800021684861256806E02068B4
:1026C000006820F00E00216808602568CA4920686B
:1026D000884270D0C8491831206888426BD0C649FA
:1026E00030312068884266D0C3494831206888422A
:1026F00061D0C1496031206888425CD0BE497831E0
:102700002068884257D0BC4990312068884252D016
:10271000B949A831206888424DD0B849206888421C
:1027200049D0B64918312068884244D0B349303185
:10273000206888423FD0B1494831206888423AD069
:10274000AE4960312068884235D0AC497831206884
:10275000884230D0A9499031206888422BD0A749BF
:10276000A8312068884226D0A5492068884222D016
:10277000A3491431206888421DD0A149283120681E
:10278000884218D09E493C312068884213D09C4929
:102790005031206888420ED09949643120688842BF
:1027A00009D0974978312068884204D094498C3107
:1027B0002068884201D1012000E0002028B1206E6D
:1027C000006820F48070216E08608B492068884280
:1027D00049D0894918312068884244D0864930312F
:1027E000206888423FD084494831206888423AD0E6
:1027F000814960312068884235D07F49783120682E
:10280000884230D07C499031206888422BD07A4968
:10281000A8312068884226D078492068884222D092
:1028200076491831206888421DD0744930312068BB
:10283000884218D0714948312068884213D06F49C6
:102840006031206888420ED06C4978312068884217
:1028500009D06A4990312068884204D06749A8317C
:102860002068884206D12068006820F001002168B5
:10287000086005E02068006820F001002168086019
:1028800011E001F0F9FDA0EB080005280BD920208C
:102890006065032084F8350000BF002084F8340010
:1028A00000BF01209CE6286800F001000028E8D164
:1028B00051492068884249D04F49183120688842E0
:1028C00044D04D493031206888423FD04A49483190
:1028D000206888423AD0484960312068884235D023
:1028E000454978312068884230D04349903120688A
:1028F00088422BD04049A8312068884226D03F49E1
:102900002068884222D03D491831206888421DD075
:102910003A4930312068884218D038494831206817
:10292000884213D035496031206888420ED033493F
:1029300078312068884209D0304990312068884237
:1029400004D02E49A8312068884201D1012000E03E
:10295000002040B1A66D94F85C0000F01F013F20FC
:102960008840B06007E0A76D94F85C0000F01F019C
:1029700001208840786020492068884276D01E492E
:1029800018312068884271D01B4930312068884254
:102990006CD0194948312068884267D016496031A7
:1029A0002068884262D014497831206888425DD01E
:1029B000114990312068884258D00F49A8312068C9
:1029C000884253D00D49206888424FD00B491831B6
:1029D000206888424AD0094930312068884245D071
:1029E000064948312068884240D004496031206857
:1029F00088423BD0014905E010000240100402402B
:102A0000085402587831206888422FD02549206820
:102A100088422BD0234918312068884226D0224989
:102A20002068884222D020491431206888421DD075
:102A30001D4928312068884218D01B493C31206844
:102A4000884213D018495031206888420ED0164968
:102A500064312068884209D013497831206888425F
:102A600004D011498C312068884201D1012000E056
:102A7000002068B1D4E919104860E06E40B1E06E02
:102A8000006820F48070E16E0860D4E91C10486092
:102A9000012084F8350000BF002084F8340000BF16
:102AA00000BF9DE5A00402400854025870B50446DA
:102AB0000CB9012070BD94F83500022803D08020A5
:102AC00060650120F6E7DC492068884249D0DA4990
:102AD00018312068884244D0D74930312068884274
:102AE0003FD0D5494831206888423AD0D249603138
:102AF0002068884235D0D04978312068884230D06B
:102B0000CD499031206888422BD0CB49A83120682C
:102B1000884226D0C9492068884222D0C749183146
:102B2000206888421DD0C54930312068884218D0BD
:102B3000C24948312068884213D0C04960312068BA
:102B400088420ED0BD4978312068884209D0BB49FF
:102B500090312068884204D0B849A8312068884262
:102B600001D1012000E00020F0B3042084F83500FA
:102B7000B149206888424BD0AF491831206888425B
:102B800046D0AD4930312068884241D0AA49483109
:102B9000206888423CD0A84960312068884237D0FC
:102BA000A54978312068884232D0A3499031206805
:102BB00088422DD0A049A8312068884228D09F495A
:102BC0002068884224D09D491831206888421FD04F
:102BD0009A493031206888421AD098494831206893
:102BE000884215D0954900E020E060312068884295
:102BF0000ED0924978312068884209D08F499031AF
:102C00002068884204D08D49A8312068884206D1C6
:102C10002068006820F001002168086009E1206850
:102C2000006820F001002168086002E12068006867
:102C300020F00E00216808607F492068884249D052
:102C40007D4918312068884244D07B493031206862
:102C500088423FD078494831206888423AD0764946
:102C600060312068884235D07349783120688842C5
:102C700030D071499031206888422BD06E49A831FC
:102C80002068884226D06D492068884222D06B494E
:102C90001831206888421DD0684930312068884248
:102CA00018D0664948312068884213D063496031A2
:102CB000206888420ED0614978312068884209D066
:102CC0005E4990312068884204D05C49A831206870
:102CD000884206D12068006820F001002168086061
:102CE00005E02068006820F0010021680860524972
:102CF0002068884270D050491831206888426BD0D3
:102D00004D4930312068884266D04B4948312068AF
:102D1000884261D048496031206888425CD0464989
:102D200078312068884257D04349903120688842E2
:102D300052D04149A831206888424DD03F4920688F
:102D4000884249D03D4918312068884244D03B49E7
:102D50003031206888423FD0384948312068884265
:102D60003AD0364960312068884235D033497831CD
:102D70002068884230D031499031206888422BD079
:102D80002E49A8312068884226D02D4920688842E3
:102D900022D02B491431206888421DD0284928317F
:102DA0002068884218D026493C312068884213D0D8
:102DB00023495031206888420ED02149643120686F
:102DC000884209D01E4978312068884204D01C49C5
:102DD0008C312068884201D1012000E00020D8B168
:102DE000206E006820F48070216E0860A56D94F854
:102DF0005C0000F01F01012088406860D4E91910D0
:102E00004860E06E40B1E06E006820F48070E16ED2
:102E10000860D4E91C104860012084F8350000BF28
:102E2000002084F8340000BF206D10B12046216DD1
:102E3000884700203EE600001000024010040240D7
:102E4000085402582DE9F84F044600200090FE482F
:102E500000684FF41651B0FBF1FAA66DD4F8588013
:102E60003768D8F80090F9492068884249D0F74976
:102E700018312068884244D0F449303120688842B3
:102E80003FD0F2494831206888423AD0EF4960315A
:102E90002068884235D0ED4978312068884230D0AA
:102EA000EA499031206888422BD0E849A83120684F
:102EB000884226D0E6492068884222D0E449183169
:102EC000206888421DD0E24930312068884218D0FD
:102ED000DF4948312068884213D0DD4960312068DD
:102EE00088420ED0DA4978312068884209D0D84922
:102EF00090312068884204D0D549A83120688842A2
:102F000001D1012000E0002000287DD094F85C0071
:102F100000F01F01082088403840002868D0CB49C5
:102F20002068884249D0C94918312068884244D075
:102F3000C6493031206888423FD0C44948312068B2
:102F400088423AD0C14960312068884235D0BF49B3
:102F500078312068884230D0BC499031206888425E
:102F60002BD0BA49A8312068884226D0B8492068B9
:102F7000884222D0B6491831206888421DD0B44911
:102F800030312068884218D0B149483120688842E1
:102F900013D0AF496031206888420ED0AC497831F7
:102FA0002068884209D0AA4990312068884204D01C
:102FB000A749A8312068884204D12068006800F041
:102FC000040003E02068006800F0080080B1206879
:102FD000006820F004002168086094F85C0000F0AC
:102FE0001F0108208840B060606D40F001006065FE
:102FF00094F85C0000F01F01012088403840E8B3DD
:1030000092492068884200E0B7E24BD08F491831DE
:103010002068884246D08D4930312068884241D0AE
:103020008A494831206888423CD08849603120680C
:10303000884237D0854978312068884232D0834928
:103040009031206888422DD08049A831206888427C
:1030500028D07F492068884224D07D4918312068D3
:1030600088421FD07A493031206888421AD0784986
:1030700048312068884215D0754900E026E060316B
:10308000206888420ED0724978312068884209D081
:103090006F4990312068884204D06D49A83120687A
:1030A000884204D12068406900F0800002E0206876
:1030B0000068002050B194F85C0000F01F0101206E
:1030C0008840B060606D40F00200606594F85C007C
:1030D00000F01F01042088403840E8B35B492068B5
:1030E00088424BD0594918312068884246D0574908
:1030F00030312068884241D05449483120688842A4
:103100003CD0524960312068884237D04F497831ED
:103110002068884232D04D499031206888422DD0B5
:103120004A49A8312068884228D049492068884205
:1031300024D047491831206888421FD04449303193
:10314000206888421AD0424948312068884215D008
:103150003F496031206800E024E088420ED03C49BD
:1031600078312068884209D03949903120688842F6
:1031700004D03749A8312068884204D1206800680B
:1031800000F0020002E020680068002050B194F8CE
:103190005C0000F01F0104208840B060606D40F0CA
:1031A0000400606594F85C0000F01F011020884066
:1031B0003840E8B325492068884251D02349183166
:1031C000206888424CD0214930312068884247D05D
:1031D0001E4948312068884242D01C49603120682D
:1031E00088423DD0194978312068884238D0174943
:1031F00090312068884233D01449A8312068884231
:103200002ED01349206888422AD0114918312068ED
:10321000884225D00E4930312068884220D00C49A0
:103220004831206888421BD009496031206800E09D
:103230004DE0884214D006497831206888420FD08A
:1032400003499031206805E080000024100002400E
:1032500010040240884203D0FE492068884204D10D
:103260002068006800F0080003E02068006800F0B3
:10327000040060B394F85C0000F01F011020884047
:10328000B0602068006800F4802080B12068006889
:1032900000F4002028B9206CC8B12046216C884772
:1032A00015E0A06C98B12046A16C88470FE020681B
:1032B000006800F4807028B92068006820F00800D9
:1032C00021680860206C10B12046216C884794F872
:1032D0005C0000F01F0120208840384000287DD08D
:1032E000DD492068884249D0DB491831206888428E
:1032F00044D0D9493031206888423FD0D64948313E
:10330000206888423AD0D44960312068884235D05C
:10331000D14978312068884230D0CF499031206837
:1033200088422BD0CC49A8312068884226D0C94990
:10333000A8392068884221D0C6499039206888423F
:103340001CD0C44978392068884217D0C1496039F7
:103350002068884212D0BF494839206888420DD081
:10336000BC4930392068884208D0BA4918392068E9
:10337000884203D0B7492068884204D12068006899
:1033800000F0100003E02068006800F0020028B39D
:1033900094F85C0000F01F0120208840B06094F891
:1033A000350004282DD12068006820F0160021681F
:1033B00008602068406920F0800021684861206C26
:1033C00008B9A06C28B12068006820F008002168C6
:1033D000086094F85C0000F01F0100E03FE03F202F
:1033E0008840B060012084F8350000BF002084F8D8
:1033F000340000BF206D10B12046216D8847BDE824
:10340000F88F2068006800F4802080B12068006890
:1034100000F4002028B9606C08B32046616C88472E
:103420001DE0E06BD8B12046E16B884717E02068CB
:10343000006800F4807068B92068006820F010000F
:1034400021680860012084F8350000BF002084F85E
:10345000340000BFE06B10B12046E16B8847606D1F
:1034600000287AD0606D00F00100E8B3042084F8F1
:1034700035007949206888424BD077491831206857
:10348000884246D0744930312068884241D0724920
:103490004831206888423CD06F49603120688842BA
:1034A00037D06D4978312068884232D06A499031EE
:1034B000206888422DD06849A8312068884228D0E9
:1034C0006449A8392068884223D06249903920682D
:1034D00088421ED05F4978392068884219D05D49FA
:1034E00060392068884200E040E012D059494839EC
:1034F000206888420DD0574930392068884208D06A
:10350000544918392068884203D0524920688842BB
:1035100006D12068006820F001002168086005E0FD
:103520002068006820F001002168086000BF009852
:10353000401C0090504500D905E02068006800F06C
:1035400001000028F3D100BF2068006800F00100EE
:1035500020B1032084F8350003E00DE0012084F859
:10356000350000BF002084F8340000BFE06C002864
:1035700002D02046E16C8847D9E13849206888426A
:1035800022D036491431206888421DD03349283171
:103590002068884218D031493C312068884213D0D5
:1035A0002E495031206888420ED02C496431206861
:1035B000884209D0294978312068884204D02749B7
:1035C0008C312068884201D1012000E000200028D1
:1035D000D2D02068056894F85C0000F01F01042038
:1035E000884000EA0900D8B305F00400C0B394F89D
:1035F0005C0000F01F0104208840C8F8040005F4B6
:10360000004080B105F4803030B9A06C0028B3D000
:103610002046A16C88478AE1206C0028ACD0204667
:10362000216C884783E105F02000E8BB0A49206847
:10363000884253D008491831206888424ED0064944
:1036400030312068884249D0034948312068884297
:1036500044D006E0B804024010000240085402586A
:103660004FE0B44960312068884237D0B1497831A1
:103670002068884232D0AF499031206888422DD0EE
:10368000AC49A8312068884228D0AB4920688842DC
:1036900024D0A9491831206888421FD0A64930316A
:1036A000206888421AD000E025E0A349483120680C
:1036B000884213D0A0496031206888420ED09E49CC
:1036C00078312068884209D09B499031206888422F
:1036D00004D09949A8312068884206D12068006842
:1036E00020F008002168086005E02068006820F0EC
:1036F000040021680860206C10B32046216C8847C4
:1037000015E194F85C0000F01F010220884000EAF7
:103710000900E8B305F00200D0B394F85C0000F0B3
:103720001F0102208840C8F8040005F4004070B171
:1037300005F4803028B9606C10B12046616C884770
:10374000F5E0E06BF0B32046E16B8847EFE005F071
:103750002000C0BB7749206888424ED07549183197
:103760002068884249D0734930312068884244D06B
:1037700070494831206888423FD06E4960312068E6
:1037800088423AD06B4978312068884235D000E0D1
:103790004EE068499031206888422ED06549A831B2
:1037A0002068884229D064492068884225D062492F
:1037B00018312068884220D05F4930312068884223
:1037C0001BD001E06EE02DE05B4948312068884263
:1037D00013D059496031206888420ED0564978315B
:1037E0002068884209D0544990312068884204D02A
:1037F0005149A8312068884206D12068006820F02D
:1038000014002168086005E02068006820F00A00C4
:1038100021680860012084F8350000BF002084F88A
:10382000340000BFE06BE8B32046E16B88477EE0E0
:1038300094F85C0000F01F010820884000EA0900AD
:1038400080B305F0080068B33A49206888424BD03D
:10385000384918312068884246D0364930312068CE
:10386000884241D033494831206888423CD03149B0
:1038700060312068884237D02E49783120688842EC
:1038800032D02C499031206888422DD02949A83166
:103890002068884228D028492068884224D02649B8
:1038A000183100E043E0206888421DD022493031C1
:1038B0002068884218D0204948312068884213D0B7
:1038C0001D496031206888420ED01B49783120683C
:1038D000884209D0184990312068884204D016499E
:1038E000A8312068884206D12068006820F01C00BA
:1038F0002168086005E02068006820F00E0021685B
:10390000086094F85C0000F01F0101208840C8F8AE
:1039100004000120606584F8350000BF002084F8B1
:10392000340000BFE06C10B12046E16C884700BF56
:1039300065E5000010000240100402402DE9F0414E
:10394000044600F099FD804614B90120BDE8F081DD
:10395000FE492068884249D0FC49183120688842D5
:1039600044D0FA493031206888423FD0F749483185
:10397000206888423AD0F54960312068884235D0C5
:10398000F24978312068884230D0F049903120687F
:1039900088422BD0ED49A8312068884226D0EC49D6
:1039A0002068884222D0EA491831206888421DD018
:1039B000E74930312068884218D0E549483120680D
:1039C000884213D0E2496031206888420ED0E04935
:1039D00078312068884209D0DD49903120688842DA
:1039E00004D0DB49A8312068884201D1012000E0E1
:1039F0000020002873D0606A00B100BF022084F864
:103A0000350000BF002084F8340000BFCF49206893
:103A1000884249D0CD4918312068884244D0CB49EA
:103A20003031206888423FD0C849483120688842F8
:103A30003AD0C64960312068884235D0C3497831D0
:103A40002068884230D0C1499031206888422BD00C
:103A5000BE49A8312068884226D0BD4920688842E6
:103A600022D0BB491831206888421DD0B849303176
:103A70002068884218D0B64948312068884213D05F
:103A8000B3496031206888420ED0B149783120684E
:103A9000884209D0AE4990312068884204D0AC49B0
:103AA000A8312068884206D12068006820F0010013
:103AB0002168086005E02068006820F001002168A6
:103AC00008600DE000F0D8FCA0EB0800052807D93D
:103AD00020206065032084F83500012036E76AE085
:103AE0002068006800F001000028EBD1206805681C
:103AF00098480540D4E902010843216908436169F7
:103B00000843A1690843E1690843216A0843054362
:103B1000606A042803D1D4E90B01084305438E48A9
:103B200000686FF30F00B0F1005F1DD360682928B3
:103B300002D360682E2811D960683F2802D36068DC
:103B400042280BD96068472802D36068482805D905
:103B500060684F2804D36068522801D8012000E033
:103B6000002008B145F4801520680560206845698B
:103B700025F00705606A0543606A04280DD1A06A34
:103B80000543E06A48B12046FEF772FB28B14020A9
:103B90006065012084F83500D8E62068456120463C
:103BA000FEF742FA064694F85C0000F01F013F2041
:103BB0008840B0609EE069492068884222D0674909
:103BC0001431206888421DD0644928312068884219
:103BD00018D062493C312068884213D05F49503187
:103BE000206888420ED05D4964312068884209D03F
:103BF0005A4978312068884204D058498C3120686D
:103C0000884201D1012000E00020E0B35349206840
:103C1000884222D051491431206888421DD04F4932
:103C200028312068884218D04C493C3120688842AD
:103C300013D04A495031206888420ED04749643138
:103C40002068884209D0454978312068884204D0EC
:103C500042498C312068884201D1012000E00020D7
:103C600000B100BF022084F8350000BF002084F8B6
:103C7000340000BF2068056839480540A068402826
:103C800002D1102106E02EE0A068802801D1C101F8
:103C900000E00021E06841EAD001206941EAD0015A
:103CA000606941EAD001A06941EAD001E06941EAD6
:103CB000D001206A41EA10100543206805602749B9
:103CC0002068401A1421B0FBF1F08000E065204626
:103CD000FEF7AAF9074694F85C0000F01F010120E6
:103CE0008840786006E040206065032084F8350055
:103CF00001202BE61549206888427FD013491831EE
:103D0000206888427AD0114930312068884275D0C5
:103D10000E4948312068884270D00C4960312068D3
:103D200088426BD0094978312068884266D00749BB
:103D300090312068884261D00449A83120688842C7
:103D40005CD003492068884258D00BE01000024044
:103D5000100402403F8010FE0010005C085402581E
:103D60000F00FEFF3B4918312068884246D0394990
:103D700030312068884241D0364948312068884235
:103D80003CD0344960312068884237D0314978319D
:103D90002068884232D02F499031206888422DD047
:103DA0002C49A8312068884228D02B4920688842B5
:103DB00024D029491431206888421FD0264928314F
:103DC000206888421AD024493C312068884215D0A6
:103DD000214950312068884210D01F496431206841
:103DE00088420BD01C4978312068884206D01A4995
:103DF0008C312068884200E000E001D1012000E021
:103E0000002000B32046FEF785F9A068802801D184
:103E1000002060602079216E0860D4E919104860A4
:103E2000606860B16068082809D82046FEF7D4F9B8
:103E30000020E16E0860D4E91C10486003E0002017
:103E4000E0662067606700206065012084F8350027
:103E500000207BE510040240085402582DE9F0418F
:103E600004460D4616461F464FF0000814B90120BF
:103E7000BDE8F08100BF94F83400012801D1022090
:103E8000F6E7012084F8340000BF94F835000128DB
:103E90007ED1022084F8350000206065E449206866
:103EA000884249D0E24918312068884244D0E0492C
:103EB0003031206888423FD0DD494831206888424F
:103EC0003AD0DB4960312068884235D0D849783112
:103ED0002068884230D0D6499031206888422BD063
:103EE000D349A8312068884226D0D2492068884228
:103EF00022D0D0491831206888421DD0CD493031B8
:103F00002068884218D0CB4948312068884213D0B5
:103F1000C8496031206888420ED0C649783120688F
:103F2000884209D0C34990312068884204D0C149F1
:103F3000A8312068884206D12068006820F001007E
:103F40002168086005E02068006820F00100216811
:103F500008603B46324629462046FEF7E1F9B4495F
:103F6000206888424BD0B24918312068884246D038
:103F7000AF4930312068884241D0AD49483120688E
:103F800088423CD0AA4960312068884237D000E09E
:103F900042E1A74978312068884230D0A449903165
:103FA000206888422BD0A249A8312068884226D0B8
:103FB000A0492068884222D09E4918312068884252
:103FC0001DD09C4930312068884218D09949483129
:103FD0002068884213D097496031206888420ED00B
:103FE000944978312068884209D0924990312068FC
:103FF000884204D08F49A8312068884201D101202D
:1040000000E0002080B12068006820F01E0040F031
:10401000160021680860206CB0B12068006840F08C
:104020000800216808600FE02068006820F00E009A
:1040300040F00A0021680860206C28B12068006800
:1040400040F004002168086079492068884270D0F7
:1040500077491831206888426BD075493031206823
:10406000884266D0724948312068884261D07049E0
:104070006031206888425CD06D4978312068884280
:1040800057D06B4990312068884252D06849A83196
:10409000206888424DD067492068884249D06549E8
:1040A00018312068884244D0624930312068884203
:1040B0003FD060494831206888423AD05D4960313C
:1040C0002068884235D05B4978312068884230D0FA
:1040D00058499031206888422BD05649A831206831
:1040E000884226D054492068884222D0524914314F
:1040F000206888421DD0504928312068884218D055
:104100004D493C312068884213D04B4950312068DA
:1041100088420ED0484964312068884209D0464917
:1041200078312068884204D043498C312068884225
:1041300001D1012000E0002090B1206E006800F461
:10414000803028B1206E006840F48070216E0860D5
:10415000E06E28B1E06E006840F48070E16E0860A7
:1041600033492068884249D0314918312068884253
:1041700044D02F493031206888423FD02C49483103
:10418000206888423AD02A4960312068884235D078
:10419000274978312068884230D0254990312068FD
:1041A00088422BD02249A8312068884226D0214954
:1041B0002068884222D01F491831206888421DD0CB
:1041C0001C4930312068884218D01A49483120688B
:1041D000884213D017496031206888420ED01549B3
:1041E00078312068884209D012499031206888428D
:1041F00004D01049A8312068884206D120680068A0
:1042000040F001002168086010E02068006840F07C
:1042100001002168086009E04FF40060606500BF9C
:10422000002084F8340000BF4FF0010840461FE62C
:1042300010000240100402400854025870B50446B1
:1042400000F01AF906462546681C10B104480078AB
:10425000054400BF00F010F9801BA842FAD370BDDE
:104260007C000024F8B502460B4600216F4DD7E0D4
:1042700001278F401E6806EA0704002C72D01E79C1
:1042800006F00306012E04D01E7906F00306022E66
:1042900013D190684F000326BE40B0434F00DE6844
:1042A000BE4030439060506801268E40B0431E7976
:1042B000C6F300168E40304350601E7906F00306A8
:1042C000032E09D0D0684F000326BE40B0434F00F4
:1042D0009E68BE403043D0601E7906F00306022E71
:1042E00013D1CF0802F1200656F827004E07F70E2B
:1042F0000F26BE40B0434F07FF0E1E69BE4030433D
:10430000CF0802F1200646F8270010684F00032668
:10431000BE40B0431E7906F003064F00BE40304356
:1043200010605E6806F44036002E78D000BF404E24
:10433000366846F002063E4F3E603E46366806F05E
:104340000206009600BF00BF3A4E8F0856F82700BD
:104350008E07370F0F26BE40B043374EB24202D110
:1043600000262EE05BE0354EB24201D1012628E066
:10437000334EB24201D1022623E0324EB24201D185
:1043800003261EE0304EB24201D1042619E02F4E22
:10439000B24201D1052614E02D4EB24201D10626CB
:1043A0000FE02C4EB24201D107260AE02A4EB2425B
:1043B00001D1082605E0294EB24201D1092600E0CC
:1043C0000A268F073F0FBE4030431A4E8F0846F82B
:1043D00027004FF0B0463068A0435E6806F48016B0
:1043E00006B120434FF0B04630607068A0435E686D
:1043F00006F4001606B120434FF0B04670606868BE
:10440000A0435E6806F4003606B120436860286861
:10441000A0435E6806F4803606B120432860491C3C
:104420001E68CE40002E7FF423AFF8BD80000058F8
:10443000F4440258080400580000025800040258CE
:1044400000080258000C02580010025800140258CC
:1044500000180258001C025800200258002402587C
:104460000AB1816101E00B04836170470148006873
:10447000000C70470010005C0148006870470000A5
:104480007400002470472DE9F04104462068066955
:104490002068476906EA070594F84D00042823D1EF
:1044A00005F0010028B105F0400010B92046E16B8D
:1044B000884705F04000402816D12068006940F286
:1044C00061118843216808612068806940F04000DC
:1044D00021688861012084F84D00206D40F00200C1
:1044E00020652046FFF7CEFF94F84D00032823D126
:1044F00005F00200022805D105F0200010B9204681
:10450000216C884705F02000202815D1206800691B
:1045100020F4B170216808612068806940F02000B3
:1045200021688861012084F84D00206D40F004006E
:1045300020652046FFF7A6FF94F84D00052852D1CC
:1045400005F00400042805D12046216C8847204648
:10455000E16B884705F0010028B105F0040010B9AF
:104560002046E16B884705F00200022805D105F0DE
:10457000040010B92046216C884705F0200020284F
:1045800016D12068006940F26311884321680861F0
:104590002068806940F0200021688861012084F84B
:1045A0004D00206D40F0040020652046FFF76AFFB3
:1045B00005F04000402816D12068006940F26311E0
:1045C0008843216808612068806940F040002168C4
:1045D0008861012084F84D00206D40F002002065C4
:1045E0002046FFF74FFFBDE8F08100002DE9F047BE
:1045F000044614B90120BDE8F08794F84D0028B9AD
:10460000002084F84C00204600F0BCF8022084F81A
:104610004D002068006800F0010028B120680068A3
:1046200020F00100216808600020216808656068AA
:10463000042805D06068062802D060680A285CD18A
:10464000606902283FD0E06810B14FF0020A01E033
:104650004FF0010AA068302802D0A068B02802D12B
:104660004FF0010901E04FF000094FF480500021A4
:1046700001F03CFF80462069B0F1007F0DD14FF47E
:10468000807020FA09F0B8FBF0F000EB80004100E8
:104690006069B1FBF0F0471D0DE0202020FA09F021
:1046A00000FB0AF0B8FBF0F000EB8000410060690D
:1046B000B1FBF0F0471D0A20B7FBF0F707F0010649
:1046C000B81B450801E002250026012E01D1012D6D
:1046D00001D0FF2D05D9206D40F01000206501208C
:1046E00089E705B90126280440EA06602168096DBA
:1046F000224A1140084321680865606840F00100C3
:10470000A1680843E1680843A1690843216A084396
:10471000616A0843216908432168096D184A1140FC
:1047200008432168086540F6F870216888612068B0
:10473000006820F48030216808602068C06820F498
:104740000000E16908432168C8606068042805D05A
:104750006068062802D060680A2807D12068C0680F
:1047600020F00040A16A08432168C860002020654D
:10477000012084F84D0000203DE70000FFFF00FE0F
:104780004090FFFD10B5B8B00446142132A8FBF7E5
:104790008BFFC02102A8FBF787FF9F492068884252
:1047A0006CD181140020CDE902101A9002A802F009
:1047B000F5FA08B1FDF7EFFE00BF9848006840F435
:1047C0008050964908600846006800F480500190C7
:1047D00000BF00BF00BF91481038006840F00100E2
:1047E0008E49103908600846006800F00100019009
:1047F00000BF00BF30203290022033900020349060
:10480000022035900520369032A98548FFF72AFD11
:10481000402032900220339034903590052036901D
:1048200032A97F48FFF71EFD7E487F49086025209A
:10483000486000217C488160C1604FF48061016163
:1048400089004161890081610021C1614FF44031DB
:10485000016200214162FFF771F808B1FDF79BFE8C
:1048600000BF7148A064846300BF0022114623206A
:1048700000F056FA232000F03FFACAE06B492068A6
:10488000884255D181140020CDE902101A9002A867
:1048900002F084FA08B1FDF77EFE00BF5F480838D9
:1048A000006840F480405D490839086008460068A7
:1048B00000F48040019000BF00BF00BF574810388F
:1048C000006840F004005549103908600846006847
:1048D00000F00400019000BF00BF00BF0846006860
:1048E00040F0020008600846006800F002000190F5
:1048F00000BF00BF06203290022033900020349089
:10490000022035900520369032A94948FFF7AAFCCD
:104910004FF4A050329002203390002034900220B7
:1049200035900520369032A94248FFF79BFC70E095
:104930004149206888426CD181140020CDE90210E1
:104940001A9002A802F02AFA08B1FDF724FE00BF6F
:1049500032480838006840F400403049083908609F
:104960000846006800F40040019000BF00BF00BF8F
:104970002A481038006840F00100284910390860C2
:104980000846006800F00100019000BF00BF00BFB2
:104990000846006840F0080008600846006800F01B
:1049A0000800019000BF00BF00BF0846006840F04B
:1049B000020008600846006800F00200019000BF95
:1049C00000BF4FF40040329002203390002034901A
:1049D00035900620369032A91148FFF743FC40205D
:1049E000329002203390002034903590052036908C
:1049F00032A91248FFF736FC18203290022033907B
:104A00000020349035900620369032A90948FFF7EF
:104A100029FC38B010BD000000300140F0440258BD
:104A20000000025810000240140200240038004028
:104A30000008025800040258003C0040000C0258D4
:104A40002DE9F04104460E461546002706B115B97A
:104A50000120BDE8F08194F84D00012801D002202A
:104A6000F7E700BF94F84C00012801D10220F0E7DD
:104A7000012084F84C0000BF042084F84D00002081
:104A80002065666325876587E06220866086224808
:104A9000A16C08642148A16CC8632148A16CC8645A
:104AA000638FD4F800C00CF13001626BA06CFFF78B
:104AB000D5F970B1206D40F008002065012084F820
:104AC0004D00012700BF002084F84C0000BF38468D
:104AD000BFE72068806800F4804028B920688068BB
:104AE00040F48040216888602068006800F0010080
:104AF00028B92068006840F001002168086020683B
:104B0000006840F400702168086000BF002084F84D
:104B10004C0000BF38469CE7E3970008BB970008AD
:104B20008D97000810B50446002202210148FFF7C6
:104B300097FC10BD00000258704700000348006851
:104B4000034909780844014908607047740000244B
:104B50007C00002410B5032000F020F903F0ACF92C
:104B600010490968C1F303210F4A515C01F01F018C
:104B700020FA01F40B48006800F00F001146085CB1
:104B800000F01F0024FA00F008490860084804609B
:104B90000F2000F00FF808B1012010BD00F09AF8C6
:104BA0000020FAE718440258EAEB000884000024C9
:104BB0008000002470B504461148007808B901202F
:104BC00070BD0F4800784FF47A71B1FBF0F00D49D9
:104BD0000968B1FBF0F5284604F00AFA08B1012093
:104BE000EEE7102C07D200222146501E00F098F864
:104BF0000548046001E00120E2E70020E0E7000052
:104C00007C00002480000024780000244178154AAC
:104C1000116014490831096821F00101114A083274
:104C20001160121F41681160017B0907C27A41EAD5
:104C30000261827A41EAC241427B41EA8241827B3F
:104C400041EA4241C27B41EA0241427A41EA022101
:104C5000027A41EA420102781143024A08321160A5
:104C60007047000098ED00E000BF00BF00BFBFF339
:104C70005F8F00BF00BF00BF0548006820F4803090
:104C80000349086000200249703108607047000045
:104C900024ED00E040F001010D4A11600C4970392B
:104CA000096841F480310A4A703A116000BF00BFC0
:104CB00000BFBFF34F8F00BF00BF00BF00BF00BFEA
:104CC00000BFBFF36F8F00BF00BF00BF7047000081
:104CD00094ED00E008B500BF0648006840F002000F
:104CE000044908600846006800F00200009000BF18
:104CF00000BF08BDF44402580146084600280DDBF9
:104D000000BF00BF00F01F0301229A4043099B002F
:104D100003F1E023C3F8002100BF00BF00BF7047CC
:104D20002DE9F05F80460D46164609F0B5FE0746B0
:104D300039462A46334601F00700C0F1070ABAF1A6
:104D4000040F02D94FF0040A01E0C0F1070AD1466E
:104D500000F1040ABAF1070F02D24FF0000A01E095
:104D6000A0F1030AD4464FF0010A0AFA09FAAAF19F
:104D7000010A0AEA020A0AFA0CFA4FF0010B0BFACE
:104D80000CFBABF1010B0BEA030B4AEA0B042146C7
:104D9000404609F089FEBDE8F09F000000BF00F02A
:104DA0000702064B19684FF6FF031940044B0B43EB
:104DB00043EA0221014B196000BF70470CED00E08F
:104DC0000000FA0501460A680120C1F8D804002055
:104DD00081F8CC04906940F000609061506D024B06
:104DE00018435065002070470300001070470246CA
:104DF0001068416200207047F0B5034615461868F8
:104E0000446A21B944EA05401E68B06219E0186896
:104E1000806A04EB1044002208E0186800F58270F4
:104E200050F8220004EB1044501CC2B2481E9042BD
:104E3000F3D844EA0547186800F582704E1E40F822
:104E400026700020F0BD10B50446D4F8E00408F048
:104E50004DF910BD70B504460D4605EBC50304F1D0
:104E6000140101EB8301CA682946D4F8E00408F074
:104E700038F870BD70B504460D4605EBC50304F562
:104E8000157101EB8301CA682946D4F8E00408F0E3
:104E9000ACF870BD10B50446D4F8E00408F029F968
:104EA00010BD2DE9F04104460D4605F08000802834
:104EB00008D105F00F0000EBC00104F1140000EB75
:104EC000810607E005F00F0000EBC00104F5157046
:104ED00000EB81063146206809F066FB074638463C
:104EE000BDE8F08170B504460E4606F080008028CB
:104EF0000AD106F00F0000EBC00104F1140000EB32
:104F000081050120687009E006F00F0000EBC00188
:104F100004F5157000EB81050020687006F00F00A5
:104F2000287000BF94F89404012801D1022070BDBC
:104F3000012084F8940400BF2946206808F0BEFED2
:104F400000BF002084F8940400BF00BFEFE770B5F5
:104F500004460E4606F00F002179884201D901204F
:104F600070BD06F0800080280AD106F00F0000EB2B
:104F7000C00104F1140000EB81050120687009E014
:104F800006F00F0000EBC00104F5157000EB810581
:104F9000002068700020A87006F00F00287000BF85
:104FA00094F89404012801D10220D9E7012084F863
:104FB000940400BF2946206809F088F800BF00204B
:104FC00084F8940400BF00BFCAE7024601F00F0056
:104FD00000EBC00302F5157000EB830040697047D9
:104FE0002DE9F04705460E4690461F464FF0000952
:104FF00006F0800080280AD106F00F0000EBC00107
:1050000005F1140000EB81040120607009E006F056
:105010000F0000EBC00105F5157000EB81040020C6
:10502000607006F00F002070C4F808802771607867
:1050300008B120786083022F01D10020607100BF89
:1050400095F89404012802D10220BDE8F0870120E0
:1050500085F8940400BF2146286808F039FD00BF98
:10506000002085F8940400BF4846EEE72DE9F041A2
:1050700005460E461746984606F00F0000EBC001A5
:1050800005F5157000EB8104E760C4F8108000207E
:105090006061607006F00F002070A879012800D1CF
:1050A000E761AA792146286809F0A4F80020BDE844
:1050B000F08170B504460D4605F00F002179884255
:1050C00001D9012070BD05F0800080280AD105F0CB
:1050D0000F0000EBC00104F1140000EB8106012079
:1050E000707007E005EBC50104F5157000EB810653
:1050F000002070700120B07005F00F00307000BF0C
:1051000094F89404012801D10220DBE7012084F8FF
:10511000940400BF3146206809F01FF805F00F0025
:1051200028B9A17904F29C42206808F097FF00BFDB
:10513000002084F8940400BF00BFC3E72DE9F041CC
:1051400005460E461746984606F00F0000EBC001D4
:1051500005F1140000EB8104E760C4F81080002022
:1051600060610120607006F00F002070A8790128AE
:1051700000D1E761AA792146286809F03BF80020B0
:10518000BDE8F0812DE9FE4F0446D4F800B05E463C
:10519000206809F0EBFA002874D1206809F025FB9B
:1051A00008B9BDE8FE8F40F608008059C0F30D2015
:1051B000C4F8D404206809F018FB00F002000228AB
:1051C00005D12068406900F002002168486120682C
:1051D00009F00BFB00F01000102845D12068806911
:1051E00020F0100021688861DBF8209009F00F00A2
:1051F00000EBC00104F5157000EB810AC9F34340D0
:1052000002281AD147F6F07009EA000030B3C9F35A
:105210000A125846DAF80C1009F0ECFAC9F30A1130
:10522000DAF80C000844CAF80C00C9F30A11DAF8DD
:1052300014000844CAF8140010E0C9F343400628DB
:105240000CD1082204F29C41584609F0D3FAC9F364
:105250000A11DAF814000844CAF8140020688069BA
:1052600040F0100021688861206809F0BEFA00F45F
:105270000020B0F5002F7BD10025206809F085FAC9
:10528000029072E003E3029800F00100002868D069
:10529000E9B2206809F09CFA804608F0010048B1A4
:1052A000012106F5306000EB45108160294620465B
:1052B00004F0DCFC08F00800082809D1082106F5F4
:1052C000306000EB451081602946204604F09CFCCC
:1052D00008F01000102805D1102106F5306000EB11
:1052E0004510816008F00200022824D1DBF8140088
:1052F00000F08000802807D140F60400805940F477
:10530000806140F60400815105EBC50104F515707C
:1053100000EB810A9AF80300012806D100208AF8E0
:105320000300E9B2204600F0BDFA022106F5306024
:1053300000EB4510816008F02000202805D12021D5
:1053400006F5306000EB4510816008F40050B0F5C0
:10535000005F06D14FF4005106F5306000EB4510B8
:1053600081606D1C029840080290029800288AD142
:10537000206809F03AFA00F48020B0F5802F7DD142
:10538000206809F0F8F9029000259AE0029800F0F0
:105390000100002873D0E9B2206809F000FA8046C5
:1053A00008F00100F0B305F00F01012088400190E2
:1053B00040F634008159019821EA000040F634019A
:1053C0008851012106F5106000EB45108160A0793D
:1053D000012824D105EBC50104F1140000EB810084
:1053E00005EBC502C16804F1140000EB820080687F
:1053F000014405EBC50204F1140000EB8200C1601A
:105400006DB905EBC50104F1140000EB81000069E2
:1054100028B904F29C420121206808F01FFEE9B27D
:10542000204600E001E0FFF715FD08F0080008281D
:1054300005D1082106F5106000EB4510816008F0E9
:105440001000102805D1102106F5106000EB451062
:10545000816008F04000402805D1402106F5106029
:1054600000EB4510816008F0020002281DD129469A
:10547000584609F03EF905EBC50101E025E01CE0C6
:1054800004F1140000EB810A9AF80300012806D108
:1054900000208AF80300E9B2204600F0FAF9022160
:1054A00006F5106000EB4510816008F08000802850
:1054B00003D12946204604F07BFC6D1C029840086D
:1054C0000290029800287FF461AF206809F08DF9FE
:1054D00000F00040B0F1004F1CD140F604008059AC
:1054E00020F0010140F60400815194F8CC04012819
:1054F00007D1002084F8CC0400212046FFF776FC79
:1055000002E0204600F0FAFA2068406900F000400E
:1055100021684861206809F068F900F40060B0F57E
:10552000006F0ED140F60800805900F0010010B164
:10553000204600F03BFB2068406900F400602168D1
:105540004861206809F051F900F00060B0F1006F87
:1055500019D12068406900F000602168486194F822
:10556000CC0468B9012084F8CC042068406DC0F3F5
:105570008300C4F8D00401212046FFF737FC02E085
:10558000204600F013FB206809F02FF900F480504A
:10559000B0F5805F7ED140F60400805920F0010113
:1055A00040F6040081511021206809F0A2F800277C
:1055B00032E04FF67F3106F5106000EB4710816056
:1055C00006F5106000EB4710006820F4001106F5A6
:1055D000106000EB471001604FF67F3106F5306038
:1055E00000EB4710816006F5306000EB4710006863
:1055F00020F4001106F5306000EB4710016006F55D
:10560000306000EB4710006840F0006106F5306044
:1056100000EB471001607F1C2079B842C9D840F6E2
:105620001C00805940F0011140F61C008151E07BC4
:1056300070B1D6F8840840F00B01C6F8841840F623
:105640004400805940F00B0140F6440081510FE0C6
:1056500040F61400805942F22B01084340F6140131
:105660008851081F805940F00B014FF401608151AF
:10567000D6F8000820F4FE60C6F80008A17904F20C
:105680009C42206808F0EAFC2068406900F48050E1
:10569000216800E000E04861206809F0A6F800F405
:1056A0000050B0F5005F17D1206808F079FA206843
:1056B00009F049F8E07102F0B5FB0090E27920684A
:1056C000009909F039F9204600F000FA2068406995
:1056D00000F4005021684861206809F086F800F065
:1056E0000800082808D1204600F00FFA2068406919
:1056F00000F0080021684861206809F076F800F0A1
:105700008000802818D1DBF8180020F08000CBF84A
:10571000180001250DE005EBC50104F5157000EB3F
:105720008100C078012803D1E9B22046FFF7B9FB18
:105730006D1C2079A842EED8206809F056F800F4D4
:105740008010B0F5801F2DD1012522E006F51060F4
:1057500000EB4510D0F8009005EBC50104F11400F2
:1057600000EB81000079012812D109F00040B0F16E
:10577000004F0DD1012105EBC50204F1140000EB2F
:105780008200C170E8B240F080012046FFF789FB3B
:105790006D1C2079A842D9D82068406900F4801097
:1057A00021684861206809F020F800F40010B0F585
:1057B000001F44D1012538E006F5306000EB4510AC
:1057C000D0F8009005EBC50104F5157000EB8100E1
:1057D0000079012828D109F00040B0F1004F23D111
:1057E00009F4803094F8D41401F0010188421BD1EF
:1057F000012105EBC50204F5157000EB8200C170B4
:10580000DBF8180040F08000CBF81800DBF814003B
:1058100000F0800040B940F60400805940F4007167
:1058200040F60400815103E06D1C2079A842C3D8E2
:1058300000BF2068406900F40010216848612068BA
:1058400008F0D3FF00F08040B0F1804F08D120462F
:10585000FFF7F9FA2068406900F08040216848614C
:10586000206808F0C2FF00F0040004280FD120686F
:10587000D0F8049009F00400042802D12046FFF774
:1058800009FB2068406840EA09002168486000BFC1
:1058900087E470B504460D462946D4F8E00407F0C5
:1058A00097FC70BD70B504460D462946D4F8E00457
:1058B00007F0B2FC70BD38B504460CB9012038BD04
:1058C00094F8950428B9002084F89404204600F048
:1058D000A1F8032084F89504206808F0B7FB207C29
:1058E0008DF8000094E80F0008F06EF920B1022056
:1058F00084F895040120E2E70021206808F0CAFF3F
:1059000020B1022084F895040120D8E7002531E079
:10591000012105EBC50204F1140000EB8200417087
:1059200005EBC50104F1140000F8215005EBC50199
:1059300000EB81004583002105EBC50204F1140052
:1059400000EB8200017105EBC50204F1140000EBCD
:105950008200816005EBC50204F1140000EB8200B7
:10596000C16005EBC50204F1140000EB8200016187
:10597000681CC5B22079A842CADC00252AE00021B3
:1059800005EBC50204F5157000EB8200417005EBD4
:10599000C50104F5157000F82150002105EBC50282
:1059A00000EB8200017105EBC50204F5157000EBF8
:1059B0008200816005EBC50204F5157000EB8200E2
:1059C000C16005EBC50204F5157000EB82000161B2
:1059D000681CC5B22079A842D1DC207C8DF800007B
:1059E00094E80F0008F042FA20B1022084F89504F0
:1059F000012064E700206074012084F89504207B76
:105A0000012802D12046FFF7DDF9206808F01CFAD2
:105A1000002054E710B5B8B00446142132A8FAF7B4
:105A200043FEC02102A8FAF73FFE254920688842BC
:105A300044D14FF480210020CDE902104FF44010F2
:105A4000249002A801F0AAF908B1FCF7A4FD00F027
:105A5000F7F800BF1B48006840F0010019490860D2
:105A60000846006800F00100019000BF00BF4FF43D
:105A7000C0503290022033900020349002203590A4
:105A80000A20369032A91048FEF7ECFB00BF0D4803
:105A90000838006840F000600A4908390860084684
:105AA000006800F00060019000BF00BF00221146B6
:105AB0006520FFF735F96520FFF71EF938B010BDF6
:105AC00000000840E04402580000025870B5044647
:105AD0000125E07908B9002506E0E079022801D126
