:020000040800F2
:10000000D0EB00244903000839900008AD8B0008AC
:10001000ED8F0008010D00087DE0000800000000E1
:10002000000000000000000000000000FDA4000827
:100030002113000800000000AB92000831A5000861
:1000400063030008630300086303000863030008F8
:1000500063030008630300086303000863030008E8
:10006000630300086303000863030008A50D00088C
:1000700063030008630300086303000863030008C8
:1000800063030008630300086303000863030008B8
:1000900063030008630300086303000863030008A8
:1000A0006303000863030008630300086303000898
:1000B0006303000863030008630300086303000888
:1000C000630300086303000863030008EDA400084D
:1000D00063030008F5B70008630300086303000822
:1000E00063030008630300080000000063030008C6
:1000F0006303000863030008630300086303000848
:100100006303000863030008630300086303000837
:100110006303000863030008630300086303000827
:100120006303000863030008630300086303000817
:100130006303000863030008630300086303000807
:1001400000000000000000000000000000000000AF
:1001500063030008630300086303000863030008E7
:1001600063030008630300086303000863030008D7
:100170006303000863030008630300080000000035
:1001800063030008630300086303000863030008B7
:1001900063030008630300086303000863030008A7
:1001A0006303000863030008630300086303000897
:1001B0006303000863030008630300086303000887
:1001C0006303000863030008630300086303000877
:1001D000630300083D900008630300086303000800
:1001E0006303000863030008630300086303000857
:1001F0006303000863030008630300086303000847
:100200006303000863030008630300086303000836
:100210006303000863030008630300086303000826
:100220006303000863030008630300080000000084
:100230006303000863030008000000006303000874
:1002400063030008630300086303000863030008F6
:1002500063030008630300086303000863030008E6
:1002600063030008630300086303000863030008D6
:100270006303000863030008630300080000000034
:100280006303000863030008630300080000000024
:10029000000000006303000800F002F800F045F8D9
:1002A0000AA090E8000C82448344AAF10107DA45D1
:1002B00001D100F03AF8AFF2090EBAE80F0013F0DE
:1002C000010F18BFFB1A43F001031847C0BB03001E
:1002D000E0BB0300103A24BF78C878C1FAD85207AF
:1002E00024BF30C830C144BF04680C6070470000B0
:1002F0000023002400250026103A28BF78C1FBD82F
:10030000520728BF30C148BF0B607047642900F016
:100310004781002070471FB510F08EFF9DE8030055
:1003200000F0FCFA1FBD10B510BD00F0CBFB11466C
:10033000FFF7F1FF10F0BEFB00F0E9FB03B4FFF79D
:10034000F2FF03BC00F01AFC094880470948004747
:10035000FEE7FEE7FEE7FEE7FEE7FEE7FEE7FEE775
:10036000FEE7FEE704480549054A064B70470000D2
:1003700079A6000899020008D0CB0024D0EB002415
:10038000D0DB0024D0DB002470B5064600F0AAFACA
:10039000056806F10B0020F00704B4429CBF002062
:1003A00070BD2B466A68BAB11068A04210D304F140
:1003B000080188423CBF5068586007D35168101943
:1003C00041601168091B016058601460101D70BD08
:1003D00013465268002AE7D12146284600F08AFADF
:1003E0000028DED170BD70B50446051F00F07AFA12
:1003F0000068002C14BF446870BD002C18BFAC42CC
:100400003CBF20466468F8D301680A18AA4218BFA6
:10041000456003D12A6805461144016028684119E6
:10042000A1421CBF6C6070BD6168696021680844AE
:10043000286070BD53EA020C00F069802DE9F04B92
:100440004FF00006002B1FBFB3FA83F503FA05F443
:1004500024FA05F65E4012BF1643B2FA82F502FA9C
:1004600005F4C5F120051EBF22FA05FC44EA0C0480
:10047000203556EA044C4FEA144418BF641C4FF070
:1004800000084FF00009904271EB030C39D30029AA
:1004900019BFB1FA81F701FA07F6B0FA80F700FA4E
:1004A00007F6C7F120071EBF20FA07FC46EA0C0634
:1004B0002037B6FBF4FCA7EB0507103F07F01F0B36
:1004C000CBF120060CFA0BFB2CFA06F644BFB34620
:1004D0000026202FA4BF5E464FF0000B5BEA060CFF
:1004E00008BF4FF0010B19EB0B09ABFB027C48EB8B
:1004F0000608C01B06FB02CC0BFB03CC71EB0C0106
:10050000C1E70B46024641464846BDE8F08B13B5AD
:100510004FF000004FF00001AFF30080BDE81C4039
:10052000704700000FB41CB5084B06AA7B4469460F
:100530000090059800F087FA04460020694600F014
:1005400095FA20461CBC5DF814FB00003D05000038
:1005500070B5044685690068C10601D5302600E003
:100560002026C00707D070BDD4E90121304690474E
:10057000206A401C20626D1EF6D570BD70B5044621
:1005800085690078C00707D170BDD4E9012120201A
:100590009047206A401C20626D1EF6D570BD000099
:1005A0002DE9F0410646002410687529314616A54C
:1005B00010D0AFF30080002802DA404213A507E014
:1005C00031688A0701D512A502E0490704D511A5B3
:1005D000012401E0AFF3008000210A2206F1240784
:1005E00009E0B0FBF2FCB0FBF2F302FB1C00303080
:1005F00078541846491C0028F3D123462A46304631
:10060000BDE8F04100F0C0B9000000002D0000007E
:100610002B000000200000002DE9F05F8946044611
:100620004FF0000ADFF874B1FB44C0F820A0204668
:10063000E1688847002874D0252806D0D4E9012134
:100640009047206A401C2062F1E700265F46204662
:10065000E16888472028054607DB312D05D2781947
:1006600010F8200C08B10643F1E7B00701D526F0D9
:100670000406C4F81CA00027C4F818A02A2D09D02D
:1006800028460DF041FD38B304EB8708303DC8F82B
:10069000185019E059F8041B204604EB87029161B9
:1006A000E1688847012F054618D1E069002820DA63
:1006B00026F020061DE0D8F8180000EB800005EBBE
:1006C00040003038C8F818002046E16888470546E1
:1006D0000DF01AFD0028EED1012F0AD02E2D08D1E1
:1006E0002046E16888477F1C0546022F46F0200619
:1006F000C4DBA069002803DA404246F00106A0618D
:10070000F00701D026F010066C2D0BD0682D09D013
:100710004C2D39D06A2D35D0742D35D07A2D33D06B
:1007200016E038E0E1682F4620468847B842054683
:1007300009D16C2F26D04FF48060E1680643204633
:100740008847054604E06C2F1AD04FF480700643AA
:100750000DB3A5F14100192802D8203546F40066F2
:100760004A462946204626604E46FFF7CFFD80B117
:1007700001280BD0F61D26F0070000F1080956E706
:100780004020E4E78020D8E70020D6E706F10409FE
:100790004DE7284652E7206ABDE8F09F4CB80300B9
:1007A000032A40F2308010F0030C00F0158011F89D
:1007B000013BBCF1020F624498BF11F801CB00F875
:1007C000013B38BF11F8013BA2F1040298BF00F8C9
:1007D00001CB38BF00F8013B11F0030300F0258086
:1007E000083AC0F0088051F8043B083A51F804CBAD
:1007F000A0E80810F5E7121D5CBF51F8043B40F873
:10080000043BAFF30080D20724BF11F8013B11F87D
:1008100001CB48BF11F8012B24BF00F8013B00F8C1
:1008200001CB48BF00F8012B704710B5203AC0F04B
:100830000B80B1E81850203AA0E81850B1E81850E1
:10084000A0E81850BFF4F5AF5FEA027C24BFB1E81E
:100850001850A0E8185044BF18C918C0BDE810408F
:100860005FEA827C24BF51F8043B40F8043B08BF98
:100870007047D20728BF31F8023B48BF11F8012B5F
:1008800028BF20F8023B48BF00F8012B70474FF00B
:10089000000200B5134694469646203922BFA0E8D0
:1008A0000C50A0E80C50B1F12001BFF4F7AF0907DC
:1008B00028BFA0E80C5048BF0CC05DF804EB8900CD
:1008C00028BF40F8042B08BF704748BF20F8022B10
:1008D00011F0804F18BF00F8012B70477047704728
:1008E000704700000048704774CB00247047704781
:1008F0007047704738B504460A4600206946AFF392
:100900000080002808BF38BD02460099204600F04C
:10091000B7F8012038BD012000F0CCB8F8B5AFF32E
:100920000080054600200C46102000BF0646A8198E
:10093000A0420DD9324669460020AFF3008007007F
:1009400008BF00F0B7F80098A04218BF0546C419C8
:10095000FFF7C8FF05600746F01D20F007004619A5
:10096000284600F00AF8B44208BFF8BDA21B314681
:100970003868BDE8F84000F083B800210160C0E9A4
:1009800001107047102070472DE9F0470D46994639
:100990009246044600F124080168880604D5E069FF
:1009A00021F01001216000E00120A84201DD471B79
:1009B00000E00027A1697A1902EB0900081AA0617A
:1009C0002078C00602D42046FFF7C2FD002608E0CA
:1009D000D4E901211AF806009047206A401C761CD1
:1009E00020624E45F4DB2078C0060AD52046FFF78A
:1009F000AFFD06E0D4E9012130209047206A401C79
:100A00002062381EA7F10107F4DC07E0D4E90121D8
:100A100018F805009047206A401C2062281EA5F1A6
:100A20000105F3DC2046FFF7A9FD2078000602D57A
:100A30000220BDE8F0870120FBE7000001694A1CA5
:100A400002610878704700B58FB0CDE9013100210F
:100A5000059105497944CDE9031011466846FFF731
:100A6000DBFD0FB000BD0000E5FFFFFF0A6802F8E4
:100A7000010B0A6070470000004870476CCB0024EF
:100A8000034640688C46002818BF88423CBF034696
:100A90004068F8D318681844884207D00CF1030066
:100AA00020F00700001D411A521A0146081D0A6075
:100AB000FFF799BC10B500F039F8BDE8104000F020
:100AC0002FB870477546FFF7D7FFAE460500694659
:100AD000534620F00700854618B020B5FFF742FCCA
:100AE000BDE820404FF000064FF000074FF000082F
:100AF0004FF0000B21F00701AC46ACE8C009ACE8B0
:100B0000C009ACE8C009ACE8C0098D46704710B513
:100B10000446AFF300802046BDE81040FFF70EBC4E
:100B2000002801D000F02AB87047000010B5012855
:100B300005D0002103A000F027F8012010BD09A175
:100B4000F8E7000053494752544D454D3A204F7540
:100B500074206F662068656170206D656D6F7279B5
:100B6000000000003A2048656170206D656D6F726D
:100B70007920636F72727570746564000149182082
:100B8000ABBEFEE72600020070B505460C460A2003
:100B900000E06D1C00F011F835B128780028F8D17C
:100BA00002E0641C00F009F814B120780028F8D1A4
:100BB000BDE870400A20AFF3008008B569468DF8A3
:100BC00000000320ABBE08BDF8B504460D4644F254
:100BD0000400065900202BE006EBC001B1F80170BB
:100BE000ADF80070B1F80570ADF80270BDF8007096
:100BF00007EB87073FB2ADF80070BDF8027007EB56
:100C000087073FB2ADF8027005EB4007BDF800C0A2
:100C1000A7F800C002EB4007BDF802C0A7F800C06B
:100C200003EB8007DDF800C0C7F800C0471CB8B26E
:100C3000B0F5806FD0DBF8BD10B504462146024800
:100C400006F0D0FF10BD0000E802002410B50448F3
:100C500006F0DBFF042801D0012010BD0020FCE7D6
:100C6000E802002410B5002400F014F8012801D097
:100C7000022010BD064807F04FF8044634B94FF47F
:100C80008041034806F00AFE00B101242046F0E747
:100C9000E802002408B5012000909DF8000008BD7E
:100CA0002DE9F84304460D4616461F464FF000084E
:100CB00033462A4621460548009707F06DF908B1EA
:100CC0004FF001084046BDE8F8830000E802002428
:100CD0002DE9F84304460D4616461F464FF000081E
:100CE00033462A4621460548009707F071FA08B1B5
:100CF0004FF001084046BDE8F8830000E8020024F8
:100D000000BFFEE70346042B15D007DC7BB1012BA7
:100D10000ED0022B0DD0032B12D10BE0202B0BD0C9
:100D2000212B0AD0222B09D0232B09D107E008E080
:100D300007E006E005E004E003E002E001E000E097
:100D400000BF00BF002070470020704710B5002290
:100D5000044905480AF0F1FF044903480AF0DEFFA0
:100D6000002010BDD4100024F8030024D40800246F
:100D700070B504460D46214606480AF0CFFF0548E7
:100D80000AF098FF288881B220460CF069FB002009
:100D900070BD0000F803002410B503460C46002186
:100DA000084610BD10B5024800F0B4FF10BD0000A9
:100DB000240200240146374A0868904249D0354A47
:100DC00018320868904244D0324A30320868904263
:100DD0003FD0304A4832086890423AD02D4A6032BB
:100DE0000868904235D02B4A78320868904230D05B
:100DF000284A9032086890422BD0264AA8320868C8
:100E0000904226D0244A0868904222D0224A1832C2
:100E1000086890421DD0204A30320868904218D0AD
:100E20001D4A48320868904213D01B4A6032086855
:100E300090420ED0184A78320868904209D0164A7B
:100E400090320868904204D0134AA8320868904251
:100E500001D1012000E00020B0B10A78103A182337
:100E6000B2FBF3F000F007020C4B9A5CCA65032852
:100E700005D90A686FF30902121D8A6503E00A6842
:100E80006FF309028A6503E0086820F0FF008865B7
:100E9000886D7047100002401004024042120108A1
:100EA00010B502682B4C0368A34222D0294C14349D
:100EB0000368A3421DD0274C28340368A34218D0EE
:100EC000244C3C340368A34213D0224C50340368B2
:100ED000A3420ED01F4C64340368A34209D01D4CBA
:100EE00078340368A34204D01A4C8C340368A342BC
:100EF00001D1012300E000238BB10378083B1424C7
:100F0000B3FBF4F1144B03EB81030366124B803304
:100F1000436601F01F040123A340836618E00378B1
:100F2000103B1824B3FBF4F10C4B9A4204D80B4B42
:100F3000A83B9A4200D30831094B03EB81030366B7
:100F4000074B8033436601F01F040123A3408366EF
:100F500010BD00000854025800580258B80402405E
:100F6000000802400179A9B3082940D8204B026843
:100F70009A4222D01E4B143302689A421DD01C4B59
:100F8000283302689A4218D0194B3C3302689A42BF
:100F900013D0174B503302689A420ED0144B64336F
:100FA00002689A4209D0124B783302689A4204D000
:100FB0000F4B8C3302689A4201D1012200E00022DB
:100FC0004AB14A1E0B4B03EB8202C266094A403209
:100FD000026708E00BE04A1E074B03EB8202C26681
:100FE000054A403202674A1E012393404367704717
:100FF00008540258005902580009024001460020D6
:101000008A69D2B98A6A32B1012A0DD0022A03D084
:10101000032A10D10EE000BFCA6A02F08072B2F15A
:10102000807F00D1012007E0CA6AB2F1C07F00D101
:10103000012001E000E000BF36E08A69B2F5005F00
:101040001BD18A6A32B1012A07D0022A03D0032AAF
:1010500011D10AE000BF01200EE0CA6A02F08072DE
:10106000B2F1807F00D1012006E0CA6AB2F1C07FF0
:1010700000D1012000E000BF16E08A6A32B1012AE7
:1010800005D0022A04D0032A0CD103E000BF00BF20
:10109000012008E0CA6A02F08072B2F1807F00D1BC
:1010A000012000E000BF00BF70470000F0B5856D73
:1010B000846D984F0668BE4270D0964F1837066808
:1010C000BE426BD0934F30370668BE4266D0914F18
:1010D00048370668BE4261D08E4F60370668BE4210
:1010E0005CD08C4F78370668BE4257D0894F903716
:1010F0000668BE4252D0874FA8370668BE424DD020
:10110000854F0668BE4249D0834F18370668BE42F5
:1011100044D0814F30370668BE423FD07E4F4837BB
:101120000668BE423AD07C4F60370668BE4235D072
:10113000794F78370668BE4230D0774F90370668CF
:10114000BE422BD0744FA8370668BE4226D0734FDC
:101150000668BE4222D0714F14370668BE421DD0C9
:101160006E4F28370668BE4218D06C4F3C37066871
:10117000BE4213D0694F50370668BE420ED0674F4B
:1011800064370668BE4209D0644F78370668BE42AD
:1011900004D0624F8C370668BE4201D1012600E0C0
:1011A00000263EB1D0E919767E60C66E16B1D0E950
:1011B0001C767E60574F0668BE4249D0554F18379F
:1011C0000668BE4244D0534F30370668BE423FD017
:1011D000504F48370668BE423AD04E4F60370668D7
:1011E000BE4235D04B4F78370668BE4230D0494FAB
:1011F00090370668BE422BD0464FA8370668BE42DD
:1012000026D0454F0668BE4222D0434F18370668A5
:10121000BE421DD0404F30370668BE4218D03E4F08
:1012200048370668BE4213D03B4F60370668BE425F
:101230000ED0394F78370668BE4209D0364F903706
:101240000668BE4204D0344FA8370668BE4201D1BA
:10125000012600E00026DEB190F85C6006F01F0772
:101260003F26BE40AE600668366826F480260768D2
:101270003E60066873608668402E04D10668B260DE
:101280000668F16044E00668B1600668F2603FE01D
:10129000224F0668BE4222D0204F14370668BE4255
:1012A0001DD01E4F28370668BE4218D01B4F3C3752
:1012B0000668BE4213D0194F50370668BE420ED0A2
:1012C000164F64370668BE4209D0144F7837066857
:1012D000BE4204D0114F8C370668BE4201D10126B0
:1012E00000E00026A6B190F85C6006F01F0701261A
:1012F000BE406660066873608668402E04D106684A
:10130000B2600668F16003E00668B1600668F260EA
:10131000F0BD0000100002401004024008540258C2
:10132000704772B600BFFEE730B504460D46002296
:101330002946204600F002F830BD0000F0B5034613
:10134000012500241148407A01281CDA00200F4EA4
:10135000767A0E4FB8553846467A001D40F826304A
:10136000001F467A083082553E46707A461C7E72CF
:10137000044604F1300008703A2048702F2088702D
:101380000020C87000252846F0BD0000B0C8002429
:1013900010B50CF075FE012203A104480EF0E8F828
:1013A0000446204610BD0000303A000000C400246E
:1013B00070B504460D46A4F878520020C4F87C02AB
:1013C0002A4607A104F51670FFF7ACF80B2204F5C6
:1013D000167120460EF0FCF80646304670BD00003F
:1013E000253034642E77617600000000F8B504469D
:1013F0000E4617466B463A46314620460EF0A0FB95
:1014000005460DB12846F8BDD4F87C020099084481
:10141000C4F87C0220460EF0BFFA05462846F2E7E3
:1014200038B50446D4F87C0224300F494860D4F81B
:101430007C0288620022134620460DF061FE0546BC
:101440000DB1284638BD6B462C22074920460EF0C8
:1014500077FB05460DB12846F4E720460DF03AFE2D
:1014600005462846EEE7000040CB002470B50A4848
:101470000468001D0568001D0668344454B1082244
:101480000649204607F0C6FB0422044910312846CD
:1014900007F0C0FB70BD000000E8F11F4A00002407
:1014A0002DE9F041044601F04FFF804614B90120B8
:1014B000BDE8F08194F83500022808D080206065EE
:1014C00000BF002084F8340000BF0120F0E7FE498F
:1014D0002068884249D0FC4918312068884244D0AD
:1014E000F9493031206888423FD0F74948312068B7
:1014F00088423AD0F44960312068884235D0F249B8
:1015000078312068884230D0EF4990312068884295
:101510002BD0ED49A8312068884226D0EB492068BD
:10152000884222D0E9491831206888421DD0E74915
:1015300030312068884218D0E44948312068884218
:1015400013D0E2496031206888420ED0DF497831FB
:101550002068884209D0DD4990312068884204D053
:10156000DA49A8312068884201D1012000E000203A
:1015700068B12068006820F01E00216808602068BB
:10158000406920F0800021684861256806E02068F5
:10159000006820F00E00216808602568CA492068AC
:1015A000884270D0C8491831206888426BD0C6493B
:1015B00030312068884266D0C3494831206888426B
:1015C00061D0C1496031206888425CD0BE49783121
:1015D0002068884257D0BC4990312068884252D058
:1015E000B949A831206888424DD0B849206888425E
:1015F00049D0B64918312068884244D0B3493031C7
:10160000206888423FD0B1494831206888423AD0AA
:10161000AE4960312068884235D0AC4978312068C5
:10162000884230D0A9499031206888422BD0A74900
:10163000A8312068884226D0A5492068884222D057
:10164000A3491431206888421DD0A149283120685F
:10165000884218D09E493C312068884213D09C496A
:101660005031206888420ED0994964312068884200
:1016700009D0974978312068884204D094498C3148
:101680002068884201D1012000E0002028B1206EAE
:10169000006820F48070216E08608B4920688842C1
:1016A00049D0894918312068884244D08649303170
:1016B000206888423FD084494831206888423AD027
:1016C000814960312068884235D07F49783120686F
:1016D000884230D07C499031206888422BD07A49AA
:1016E000A8312068884226D078492068884222D0D4
:1016F00076491831206888421DD0744930312068FD
:10170000884218D0714948312068884213D06F4907
:101710006031206888420ED06C4978312068884258
:1017200009D06A4990312068884204D06749A831BD
:101730002068884206D12068006820F001002168F6
:10174000086005E02068006820F00100216808605A
:1017500011E001F0F9FDA0EB080005280BD92020CD
:101760006065032084F8350000BF002084F8340051
:1017700000BF01209CE6286800F001000028E8D1A5
:1017800051492068884249D04F4918312068884221
:1017900044D04D493031206888423FD04A494831D1
:1017A000206888423AD0484960312068884235D064
:1017B000454978312068884230D0434990312068CB
:1017C00088422BD04049A8312068884226D03F4922
:1017D0002068884222D03D491831206888421DD0B7
:1017E0003A4930312068884218D038494831206859
:1017F000884213D035496031206888420ED0334981
:1018000078312068884209D0304990312068884278
:1018100004D02E49A8312068884201D1012000E07F
:10182000002040B1A66D94F85C0000F01F013F203D
:101830008840B06007E0A76D94F85C0000F01F01DD
:1018400001208840786020492068884276D01E496F
:1018500018312068884271D01B4930312068884295
:101860006CD0194948312068884267D016496031E8
:101870002068884262D014497831206888425DD05F
:10188000114990312068884258D00F49A83120680A
:10189000884253D00D49206888424FD00B491831F7
:1018A000206888424AD0094930312068884245D0B2
:1018B000064948312068884240D004496031206898
:1018C00088423BD0014905E010000240100402406C
:1018D000085402587831206888422FD02549206862
:1018E00088422BD0234918312068884226D02249CB
:1018F0002068884222D020491431206888421DD0B7
:101900001D4928312068884218D01B493C31206885
:10191000884213D018495031206888420ED01649A9
:1019200064312068884209D01349783120688842A0
:1019300004D011498C312068884201D1012000E097
:10194000002068B1D4E919104860E06E40B1E06E43
:10195000006820F48070E16E0860D4E91C104860D3
:10196000012084F8350000BF002084F8340000BF57
:1019700000BF9DE5A00402400854025870B504461B
:101980000CB9012070BD94F83500022803D08020E6
:1019900060650120F6E7DC492068884249D0DA49D1
:1019A00018312068884244D0D749303120688842B5
:1019B0003FD0D5494831206888423AD0D249603179
:1019C0002068884235D0D04978312068884230D0AC
:1019D000CD499031206888422BD0CB49A83120686E
:1019E000884226D0C9492068884222D0C749183188
:1019F000206888421DD0C54930312068884218D0FF
:101A0000C24948312068884213D0C04960312068FB
:101A100088420ED0BD4978312068884209D0BB4940
:101A200090312068884204D0B849A83120688842A3
:101A300001D1012000E00020F0B3042084F835003B
:101A4000B149206888424BD0AF491831206888429C
:101A500046D0AD4930312068884241D0AA4948314A
:101A6000206888423CD0A84960312068884237D03D
:101A7000A54978312068884232D0A3499031206846
:101A800088422DD0A049A8312068884228D09F499B
:101A90002068884224D09D491831206888421FD090
:101AA0009A493031206888421AD0984948312068D4
:101AB000884215D0954900E020E0603120688842D6
:101AC0000ED0924978312068884209D08F499031F0
:101AD0002068884204D08D49A8312068884206D108
:101AE0002068006820F001002168086009E1206892
:101AF000006820F001002168086002E120680068A9
:101B000020F00E00216808607F492068884249D093
:101B10007D4918312068884244D07B4930312068A3
:101B200088423FD078494831206888423AD0764987
:101B300060312068884235D0734978312068884206
:101B400030D071499031206888422BD06E49A8313D
:101B50002068884226D06D492068884222D06B498F
:101B60001831206888421DD0684930312068884289
:101B700018D0664948312068884213D063496031E3
:101B8000206888420ED0614978312068884209D0A7
:101B90005E4990312068884204D05C49A8312068B1
:101BA000884206D12068006820F0010021680860A2
:101BB00005E02068006820F00100216808605249B3
:101BC0002068884270D050491831206888426BD014
:101BD0004D4930312068884266D04B4948312068F1
:101BE000884261D048496031206888425CD04649CB
:101BF00078312068884257D0434990312068884224
:101C000052D04149A831206888424DD03F492068D0
:101C1000884249D03D4918312068884244D03B4928
:101C20003031206888423FD03849483120688842A6
:101C30003AD0364960312068884235D0334978310E
:101C40002068884230D031499031206888422BD0BA
:101C50002E49A8312068884226D02D492068884224
:101C600022D02B491431206888421DD028492831C0
:101C70002068884218D026493C312068884213D019
:101C800023495031206888420ED0214964312068B0
:101C9000884209D01E4978312068884204D01C4906
:101CA0008C312068884201D1012000E00020D8B1A9
:101CB000206E006820F48070216E0860A56D94F895
:101CC0005C0000F01F01012088406860D4E9191011
:101CD0004860E06E40B1E06E006820F48070E16E14
:101CE0000860D4E91C104860012084F8350000BF6A
:101CF000002084F8340000BF206D10B12046216D13
:101D0000884700203EE60000100002401004024018
:101D1000085402582DE9F84F044600200090FE4870
:101D200000684FF41651B0FBF1FAA66DD4F8588054
:101D30003768D8F80090F9492068884249D0F749B7
:101D400018312068884244D0F449303120688842F4
:101D50003FD0F2494831206888423AD0EF4960319B
:101D60002068884235D0ED4978312068884230D0EB
:101D7000EA499031206888422BD0E849A831206890
:101D8000884226D0E6492068884222D0E4491831AA
:101D9000206888421DD0E24930312068884218D03E
:101DA000DF4948312068884213D0DD49603120681E
:101DB00088420ED0DA4978312068884209D0D84963
:101DC00090312068884204D0D549A83120688842E3
:101DD00001D1012000E0002000287DD094F85C00B3
:101DE00000F01F01082088403840002868D0CB4907
:101DF0002068884249D0C94918312068884244D0B7
:101E0000C6493031206888423FD0C44948312068F3
:101E100088423AD0C14960312068884235D0BF49F4
:101E200078312068884230D0BC499031206888429F
:101E30002BD0BA49A8312068884226D0B8492068FA
:101E4000884222D0B6491831206888421DD0B44952
:101E500030312068884218D0B14948312068884222
:101E600013D0AF496031206888420ED0AC49783138
:101E70002068884209D0AA4990312068884204D05D
:101E8000A749A8312068884204D12068006800F082
:101E9000040003E02068006800F0080080B12068BA
:101EA000006820F004002168086094F85C0000F0ED
:101EB0001F0108208840B060606D40F0010060653F
:101EC00094F85C0000F01F01012088403840E8B31E
:101ED00092492068884200E0B7E24BD08F49183120
:101EE0002068884246D08D4930312068884241D0F0
:101EF0008A494831206888423CD08849603120684E
:101F0000884237D0854978312068884232D0834969
:101F10009031206888422DD08049A83120688842BD
:101F200028D07F492068884224D07D491831206814
:101F300088421FD07A493031206888421AD07849C7
:101F400048312068884215D0754900E026E06031AC
:101F5000206888420ED0724978312068884209D0C2
:101F60006F4990312068884204D06D49A8312068BB
:101F7000884204D12068406900F0800002E02068B7
:101F80000068002050B194F85C0000F01F010120AF
:101F90008840B060606D40F00200606594F85C00BD
:101FA00000F01F01042088403840E8B35B492068F6
:101FB00088424BD0594918312068884246D0574949
:101FC00030312068884241D05449483120688842E5
:101FD0003CD0524960312068884237D04F4978312F
:101FE0002068884232D04D499031206888422DD0F7
:101FF0004A49A8312068884228D049492068884247
:1020000024D047491831206888421FD044493031D4
:10201000206888421AD0424948312068884215D049
:102020003F496031206800E024E088420ED03C49FE
:1020300078312068884209D0394990312068884237
:1020400004D03749A8312068884204D1206800684C
:1020500000F0020002E020680068002050B194F80F
:102060005C0000F01F0104208840B060606D40F00B
:102070000400606594F85C0000F01F0110208840A7
:102080003840E8B325492068884251D023491831A7
:10209000206888424CD0214930312068884247D09E
:1020A0001E4948312068884242D01C49603120686E
:1020B00088423DD0194978312068884238D0174984
:1020C00090312068884233D01449A8312068884272
:1020D0002ED01349206888422AD01149183120682F
:1020E000884225D00E4930312068884220D00C49E2
:1020F0004831206888421BD009496031206800E0DF
:102100004DE0884214D006497831206888420FD0CB
:1021100003499031206805E084000024100002404B
:1021200010040240884203D0FE492068884204D14E
:102130002068006800F0080003E02068006800F0F4
:10214000040060B394F85C0000F01F011020884088
:10215000B0602068006800F4802080B120680068CA
:1021600000F4002028B9206CC8B12046216C8847B3
:1021700015E0A06C98B12046A16C88470FE020685C
:10218000006800F4807028B92068006820F008001A
:1021900021680860206C10B12046216C884794F8B3
:1021A0005C0000F01F0120208840384000287DD0CE
:1021B000DD492068884249D0DB49183120688842CF
:1021C00044D0D9493031206888423FD0D64948317F
:1021D000206888423AD0D44960312068884235D09E
:1021E000D14978312068884230D0CF499031206879
:1021F00088422BD0CC49A8312068884226D0C949D2
:10220000A8392068884221D0C64990392068884280
:102210001CD0C44978392068884217D0C149603938
:102220002068884212D0BF494839206888420DD0C2
:10223000BC4930392068884208D0BA49183920682A
:10224000884203D0B7492068884204D120680068DA
:1022500000F0100003E02068006800F0020028B3DE
:1022600094F85C0000F01F0120208840B06094F8D2
:10227000350004282DD12068006820F01600216860
:1022800008602068406920F0800021684861206C67
:1022900008B9A06C28B12068006820F00800216807
:1022A000086094F85C0000F01F0100E03FE03F2070
:1022B0008840B060012084F8350000BF002084F819
:1022C000340000BF206D10B12046216D8847BDE865
:1022D000F88F2068006800F4802080B120680068D2
:1022E00000F4002028B9606C08B32046616C884770
:1022F0001DE0E06BD8B12046E16B884717E020680D
:10230000006800F4807068B92068006820F0100050
:1023100021680860012084F8350000BF002084F89F
:10232000340000BFE06B10B12046E16B8847606D60
:1023300000287AD0606D00F00100E8B3042084F832
:1023400035007949206888424BD077491831206898
:10235000884246D0744930312068884241D0724961
:102360004831206888423CD06F49603120688842FB
:1023700037D06D4978312068884232D06A4990312F
:10238000206888422DD06849A8312068884228D02A
:102390006449A8392068884223D06249903920686E
:1023A00088421ED05F4978392068884219D05D493B
:1023B00060392068884200E040E012D0594948392D
:1023C000206888420DD0574930392068884208D0AB
:1023D000544918392068884203D0524920688842FD
:1023E00006D12068006820F001002168086005E03F
:1023F0002068006820F001002168086000BF009894
:10240000401C0090504500D905E02068006800F0AD
:1024100001000028F3D100BF2068006800F001002F
:1024200020B1032084F8350003E00DE0012084F89A
:10243000350000BF002084F8340000BFE06C0028A5
:1024400002D02046E16C8847D9E1384920688842AB
:1024500022D036491431206888421DD033492831B2
:102460002068884218D031493C312068884213D016
:102470002E495031206888420ED02C4964312068A2
:10248000884209D0294978312068884204D02749F8
:102490008C312068884201D1012000E00020002812
:1024A000D2D02068056894F85C0000F01F01042079
:1024B000884000EA0900D8B305F00400C0B394F8DE
:1024C0005C0000F01F0104208840C8F8040005F4F7
:1024D000004080B105F4803030B9A06C0028B3D042
:1024E0002046A16C88478AE1206C0028ACD02046A9
:1024F000216C884783E105F02000E8BB0A49206889
:10250000884253D008491831206888424ED0064985
:1025100030312068884249D00349483120688842D8
:1025200044D006E0B80402401000024008540258AB
:102530004FE0B44960312068884237D0B1497831E2
:102540002068884232D0AF499031206888422DD02F
:10255000AC49A8312068884228D0AB49206888421D
:1025600024D0A9491831206888421FD0A6493031AB
:10257000206888421AD000E025E0A349483120684D
:10258000884213D0A0496031206888420ED09E490D
:1025900078312068884209D09B4990312068884270
:1025A00004D09949A8312068884206D12068006883
:1025B00020F008002168086005E02068006820F02D
:1025C000040021680860206C10B32046216C884705
:1025D00015E194F85C0000F01F010220884000EA39
:1025E0000900E8B305F00200D0B394F85C0000F0F5
:1025F0001F0102208840C8F8040005F4004070B1B3
:1026000005F4803028B9606C10B12046616C8847B1
:10261000F5E0E06BF0B32046E16B8847EFE005F0B2
:102620002000C0BB7749206888424ED075491831D8
:102630002068884249D0734930312068884244D0AC
:1026400070494831206888423FD06E496031206827
:1026500088423AD06B4978312068884235D000E012
:102660004EE068499031206888422ED06549A831F3
:102670002068884229D064492068884225D0624970
:1026800018312068884220D05F4930312068884264
:102690001BD001E06EE02DE05B49483120688842A4
:1026A00013D059496031206888420ED0564978319C
:1026B0002068884209D0544990312068884204D06B
:1026C0005149A8312068884206D12068006820F06E
:1026D00014002168086005E02068006820F00A0006
:1026E00021680860012084F8350000BF002084F8CC
:1026F000340000BFE06BE8B32046E16B88477EE022
:1027000094F85C0000F01F010820884000EA0900EE
:1027100080B305F0080068B33A49206888424BD07E
:10272000384918312068884246D03649303120680F
:10273000884241D033494831206888423CD03149F1
:1027400060312068884237D02E497831206888422D
:1027500032D02C499031206888422DD02949A831A7
:102760002068884228D028492068884224D02649F9
:10277000183100E043E0206888421DD02249303102
:102780002068884218D0204948312068884213D0F8
:102790001D496031206888420ED01B49783120687D
:1027A000884209D0184990312068884204D01649DF
:1027B000A8312068884206D12068006820F01C00FB
:1027C0002168086005E02068006820F00E0021689C
:1027D000086094F85C0000F01F0101208840C8F8F0
:1027E00004000120606584F8350000BF002084F8F3
:1027F000340000BFE06C10B12046E16C884700BF98
:1028000065E5000010000240100402402DE9F0418F
:10281000044600F099FD804614B90120BDE8F0811E
:10282000FE492068884249D0FC4918312068884216
:1028300044D0FA493031206888423FD0F7494831C6
:10284000206888423AD0F54960312068884235D006
:10285000F24978312068884230D0F04990312068C0
:1028600088422BD0ED49A8312068884226D0EC4917
:102870002068884222D0EA491831206888421DD059
:10288000E74930312068884218D0E549483120684E
:10289000884213D0E2496031206888420ED0E04976
:1028A00078312068884209D0DD499031206888421B
:1028B00004D0DB49A8312068884201D1012000E022
:1028C0000020002873D0606A00B100BF022084F8A5
:1028D000350000BF002084F8340000BFCF492068D5
:1028E000884249D0CD4918312068884244D0CB492C
:1028F0003031206888423FD0C8494831206888423A
:102900003AD0C64960312068884235D0C349783111
:102910002068884230D0C1499031206888422BD04D
:10292000BE49A8312068884226D0BD492068884227
:1029300022D0BB491831206888421DD0B8493031B7
:102940002068884218D0B64948312068884213D0A0
:10295000B3496031206888420ED0B149783120688F
:10296000884209D0AE4990312068884204D0AC49F1
:10297000A8312068884206D12068006820F0010054
:102980002168086005E02068006820F001002168E7
:1029900008600DE000F0D8FCA0EB0800052807D97E
:1029A00020206065032084F83500012036E76AE0C6
:1029B0002068006800F001000028EBD1206805685D
:1029C00098480540D4E90201084321690843616938
:1029D0000843A1690843E1690843216A08430543A4
:1029E000606A042803D1D4E90B01084305438E48EB
:1029F00000686FF30F00B0F1005F1DD360682928F5
:102A000002D360682E2811D960683F2802D360681D
:102A100042280BD96068472802D36068482805D946
:102A200060684F2804D36068522801D8012000E074
:102A3000002008B145F480152068056020684569CC
:102A400025F00705606A0543606A04280DD1A06A75
:102A50000543E06A48B12046FEF7D0FA28B140208D
:102A60006065012084F83500D8E62068456120467D
:102A7000FEF7A0F9064694F85C0000F01F013F2025
:102A80008840B0609EE069492068884222D067494A
:102A90001431206888421DD064492831206888425A
:102AA00018D062493C312068884213D05F495031C8
:102AB000206888420ED05D4964312068884209D080
:102AC0005A4978312068884204D058498C312068AE
:102AD000884201D1012000E00020E0B35349206882
:102AE000884222D051491431206888421DD04F4974
:102AF00028312068884218D04C493C3120688842EF
:102B000013D04A495031206888420ED04749643179
:102B10002068884209D0454978312068884204D02D
:102B200042498C312068884201D1012000E0002018
:102B300000B100BF022084F8350000BF002084F8F7
:102B4000340000BF2068056839480540A068402867
:102B500002D1102106E02EE0A068802801D1C10139
:102B600000E00021E06841EAD001206941EAD0019B
:102B7000606941EAD001A06941EAD001E06941EA17
:102B8000D001206A41EA10100543206805602749FA
:102B90002068401A1421B0FBF1F08000E065204667
:102BA000FEF708F9074694F85C0000F01F010120C9
:102BB0008840786006E040206065032084F8350096
:102BC00001202BE61549206888427FD0134918312F
:102BD000206888427AD0114930312068884275D007
:102BE0000E4948312068884270D00C496031206815
:102BF00088426BD0094978312068884266D00749FD
:102C000090312068884261D00449A8312068884208
:102C10005CD003492068884258D00BE01000024085
:102C2000100402403F8010FE0010005C085402585F
:102C30000F00FEFF3B4918312068884246D03949D1
:102C400030312068884241D0364948312068884276
:102C50003CD0344960312068884237D031497831DE
:102C60002068884232D02F499031206888422DD088
:102C70002C49A8312068884228D02B4920688842F6
:102C800024D029491431206888421FD02649283190
:102C9000206888421AD024493C312068884215D0E7
:102CA000214950312068884210D01F496431206882
:102CB00088420BD01C4978312068884206D01A49D6
:102CC0008C312068884200E000E001D1012000E062
:102CD000002000B32046FEF7E3F8A068802801D169
:102CE000002060602079216E0860D4E919104860E6
:102CF000606860B16068082809D82046FEF732F99C
:102D00000020E16E0860D4E91C10486003E0002058
:102D1000E0662067606700206065012084F8350068
:102D200000207BE510040240085402582DE9F041D0
:102D300004460D4616461F464FF0000814B9012000
:102D4000BDE8F08100BF94F83400012801D10220D1
:102D5000F6E7012084F8340000BF94F8350001281C
:102D60007ED1022084F8350000206065E4492068A7
:102D7000884249D0E24918312068884244D0E0496D
:102D80003031206888423FD0DD4948312068884290
:102D90003AD0DB4960312068884235D0D849783153
:102DA0002068884230D0D6499031206888422BD0A4
:102DB000D349A8312068884226D0D2492068884269
:102DC00022D0D0491831206888421DD0CD493031F9
:102DD0002068884218D0CB4948312068884213D0F7
:102DE000C8496031206888420ED0C64978312068D1
:102DF000884209D0C34990312068884204D0C14933
:102E0000A8312068884206D12068006820F00100BF
:102E10002168086005E02068006820F00100216852
:102E200008603B46324629462046FEF73FF9B44942
:102E3000206888424BD0B24918312068884246D079
:102E4000AF4930312068884241D0AD4948312068CF
:102E500088423CD0AA4960312068884237D000E0DF
:102E600042E1A74978312068884230D0A4499031A6
:102E7000206888422BD0A249A8312068884226D0F9
:102E8000A0492068884222D09E4918312068884293
:102E90001DD09C4930312068884218D0994948316A
:102EA0002068884213D097496031206888420ED04C
:102EB000944978312068884209D09249903120683D
:102EC000884204D08F49A8312068884201D101206E
:102ED00000E0002080B12068006820F01E0040F073
:102EE000160021680860206CB0B12068006840F0CE
:102EF0000800216808600FE02068006820F00E00DC
:102F000040F00A0021680860206C28B12068006841
:102F100040F004002168086079492068884270D038
:102F200077491831206888426BD075493031206864
:102F3000884266D0724948312068884261D0704921
:102F40006031206888425CD06D49783120688842C1
:102F500057D06B4990312068884252D06849A831D7
:102F6000206888424DD067492068884249D0654929
:102F700018312068884244D0624930312068884244
:102F80003FD060494831206888423AD05D4960317D
:102F90002068884235D05B4978312068884230D03B
:102FA00058499031206888422BD05649A831206872
:102FB000884226D054492068884222D05249143190
:102FC000206888421DD0504928312068884218D096
:102FD0004D493C312068884213D04B49503120681C
:102FE00088420ED0484964312068884209D0464959
:102FF00078312068884204D043498C312068884267
:1030000001D1012000E0002090B1206E006800F4A2
:10301000803028B1206E006840F48070216E086016
:10302000E06E28B1E06E006840F48070E16E0860E8
:1030300033492068884249D0314918312068884294
:1030400044D02F493031206888423FD02C49483144
:10305000206888423AD02A4960312068884235D0B9
:10306000274978312068884230D02549903120683E
:1030700088422BD02249A8312068884226D0214995
:103080002068884222D01F491831206888421DD00C
:103090001C4930312068884218D01A4948312068CC
:1030A000884213D017496031206888420ED01549F4
:1030B00078312068884209D01249903120688842CE
:1030C00004D01049A8312068884206D120680068E1
:1030D00040F001002168086010E02068006840F0BE
:1030E00001002168086009E04FF40060606500BFDE
:1030F000002084F8340000BF4FF0010840461FE66E
:1031000010000240100402400854025870B50446F2
:1031100000F01AF906462546681C10B104480078EC
:10312000054400BF00F010F9801BA842FAD370BD1F
:1031300080000024F8B502460B4600216F4DD7E011
:1031400001278F401E6806EA0704002C72D01E7902
:1031500006F00306012E04D01E7906F00306022EA7
:1031600013D190684F000326BE40B0434F00DE6885
:10317000BE4030439060506801268E40B0431E79B7
:10318000C6F300168E40304350601E7906F00306E9
:10319000032E09D0D0684F000326BE40B0434F0035
:1031A0009E68BE403043D0601E7906F00306022EB2
:1031B00013D1CF0802F1200656F827004E07F70E6C
:1031C0000F26BE40B0434F07FF0E1E69BE4030437E
:1031D000CF0802F1200646F8270010684F000326AA
:1031E000BE40B0431E7906F003064F00BE40304398
:1031F00010605E6806F44036002E78D000BF404E66
:10320000366846F002063E4F3E603E46366806F09F
:103210000206009600BF00BF3A4E8F0856F82700FE
:103220008E07370F0F26BE40B043374EB24202D151
:1032300000262EE05BE0354EB24201D1012628E0A7
:10324000334EB24201D1022623E0324EB24201D1C6
:1032500003261EE0304EB24201D1042619E02F4E63
:10326000B24201D1052614E02D4EB24201D106260C
:103270000FE02C4EB24201D107260AE02A4EB2429C
:1032800001D1082605E0294EB24201D1092600E00D
:103290000A268F073F0FBE4030431A4E8F0846F86C
:1032A00027004FF0B0463068A0435E6806F48016F1
:1032B00006B120434FF0B04630607068A0435E68AE
:1032C00006F4001606B120434FF0B04670606868FF
:1032D000A0435E6806F4003606B1204368602868A3
:1032E000A0435E6806F4803606B120432860491C7E
:1032F0001E68CE40002E7FF423AFF8BD800000583A
:10330000F44402580804005800000258000402580F
:1033100000080258000C025800100258001402580D
:1033200000180258001C02580020025800240258BD
:103330000AB1816101E00B048361704701480068B4
:10334000000C70470010005C0148006870470000E6
:103350007800002470B5044600252068806820F4B9
:103360000040216888602068806820F480402168DF
:103370008860606C40B1606CFEF792F820B1206DFF
:1033800040F0080020650125A06C40B1A06CFEF75C
:1033900087F820B1206D40F00800206501252068E5
:1033A000006820F0010021680860012084F84D00C9
:1033B000284670BD70472DE9F04104462068066933
:1033C0002068476906EA070594F84D00042823D1D0
:1033D00005F0010028B105F0400010B92046E16B6E
:1033E000884705F04000402816D12068006940F267
:1033F00061118843216808612068806940F04000BD
:1034000021688861012084F84D00206D40F00200A1
:1034100020652046FFF7CEFF94F84D00032823D106
:1034200005F00200022805D105F0200010B9204661
:10343000216C884705F02000202815D120680069FC
:1034400020F4B170216808612068806940F0200094
:1034500021688861012084F84D00206D40F004004F
:1034600020652046FFF7A6FF94F84D00052852D1AD
:1034700005F00400042805D12046216C8847204629
:10348000E16B884705F0010028B105F0040010B990
:103490002046E16B884705F00200022805D105F0BF
:1034A000040010B92046216C884705F02000202830
:1034B00016D12068006940F26311884321680861D1
:1034C0002068806940F0200021688861012084F82C
:1034D0004D00206D40F0040020652046FFF76AFF94
:1034E00005F04000402816D12068006940F26311C1
:1034F0008843216808612068806940F040002168A5
:103500008861012084F84D00206D40F002002065A4
:103510002046FFF74FFFBDE8F08100002DE9F0479E
:10352000044614B90120BDE8F08794F84D0028B98D
:10353000002084F84C00204600F0BCF8022084F8FB
:103540004D002068006800F0010028B12068006884
:1035500020F001002168086000202168086560688B
:10356000042805D06068062802D060680A285CD16B
:10357000606902283FD0E06810B14FF0020A01E014
:103580004FF0010AA068302802D0A068B02802D10C
:103590004FF0010901E04FF000094FF48050002185
:1035A00001F054FF80462069B0F1007F0DD14FF447
:1035B000807020FA09F0B8FBF0F000EB80004100C9
:1035C0006069B1FBF0F0471D0DE0202020FA09F002
:1035D00000FB0AF0B8FBF0F000EB800041006069EE
:1035E000B1FBF0F0471D0A20B7FBF0F707F001062A
:1035F000B81B450801E002250026012E01D1012D4E
:1036000001D0FF2D05D9206D40F01000206501206C
:1036100089E705B90126280440EA06602168096D9A
:10362000224A1140084321680865606840F00100A3
:10363000A1680843E1680843A1690843216A084377
:10364000616A0843216908432168096D184A1140DD
:1036500008432168086540F6F87021688861206891
:10366000006820F48030216808602068C06820F479
:103670000000E16908432168C8606068042805D03B
:103680006068062802D060680A2807D12068C068F0
:1036900020F00040A16A08432168C860002020652E
:1036A000012084F84D0000203DE70000FFFF00FEF0
:1036B0004090FFFD10B5B8B00446142132A8FDF7C4
:1036C000E6F8C02102A8FDF7E2F89F492068884289
:1036D0006CD181140020CDE902101A9002A802F0EA
:1036E0000DFB08B1FDF71DFE00BF9848006840F4CF
:1036F0008050964908600846006800F480500190A8
:1037000000BF00BF00BF91481038006840F00100C2
:103710008E49103908600846006800F001000190E9
:1037200000BF00BF30203290022033900020349040
:10373000022035900520369032A98548FFF7FAFC23
:1037400040203290022033903490359005203690FE
:1037500032A97F48FFF7EEFC7E487F4908602520AC
:10376000486000217C488160C1604FF48061016144
:1037700089004161890081618911C1614FF4403143
:10378000016200214162FFF741F808B1FDF7C9FD70
:1037900000BF7148A064846300BF0022114623204B
:1037A00000F06EFA232000F057FACAE06B49206857
:1037B000884255D181140020CDE902101A9002A848
:1037C00002F09CFA08B1FDF7ACFD00BF5F48083875
:1037D000006840F480405D49083908600846006888
:1037E00000F48040019000BF00BF00BF5748103870
:1037F000006840F004005549103908600846006828
:1038000000F00400019000BF00BF00BF0846006840
:1038100040F0020008600846006800F002000190D5
:1038200000BF00BF06203290022033900020349069
:10383000022035900520369032A94948FFF77AFCDE
:103840004FF4A05032900220339000203490022098
:1038500035900520369032A94248FFF76BFC70E0A6
:103860004149206888426CD181140020CDE90210C2
:103870001A9002A802F042FA08B1FDF752FD00BF0B
:1038800032480838006840F4004030490839086080
:103890000846006800F40040019000BF00BF00BF70
:1038A0002A481038006840F00100284910390860A3
:1038B0000846006800F00100019000BF00BF00BF93
:1038C0000846006840F0080008600846006800F0FC
:1038D0000800019000BF00BF00BF0846006840F02C
:1038E000020008600846006800F00200019000BF76
:1038F00000BF4FF4004032900220339000203490FB
:1039000035900620369032A91148FFF713FC40206D
:10391000329002203390002034903590052036906C
:1039200032A91248FFF706FC18203290022033908B
:103930000020349035900620369032A90948FFF7D0
:10394000F9FB38B010BD000000300140F0440258CF
:1039500000000258100002402402002400380040F9
:103960000008025800040258003C0040000C0258B5
:103970002DE9F04104460E461546002706B115B95B
:103980000120BDE8F08194F84D00012801D002200B
:10399000F7E700BF94F84C00012801D10220F0E7BE
:1039A000012084F84C0000BF042084F84D00002062
:1039B0002065666325876587E062208660862248E9
:1039C000A16C08642148A16CC8632148A16CC8643B
:1039D000638FD4F800C00CF13001626BA06CFFF76C
:1039E000A5F970B1206D40F008002065012084F831
:1039F0004D00012700BF002084F84C0000BF38466E
:103A0000BFE72068806800F4804028B9206880689B
:103A100040F48040216888602068006800F0010060
:103A200028B92068006840F001002168086020681B
:103A3000006840F400702168086000BF002084F82E
:103A40004C0000BF38469CE7078C0008DF8B00085D
:103A5000B18B0008054A01681268914204D1044AFA
:103A600004494A6001220A727047000028010024BC
:103A7000DC630024D8830024054A0168126891425F
:103A800005D10449044A5160012203490A72704772
:103A900028010024DC430024D88300240348006864
:103AA00003490978084401490860704778000024F8
:103AB0008000002410B5032000F020F903F0ACF9D9
:103AC00010490968C1F303210F4A515C01F01F013D
:103AD00020FA01F40B48006800F00F001146085C62
:103AE00000F01F0024FA00F008490860084804604C
:103AF0000F2000F00FF808B1012010BD00F09AF877
:103B00000020FAE7184402587212010888000024C5
:103B10008400002470B504461148007808B90120DB
:103B200070BD0F4800784FF47A71B1FBF0F00D4989
:103B30000968B1FBF0F5284604F06CFC08B10120DF
:103B4000EEE7102C07D200222146501E00F098F814
:103B50000548046001E00120E2E70020E0E7000002
:103B600080000024840000247C0000244178154A51
:103B7000116014490831096821F00101114A083225
:103B80001160121F41681160017B0907C27A41EA86
:103B90000261827A41EAC241427B41EA8241827BF0
:103BA00041EA4241C27B41EA0241427A41EA0221B2
:103BB000027A41EA420102781143024A0832116056
:103BC0007047000098ED00E000BF00BF00BFBFF3EA
:103BD0005F8F00BF00BF00BF0548006820F4803041
:103BE00003490860002002497031086070470000F6
:103BF00024ED00E040F001010D4A11600C497039DC
:103C0000096841F480310A4A703A116000BF00BF70
:103C100000BFBFF34F8F00BF00BF00BF00BF00BF9A
:103C200000BFBFF36F8F00BF00BF00BF7047000031
:103C300094ED00E008B500BF0648006840F00200BF
:103C4000044908600846006800F00200009000BFC8
:103C500000BF08BDF44402580146084600280DDBA9
:103C600000BF00BF00F01F0301229A4043099B00E0
:103C700003F1E023C3F8002100BF00BF00BF70477D
:103C80002DE9F05F80460D4616460AF021FA0746F8
:103C900039462A46334601F00700C0F1070ABAF157
:103CA000040F02D94FF0040A01E0C0F1070AD1461F
:103CB00000F1040ABAF1070F02D24FF0000A01E046
:103CC000A0F1030AD4464FF0010A0AFA09FAAAF150
:103CD000010A0AEA020A0AFA0CFA4FF0010B0BFA7F
:103CE0000CFBABF1010B0BEA030B4AEA0B04214678
:103CF00040460AF0F5F9BDE8F09F000000BF00F073
:103D00000702064B19684FF6FF031940044B0B439B
:103D100043EA0221014B196000BF70470CED00E03F
:103D20000000FA0501460A680120C1F8D804002005
:103D300081F8CC04906940F000609061506D024BB6
:103D4000184350650020704703000010704702467A
:103D50001068416200207047F0B5034615461868A8
:103D6000446A21B944EA05401E68B06219E0186847
:103D7000806A04EB1044002208E0186800F58270A5
:103D800050F8220004EB1044501CC2B2481E90426E
:103D9000F3D844EA0547186800F582704E1E40F8D3
:103DA00026700020F0BD10B50446D4F8E00408F0F9
:103DB000C9FC10BD70B504460D4605EBC50304F102
:103DC000140101EB8301CA682946D4F8E00408F025
:103DD000B4FB70BD70B504460D4605EBC50304F594
:103DE000157101EB8301CA682946D4F8E00408F094
:103DF00028FC70BD10B50446D4F8E00408F0A5FC1A
:103E000010BD2DE9F04104460D4605F080008028E4
:103E100008D105F00F0000EBC00104F1140000EB25
:103E2000810607E005F00F0000EBC00104F51570F6
:103E300000EB81063146206809F0E2FE074638466D
:103E4000BDE8F08170B504460E4606F0800080287B
:103E50000AD106F00F0000EBC00104F1140000EBE2
:103E600081050120687009E006F00F0000EBC00139
:103E700004F5157000EB81050020687006F00F0056
:103E8000287000BF94F89404012801D1022070BD6D
:103E9000012084F8940400BF2946206809F03AFA0A
:103EA00000BF002084F8940400BF00BFEFE770B5A6
:103EB00004460E4606F00F002179884201D9012000
:103EC00070BD06F0800080280AD106F00F0000EBDC
:103ED000C00104F1140000EB81050120687009E0C5
:103EE00006F00F0000EBC00104F5157000EB810532
:103EF000002068700020A87006F00F00287000BF36
:103F000094F89404012801D10220D9E7012084F813
:103F1000940400BF2946206809F004FC00BF00207B
:103F200084F8940400BF00BFCAE7024601F00F0006
:103F300000EBC00302F5157000EB83004069704789
:103F40002DE9F04705460E4690461F464FF0000902
:103F500006F0800080280AD106F00F0000EBC001B7
:103F600005F1140000EB81040120607009E006F007
:103F70000F0000EBC00105F5157000EB8104002077
:103F8000607006F00F002070C4F808802771607818
:103F900008B120786083022F01D10020607100BF3A
:103FA00095F89404012802D10220BDE8F087012091
:103FB00085F8940400BF2146286809F0B5F800BFD1
:103FC000002085F8940400BF4846EEE72DE9F04153
:103FD00005460E461746984606F00F0000EBC00156
:103FE00005F5157000EB8104E760C4F8108000202F
:103FF0006061607006F00F002070A879012800D180
:10400000E761AA792146286809F020FC0020BDE874
:10401000F08170B504460D4605F00F002179884205
:1040200001D9012070BD05F0800080280AD105F07B
:104030000F0000EBC00104F1140000EB8106012029
:10404000707007E005EBC50104F5157000EB810603
:10405000002070700120B07005F00F00307000BFBC
:1040600094F89404012801D10220DBE7012084F8B0
:10407000940400BF3146206809F09BFB05F00F0057
:1040800028B9A17904F29C42206809F013FB00BF13
:10409000002084F8940400BF00BFC3E72DE9F0417D
:1040A00005460E461746984606F00F0000EBC00185
:1040B00005F1140000EB8104E760C4F810800020D3
:1040C00060610120607006F00F002070A87901285F
:1040D00000D1E761AA792146286809F0B7FB0020E2
:1040E000BDE8F0812DE9FE4F0446D4F800B05E46ED
:1040F000206809F067FE002874D1206809F0A1FE4D
:1041000008B9BDE8FE8F40F608008059C0F30D20C5
:10411000C4F8D404206809F094FE00F002000228DC
:1041200005D12068406900F00200216848612068DC
:1041300009F087FE00F01000102845D12068806942
:1041400020F0100021688861DBF8209009F00F0052
:1041500000EBC00104F5157000EB810AC9F3434080
:1041600002281AD147F6F07009EA000030B3C9F30B
:104170000A125846DAF80C1009F068FEC9F30A1161
:10418000DAF80C000844CAF80C00C9F30A11DAF88E
:1041900014000844CAF8140010E0C9F3434006288C
:1041A0000CD1082204F29C41584609F04FFEC9F395
:1041B0000A11DAF814000844CAF81400206880696B
:1041C00040F0100021688861206809F03AFE00F490
:1041D0000020B0F5002F7BD10025206809F001FEFA
:1041E000029072E003E3029800F00100002868D01A
:1041F000E9B2206809F018FE804608F0010048B1D5
:10420000012106F5306000EB45108160294620460B
:1042100004F04EFF08F00800082809D1082106F52F
:10422000306000EB451081602946204604F00EFF07
:1042300008F01000102805D1102106F5306000EBC1
:104240004510816008F00200022824D1DBF8140038
:1042500000F08000802807D140F60400805940F427
:10426000806140F60400815105EBC50104F515702D
:1042700000EB810A9AF80300012806D100208AF891
:104280000300E9B2204600F0BDFA022106F53060D5
:1042900000EB4510816008F02000202805D1202186
:1042A00006F5306000EB4510816008F40050B0F571
:1042B000005F06D14FF4005106F5306000EB451069
:1042C00081606D1C029840080290029800288AD1F3
:1042D000206809F0B6FD00F48020B0F5802F7DD174
:1042E000206809F074FD029000259AE0029800F021
:1042F0000100002873D0E9B2206809F07CFD8046F7
:1043000008F00100F0B305F00F0101208840019092
:1043100040F634008159019821EA000040F634014A
:104320008851012106F5106000EB45108160A079ED
:10433000012824D105EBC50104F1140000EB810034
:1043400005EBC502C16804F1140000EB820080682F
:10435000014405EBC50204F1140000EB8200C160CA
:104360006DB905EBC50104F1140000EB8100006993
:1043700028B904F29C420121206809F09BF9E9B2B6
:10438000204600E001E0FFF715FD08F008000828CE
:1043900005D1082106F5106000EB4510816008F09A
:1043A0001000102805D1102106F5106000EB451013
:1043B000816008F04000402805D1402106F51060DA
:1043C00000EB4510816008F0020002281DD129464B
:1043D000584609F0BAFC05EBC50101E025E01CE0F8
:1043E00004F1140000EB810A9AF80300012806D1B9
:1043F00000208AF80300E9B2204600F0FAF9022111
:1044000006F5106000EB4510816008F08000802800
:1044100003D12946204604F0EDFE6D1C02984008A9
:104420000290029800287FF461AF206809F009FD2E
:1044300000F00040B0F1004F1CD140F6040080595C
:1044400020F0010140F60400815194F8CC040128C9
:1044500007D1002084F8CC0400212046FFF776FC29
:1044600002E0204600F0FAFA2068406900F00040BF
:1044700021684861206809F0E4FC00F40060B0F5B0
:10448000006F0ED140F60800805900F0010010B115
:10449000204600F03BFB2068406900F40060216882
:1044A0004861206809F0CDFC00F00060B0F1006FB9
:1044B00019D12068406900F000602168486194F8D3
:1044C000CC0468B9012084F8CC042068406DC0F3A6
:1044D0008300C4F8D00401212046FFF737FC02E036
:1044E000204600F013FB206809F0ABFC00F480507C
:1044F000B0F5805F7ED140F60400805920F00101C4
:1045000040F6040081511021206809F01EFC0027AC
:1045100032E04FF67F3106F5106000EB4710816006
:1045200006F5106000EB4710006820F4001106F556
:10453000106000EB471001604FF67F3106F53060E8
:1045400000EB4710816006F5306000EB4710006813
:1045500020F4001106F5306000EB4710016006F50D
:10456000306000EB4710006840F0006106F53060F5
:1045700000EB471001607F1C2079B842C9D840F693
:104580001C00805940F0011140F61C008151E07B75
:1045900070B1D6F8840840F00B01C6F8841840F6D4
:1045A0004400805940F00B0140F6440081510FE077
:1045B00040F61400805942F22B01084340F61401E2
:1045C0008851081F805940F00B014FF40160815160
:1045D000D6F8000820F4FE60C6F80008A17904F2BD
:1045E0009C42206809F066F82068406900F4805019
:1045F000216800E000E04861206809F022FC00F436
:104600000050B0F5005F17D1206808F0F5FD206874
:1046100009F0C5FBE07102F0B5FB0090E27920687B
:10462000009909F095FC204600F000FA20684069E6
:1046300000F4005021684861206809F002FC00F095
:104640000800082808D1204600F00FFA20684069C9
:1046500000F0080021684861206809F0F2FB00F0D2
:104660008000802818D1DBF8180020F08000CBF8FB
:10467000180001250DE005EBC50104F5157000EBF0
:104680008100C078012803D1E9B22046FFF7B9FBC9
:104690006D1C2079A842EED8206809F0D2FB00F406
:1046A0008010B0F5801F2DD1012522E006F51060A5
:1046B00000EB4510D0F8009005EBC50104F11400A3
:1046C00000EB81000079012812D109F00040B0F11F
:1046D000004F0DD1012105EBC50204F1140000EBE0
:1046E0008200C170E8B240F080012046FFF789FBEC
:1046F0006D1C2079A842D9D82068406900F4801048
:1047000021684861206809F09CFB00F40010B0F5B6
:10471000001F44D1012538E006F5306000EB45105C
:10472000D0F8009005EBC50104F5157000EB810091
:104730000079012828D109F00040B0F1004F23D1C1
:1047400009F4803094F8D41401F0010188421BD19F
:10475000012105EBC50204F5157000EB8200C17064
:10476000DBF8180040F08000CBF81800DBF81400EC
:1047700000F0800040B940F60400805940F4007118
:1047800040F60400815103E06D1C2079A842C3D893
:1047900000BF2068406900F400102168486120686B
:1047A00009F04FFB00F08040B0F1804F08D1204667
:1047B000FFF7F9FA2068406900F0804021684861FD
:1047C000206809F03EFB00F0040004280FD12068A7
:1047D000D0F8049009F00400042802D12046FFF725
:1047E00009FB2068406840EA09002168486000BF72
:1047F00087E470B504460D462946D4F8E00408F075
:1048000013F870BD70B504460D462946D4F8E0048F
:1048100008F02EF870BD38B504460CB9012038BD3B
:1048200094F8950428B9002084F89404204600F0F8
:10483000A1F8032084F89504206808F033FF207C59
:104840008DF8000094E80F0008F0EAFC20B1022087
:1048500084F895040120E2E70021206809F026FB96
:1048600020B1022084F895040120D8E7002531E02A
:10487000012105EBC50204F1140000EB8200417038
:1048800005EBC50104F1140000F8215005EBC5014A
:1048900000EB81004583002105EBC50204F1140003
:1048A00000EB8200017105EBC50204F1140000EB7E
:1048B0008200816005EBC50204F1140000EB820068
:1048C000C16005EBC50204F1140000EB8200016138
:1048D000681CC5B22079A842CADC00252AE0002164
:1048E00005EBC50204F5157000EB8200417005EB85
:1048F000C50104F5157000F82150002105EBC50233
:1049000000EB8200017105EBC50204F5157000EBA8
:104910008200816005EBC50204F5157000EB820092
:10492000C16005EBC50204F5157000EB8200016162
:10493000681CC5B22079A842D1DC207C8DF800002B
:1049400094E80F0008F0BEFD20B1022084F8950421
:10495000012064E700206074012084F89504207B26
:10496000012802D12046FFF7DDF9206808F098FD04
:10497000002054E710B5B8B00446142132A8FBF764
:1049800086FFC02102A8FBF782FF254920688842E4
:1049900044D14FF480210020CDE902104FF44010A3
:1049A000249002A801F0AAF908B1FCF7BAFC00F0C3
:1049B000F7F800BF1B48006840F001001949086083
:1049C0000846006800F00100019000BF00BF4FF4EE
:1049D000C050329002203390002034900220359055
:1049E0000A20369032A91048FEF7A4FB00BF0D48FC
:1049F0000838006840F000600A4908390860084635
:104A0000006800F00060019000BF00BF0022114666
:104A10006520FFF735F96520FFF71EF938B010BDA6
:104A200000000840E04402580000025870B50446F7
:104A30000125E07908B9002506E0E079022801D1D6
:104A4000012501E0FCF76DFC2946D4F8E00407F0ED
:104A5000B8FFD4F8E00407F05FFF70BD10B504465E
:104A6000D4F8E00407F08EFF10BD10B50446D4F86A
:104A7000E00407F092FF10BD70B504460D4600BF7C
:104A800094F89404012801D1022070BD012084F81B
:104A9000940400BF65742946206809F03BFA00BF02
:104AA000002084F8940400BF00BFEEE710B5044670
:104AB00004F29C41D4F8E00407F09AFF10BD70B5F1
:104AC0000446256800BF94F89404012801D102200F
:104AD00070BD012084F8940400BFE86800F0400035
:104AE00030B1607B012803D1A86B40F48030A8630B
:104AF000206809F0FBF8206808F0C0FC00BF002027
:104B000084F8940400BF00BFE2E7000010B504463B
:104B1000D4F8E00407F0C9FF2068D0F8000E40F098
:104B200001002168C1F8000EE07A28B1034800684E
:104B300040F006000149086010BD000010ED00E0E3
:104B400070B5044615480068C0F3800048B91348A2
:104B5000006800F00700A04201D0012070BD0020D5
:104B6000FCE70E48006820F0070020430B4908606E
:104B7000FEF7EAFB054607E0FEF7E6FB401BB0F553
:104B80007A7F01D90120E9E7044808380068C0F3BA
:104B900040300028F0D00020E0E700000C48025828
:104BA0000348006840F080700149086070470000C9
:104BB0000C480258F8B50446FEF7C6FB06460CB989
:104BC0000120F8BD206A402800D000BF94F84100C1
:104BD00038B9204600F046F841F28831204600F00E
:104BE000D9F82068006820F4F851A068401E41EA16
:104BF000002021680860A06C33460022202100902C
:104C0000204604F053FB054635BB2179E06840EAB5
:104C10000160E1690843216A0843216809680F4A75
:104C20001140084321680860208A616941EA004018
:104C3000A169084321684968094A1140084321686D
:104C400048602068006840F001002168086000208A
:104C50006064012084F841002846B2E72FFFFF007E
:104C6000FEF8E0FF10B5B8B00446142132A8FBF7F7
:104C70000EFEC02102A8FBF70AFE414920688842C7
:104C80007CD14FF000710020CDE90210159002A8F0
:104C900001F034F808B1FCF744FB00BF3948006864
:104CA00040F48040374908600846006800F48040BE
:104CB000019000BF00BF00BF32480C30006840F0D8
:104CC000100030490C3108600846006800F0100000
:104CD000019000BF00BF00BF0846006840F002001E
:104CE00008600846006800F00200019000BF00BFA5
:104CF00000BF0846006840F00800086008460068E9
:104D000000F00800019000BF00BF04203290022094
:104D1000339000203490032035900920369032A93A
:104D20001948FEF707FA0420329002203390002041
:104D30003490032035900920369032A91348FEF7AD
:104D4000F9F94FF4605032900220339000203490F3
:104D5000032035900920369032A90D48FEF7EAF974
:104D60004020329002203390002034900320359070
:104D70000A20369032A90548FEF7DCF938B010BD9C
:104D800000500052D4440258001002580004025847
:104D9000000C02588164704710B501F0F3FF05491B
:104DA0000968C1F30211044A515C01F01F01C840B7
:104DB00010BD0000204402587212010870B501466F
:104DC000844D2D6805F00303824D2D68C5F3051051
:104DD000804D2D1D2D6805F001047E4D0C352D688C
:104DE000C5F3CC0515FB04F501EE105AB8EE411AD7
:104DF000F0EE410A00286FD023B1012B4ED0022BD8
:104E00006BD16BE0734D283D2D68C5F340153DB364
:104E1000704D283D2D68C5F3C1066F4D25FA06F289
:104E200001EE102AF8EE411A01EE100AB8EE411A0E
:104E300081EE812A9FED691AC0EE811A654D083511
:104E40002D68C5F3080501EE105AB8EE411A31EE8F
:104E5000811AF7EE001A31EE211A22EE010A1CE047
:104E600001EE100AB8EE411ADFED5D1A81EE812ADB
:104E70009FED5A1AC0EE811A564D08352D68C5F3BC
:104E8000080501EE105AB8EE411A31EE811AF7EE1C
:104E9000001A31EE211A22EE010A5BE001EE100A3F
:104EA000B8EE411ADFED4F1A81EE812A9FED4B1AC1
:104EB000C0EE811A474D08352D68C5F3080501EE8F
:104EC000105AB8EE411A31EE811AF7EE001A31EE9F
:104ED000211A22EE010A3DE077E01DE001EE100A02
:104EE000B8EE411A9FED402AC2EE011A9FED3B1A1F
:104EF00080EE812A374D08352D68C5F3080501EE8F
:104F0000105AB8EE411A32EE011AB7EE002A31EE0D
:104F1000021A21EE810A1DE001EE100AB8EE411AD4
:104F2000DFED2F1A81EE812A9FED2C1AC0EE811A37
:104F3000284D08352D68C5F3080501EE105AB8EE66
:104F4000411A31EE811AF7EE001A31EE211A22EEE3
:104F5000010A00BF00BF1F4D08352D68C5F3462567
:104F600001EE105AB8EE411AF7EE001A31EE211A8E
:104F7000C0EE011ABCEEE11A81ED001A154D08359C
:104F80002D68C5F3064501EE105AB8EE411AF7EE4A
:104F9000001A31EE211AC0EE011ABCEEE11A81EDC1
:104FA000011A0C4D08352D68C5F3066501EE105A3F
:104FB000B8EE411AF7EE001A31EE211AC0EE011ACE
:104FC000BCEEE11A81ED021A03E000250D604D6090
:104FD0008D6070BD284402580090D0030000004648
:104FE0000024744C0024744A20BCBE4B70B50146AA
:104FF000844D2D6805F00303824D2D68C5F30530FF
:10500000804D2D1D2D68C5F300147E4D14352D687F
:10501000C5F3CC0515FB04F501EE105AB8EE411AA4
:10502000F0EE410A00286FD023B1012B4ED0022BA5
:105030006BD16BE0734D283D2D68C5F340153DB332
:10504000704D283D2D68C5F3C1066F4D25FA06F257
:1050500001EE102AF8EE411A01EE100AB8EE411ADC
:1050600081EE812A9FED691AC0EE811A654D1035D7
:105070002D68C5F3080501EE105AB8EE411A31EE5D
:10508000811AF7EE001A31EE211A22EE010A1CE015
:1050900001EE100AB8EE411ADFED5D1A81EE812AA9
:1050A0009FED5A1AC0EE811A564D10352D68C5F382
:1050B000080501EE105AB8EE411A31EE811AF7EEEA
:1050C000001A31EE211A22EE010A5BE001EE100A0D
:1050D000B8EE411ADFED4F1A81EE812A9FED4B1A8F
:1050E000C0EE811A474D10352D68C5F3080501EE55
:1050F000105AB8EE411A31EE811AF7EE001A31EE6D
:10510000211A22EE010A3DE077E01DE001EE100ACF
:10511000B8EE411A9FED402AC2EE011A9FED3B1AEC
:1051200080EE812A374D10352D68C5F3080501EE54
:10513000105AB8EE411A32EE011AB7EE002A31EEDB
:10514000021A21EE810A1DE001EE100AB8EE411AA2
:10515000DFED301A81EE812A9FED2C1AC0EE811A04
:10516000284D10352D68C5F3080501EE105AB8EE2C
:10517000411A31EE811AF7EE001A31EE211A22EEB1
:10518000010A00BF00BF1F4D10352D68C5F346252D
:1051900001EE105AB8EE411AF7EE001A31EE211A5C
:1051A000C0EE011ABCEEE11A81ED001A154D103562
:1051B0002D68C5F3064501EE105AB8EE411AF7EE18
:1051C000001A31EE211AC0EE011ABCEEE11A81ED8F
:1051D000011A0C4D10352D68C5F3066501EE105A05
:1051E000B8EE411AF7EE001A31EE211AC0EE011A9C
:1051F000BCEEE11A81ED021A03E000250D604D605E
:105200008D6070BD284402580090D0030000004615
:105210000024744C0024744A20BCBE4B70B5014677
:10522000844D2D6805F00303824D2D68C5F30550AC
:10523000804D2D1D2D68C5F300247E4D1C352D6835
:10524000C5F3CC0515FB04F501EE105AB8EE411A72
:10525000F0EE410A00286FD023B1012B4ED0022B73
:105260006BD16BE0734D283D2D68C5F340153DB300
:10527000704D283D2D68C5F3C1066F4D25FA06F225
:1052800001EE102AF8EE411A01EE100AB8EE411AAA
:1052900081EE812A9FED691AC0EE811A654D18359D
:1052A0002D68C5F3080501EE105AB8EE411A31EE2B
:1052B000811AF7EE001A31EE211A22EE010A1CE0E3
:1052C00001EE100AB8EE411ADFED5D1A81EE812A77
:1052D0009FED5A1AC0EE811A564D18352D68C5F348
:1052E000080501EE105AB8EE411A31EE811AF7EEB8
:1052F000001A31EE211A22EE010A5BE001EE100ADB
:10530000B8EE411ADFED4F1A81EE812A9FED4B1A5C
:10531000C0EE811A474D18352D68C5F3080501EE1A
:10532000105AB8EE411A31EE811AF7EE001A31EE3A
:10533000211A22EE010A3DE077E01DE001EE100A9D
:10534000B8EE411A9FED402AC2EE011A9FED3B1ABA
:1053500080EE812A374D18352D68C5F3080501EE1A
:10536000105AB8EE411A32EE011AB7EE002A31EEA9
:10537000021A21EE810A1DE001EE100AB8EE411A70
:10538000DFED301A81EE812A9FED2C1AC0EE811AD2
:10539000284D18352D68C5F3080501EE105AB8EEF2
:1053A000411A31EE811AF7EE001A31EE211A22EE7F
:1053B000010A00BF00BF1F4D18352D68C5F34625F3
:1053C00001EE105AB8EE411AF7EE001A31EE211A2A
:1053D000C0EE011ABCEEE11A81ED001A154D183528
:1053E0002D68C5F3064501EE105AB8EE411AF7EEE6
:1053F000001A31EE211AC0EE011ABCEEE11A81ED5D
:10540000011A0C4D18352D68C5F3066501EE105ACA
:10541000B8EE411AF7EE001A31EE211AC0EE011A69
:10542000BCEEE11A81ED021A03E000250D604D602B
:105430008D6070BD284402580090D00300000046E3
:105440000024744C0024744A20BCBE4B2DE9F04368
:1054500089B006460F464FF4807186EA0100384352
:1054600070D1F748006800F00709B9F1050F65D25F
:10547000DFE809F0031221623000F148503800687B
:1054800000F00070B0F1007F04D106A8FFF796FC91
:10549000079C00E0002453E0E9485038006800F021
:1054A0000060B0F1006F04D103A8FFF79FFD039CDB
:1054B00000E0002444E0E2485038006800F000506A
:1054C000B0F1005F04D16846FFF7A8FE009C00E041
:1054D000002435E0DA48001F006800F04055D84845
:1054E0005038006800F00400042809D145B9D448B8
:1054F00050380068C0F3C101D24820FA01F41AE024
:10550000CF485038006800F48070B0F5807F04D137
:10551000B5F1805F01D1CC4C0DE0C948503800682E
:1055200000F40030B0F5003F04D1B5F1005F01D1C7
:10553000C64C00E0002403E0C54C01E0002400BF9D
:10554000D4E3FFE74FF4007186EA010038437AD1D3
:10555000BB48006800F4E079B9F1800F2CD006DC7C
:10556000B9F1000F0AD0B9F1400F69D115E0B9F1D6
:10557000C00F63D0B9F5807F62D12CE0B0485038BD
:10558000006800F00070B0F1007F04D106A8FFF7BA
:1055900015FC079C00E0002454E0A948503800683E
:1055A00000F00060B0F1006F04D103A8FFF71EFD0A
:1055B000039C00E0002445E0A1485038006800F05A
:1055C0000050B0F1005F04D16846FFF727FE009C51
:1055D00000E0002436E09A48001F006800F04055C3
:1055E00097485038006800F00400042809D145B9F4
:1055F000934850380068C0F3C101924820FA01F482
:105600001BE08F485038006800F48070B0F5807F50
:1056100004D1B5F1805F01D18B4C0EE08848503841
:10562000006800F40030B0F5003F05D1B5F1005F2F
:1056300002D1864C01E006E0002403E0844C01E046
:10564000002400BF52E34FF4806186EA0100384332
:105650007BD17B480830006800F46009B9F5800F01
:105660002CD006DCB9F1000F0AD0B9F5001F69D1C2
:1056700015E0B9F5C00F63D0B9F5000F62D12CE089
:105680006F485038006800F00070B0F1007F04D11E
:1056900006A8FFF793FB079C00E0002454E068484D
:1056A0005038006800F00060B0F1006F04D103A82A
:1056B000FFF79CFC039C00E0002445E06048503864
:1056C000006800F00050B0F1005F04D16846FFF7B9
:1056D000A5FD009C00E0002436E05948001F00684A
:1056E00000F0405556485038006800F00400042887
:1056F00009D145B9524850380068C0F3C10151483A
:1057000020FA01F41BE04E485038006800F4807025
:10571000B0F5807F04D1B5F1805F01D14A4C0EE035
:1057200047485038006800F40030B0F5003F05D11C
:10573000B5F1005F02D1454C01E006E0002403E032
:10574000434C01E0002400BFD0E24FF4006186EA40
:105750000100384373D13A480830006800F0E0692E
:10576000B9F1007F2CD006DCB9F1000F0AD0B9F1F5
:10577000807F75D115E0B9F1407F6FD0B9F1806FAE
:105780006ED12CE02E485038006800F00070B0F167
:10579000007F04D106A8FFF711FB079C00E000245E
:1057A00060E027485038006800F00060B0F1006FFA
:1057B00004D103A8FFF71AFC039C00E0002451E089
:1057C0001F485038006800F00050B0F1005F04D16D
:1057D0006846FFF723FD009C00E0002442E01848E3
:1057E000001F006800F0405515485038006800F070
:1057F0000400042809D145B9114850380068C0F3A5
:10580000C101104820FA01F427E00D485038006823
:1058100000F48070B0F5807F04D1B5F1805F01D1D4
:10582000094C1AE006485038006800F40030B0F522
:10583000003F11D1B5F1005F0ED1044C0DE012E034
:10584000504402580090D00300093D0040787D018B
:105850000080BB0004E001E0002403E0F74C01E01D
:10586000002400BF42E24FF4805186EA0100384331
:105870007AD1F348006800F4E048B8F5005F2CD016
:1058800006DCB8F1000F0AD0B8F5805F69D115E0E9
:10589000B8F5405F63D0B8F5804F62D12CE0E8489E
:1058A0005038006800F00070B0F1007F04D106A805
:1058B000FFF784FA079C00E0002454E0E0485038E9
:1058C000006800F00060B0F1006F04D103A8FFF79A
:1058D0008DFB039C00E0002445E0D9485038006867
:1058E00000F00050B0F1005F04D16846FFF796FC6D
:1058F000009C00E0002436E0D148001F006800F062
:105900004055CF485038006800F00400042809D101
:1059100045B9CB4850380068C0F3C101C94820FAE6
:1059200001F41BE0C6485038006800F48070B0F500
:10593000807F04D1B5F1805F01D1C34C0EE0C04837
:105940005038006800F40030B0F5003F05D1B5F1E3
:10595000005F02D1BD4C01E006E0002403E0B74C3B
:1059600001E0002400BFC1E14FF4005186EA0100CC
:10597000384367D1B248006800F4E028B8F5403FEA
:1059800033D009DCB8F1000F0DD0B8F5803F0ED050
:10599000B8F5003F53D119E0B8F5802F37D0B8F5EE
:1059A000A02F4CD13FE001F013FA044649E0A4488F
:1059B0005038006800F00060B0F1006F04D103A817
:1059C000FFF714FB049C00E000243AE09C485038A8
:1059D000006800F00050B0F1005F04D16846FFF7A6
:1059E0001DFC019C00E000242BE095485038006825
:1059F00000F00400042808D1914850380068C0F332
:105A0000C101904820FA01F400E0002419E08C481C
:105A10005038006800F48070B0F5807F01D18A4C66
:105A200000E000240DE086485038006800F40030A3
:105A3000B0F5003F01D1854C00E0002401E00024D6
:105A400000BF53E14FF4002186EA0100384361D1E1
:105A50007B480830006800F44038B8F1000F06D0E9
:105A6000B8F5803F12D0B8F5003F50D11DE0744822
:105A70005038006800F00060B0F1006F04D103A856
:105A8000FFF7B4FA039C00E0002442E06C48503871
:105A9000006800F00050B0F1005F04D16846FFF7E5
:105AA000BDFB029C00E0002433E06548001F006855
:105AB00000F0405562485038006800F004000428A7
:105AC00009D145B95E4850380068C0F3C1015D484E
:105AD00020FA01F41AE05A485038006800F4807047
