:020000040800F2
:1000000030510024E503000857770008E772000824
:10001000497700083B1F000805AC000800000000FD
:10002000000000000000000000000000C57B000888
:1000300031220008000000002D790008317C000802
:10004000FF030008FF030008FF030008FF03000888
:10005000FF030008FF030008FF030008FF03000878
:10006000FF030008FF030008FF030008C51F000886
:10007000D11F0008FF030008FF030008FF0300086A
:10008000FF030008FF030008FF030008FF03000848
:10009000FF030008FF030008FF030008FF03000838
:1000A000FF030008FF030008FF030008FF03000828
:1000B000FF030008FF030008FF030008FF03000818
:1000C000FF030008FF030008FF030008FF03000808
:1000D000FF030008BD8C0008FF030008FF030008B1
:1000E000FF030008FF03000800000000FF030008F2
:1000F000FF030008FF030008FF030008FF030008D8
:10010000FF030008FF030008FF030008FF030008C7
:10011000FF030008FF030008FF030008FF030008B7
:10012000FF030008FF030008FF030008FF030008A7
:10013000FF030008FF030008FF030008FF03000897
:1001400000000000000000000000000000000000AF
:10015000FF030008FF030008FF030008FF03000877
:10016000FF030008FF030008FF030008FF03000867
:10017000FF030008FF030008FF0300080000000061
:10018000FF030008FF030008FF030008FF03000847
:10019000FF030008FF030008FF030008FF03000837
:1001A000FF030008FF030008FF030008FF03000827
:1001B000FF030008FF030008FF030008FF03000817
:1001C000FF030008FF030008FF030008FF03000807
:1001D000FF03000859770008FF030008FF03000829
:1001E000FF030008FF030008FF030008FF030008E7
:1001F000FF030008FF030008FF030008FF030008D7
:10020000FF030008FF030008FF030008FF030008C6
:10021000FF030008FF030008FF030008FF030008B6
:10022000FF030008FF030008FF03000800000000B0
:10023000FF030008FF03000800000000FF030008A0
:10024000FF030008FF030008FF030008FF03000886
:10025000FF030008FF030008FF030008FF03000876
:10026000FF030008FF030008FF030008FF03000866
:10027000FF030008FF030008FF0300080000000060
:10028000FF030008FF030008FF0300080000000050
:1002900000000000FF03000800F002F800F092F8F0
:1002A0000AA090E8000C82448344AAF10107DA45D1
:1002B00001D100F087F8AFF2090EBAE80F0013F091
:1002C000010F18BFFB1A43F00103184768B4000080
:1002D00088B40000103A24BF78C878C1FAD8520711
:1002E00024BF30C830C144BF04680C6070470000B0
:1002F0000023002400250026103A28BF78C1FBD82F
:10030000520728BF30C148BF0B6070476E2900F00C
:100310009382702900F0D58366290AF066856529E5
:100320000AF0638567290AF0608561290AF05F8514
:1003300003681B0A28BF41F08001692900F0408250
:10034000642900F03D82752900F03A826F2900F09F
:100350006283782900F0A183E92900F0FD82E42975
:1003600000F0FA82F52900F0F782EF2900F05F83B0
:10037000F82900F0A0830368DB0928BF41F0800161
:10038000632901F0A380732901F0A880E32901F01B
:10039000B380F32901F0B880002070471FB50AF040
:1003A0001FFD01F007F90400002000210AF002FD02
:1003B000401C6060002000210AF0E6FCE0601FBDE8
:1003C00010B510BD01F0C8F81146FFF7E7FF0AF0BD
:1003D0008DFC01F0A5F903B4FFF7F2FF03BC01F0B7
:1003E000DDF900000948804709480047FEE7FEE7BD
:1003F000FEE7FEE7FEE7FEE7FEE7FEE7FEE7FEE7D5
:1004000004480549054A064B70470000117D000865
:10041000990200083045002430510024304900245E
:100420003049002453EA020C00F069802DE9F04BBA
:100430004FF00006002B1FBFB3FA83F503FA05F453
:1004400024FA05F65E4012BF1643B2FA82F502FAAC
:1004500005F4C5F120051EBF22FA05FC44EA0C0490
:10046000203556EA044C4FEA144418BF641C4FF080
:1004700000084FF00009904271EB030C39D30029BA
:1004800019BFB1FA81F701FA07F6B0FA80F700FA5E
:1004900007F6C7F120071EBF20FA07FC46EA0C0644
:1004A0002037B6FBF4FCA7EB0507103F07F01F0B46
:1004B000CBF120060CFA0BFB2CFA06F644BFB34630
:1004C0000026202FA4BF5E464FF0000B5BEA060C0F
:1004D00008BF4FF0010B19EB0B09ABFB027C48EB9B
:1004E0000608C01B06FB02CC0BFB03CC71EB0C0116
:1004F000C1E70B46024641464846BDE8F08B13B5BE
:100500004FF000004FF00001AFF30080BDE81C4049
:10051000704700001CB50C46064B7B4469460090B2
:10052000204600F0A2F904460020694600F0B0F928
:1005300020461CBD7303000010B5431C02E010F8F8
:10054000011B71B18107FAD14FF0013202C88C1A38
:100550008C4314EAC211F9D0C01A0A0603D0C01E97
:1005600010BDC01A10BD0A0401D0801E10BD0902C2
:10057000FCD0401E10BD032A40F2308010F0030C66
:1005800000F0158011F8013BBCF1020F624498BFE6
:1005900011F801CB00F8013B38BF11F8013BA2F183
:1005A000040298BF00F801CB38BF00F8013B11F0FE
:1005B000030300F02580083AC0F0088051F8043B9E
:1005C000083A51F804CBA0E80810F5E7121D5CBF0B
:1005D00051F8043B40F8043BAFF30080D20724BF3E
:1005E00011F8013B11F801CB48BF11F8012B24BFD2
:1005F00000F8013B00F801CB48BF00F8012B704721
:1006000010B5203AC0F00B80B1E81850203AA0E8AD
:100610001850B1E81850A0E81850BFF4F5AF5FEAE1
:10062000027C24BFB1E81850A0E8185044BF18C994
:1006300018C0BDE810405FEA827C24BF51F8043B3B
:1006400040F8043B08BF7047D20728BF31F8023B8F
:1006500048BF11F8012B28BF20F8023B48BF00F823
:10066000012B70474FF000020429C0F0128010F0F7
:10067000030C00F01B80CCF1040CBCF1020F18BF7E
:1006800000F8012BA8BF20F8022BA1EB0C0100F011
:100690000DB85FEAC17C24BF00F8012B00F8012BE4
:1006A00048BF00F8012B70474FF0000200B5134619
:1006B00094469646203922BFA0E80C50A0E80C5082
:1006C000B1F12001BFF4F7AF090728BFA0E80C5033
:1006D00048BF0CC05DF804EB890028BF40F8042B2C
:1006E00008BF704748BF20F8022B11F0804F18BF99
:1006F00000F8012B704770477047704770B504468B
:1007000085690068C10601D5302600E02026C007B3
:1007100007D070BDD4E9012130469047206A401CC3
:1007200020626D1EF6D570BD70B5044685690078EF
:10073000C00707D170BDD4E9012120209047206A6D
:10074000401C20626D1EF6D570BD09684A0501D5B2
:1007500040B27047C905FCD500B2704709684A0528
:1007600001D5C0B27047C905FCD580B2704770B5DD
:100770000C460546012A05D02878800600D5EA698E
:10078000002302E0012305E05B1C934202D2E05CFF
:100790000028F9D1A869E618C01AA861286A184487
:1007A00028622846FFF7AAFF04E0D5E9012114F8E2
:1007B000010B9047B442F8D32846FFF7B5FF70BD50
:1007C0002DE9F0410646002410687529314616A52A
:1007D00010D0FFF7BAFF002802DA404213A507E065
:1007E00031688A0701D512A502E0490704D511A591
:1007F000012401E0FFF7B2FF00210A2206F12407DD
:1008000009E0B0FBF2FCB0FBF2F302FB1C0030305D
:1008100078541846491C0028F3D123462A4630460E
:10082000BDE8F04100F061BA000000002D000000BA
:100830002B0000002000000011680268006A5305C8
:1008400001D508700AE0D30501D5088006E013063B
:1008500003D5C217C1E9000200E00860012070471B
:1008600001694A1C02610878704700B58FB0CDE974
:1008700001310021059105497944CDE90310114664
:10088000684600F029F90FB000BD0000E5FFFFFF4A
:100890000A6802F8010B0A60704700002DE9FF5F4B
:1008A00015468A460446DFF8AC80F8440027D8E9AC
:1008B00000103E46CDE9001010E03AF816106A46E6
:1008C00002A800F025FE411C07D02178890603D537
:1008D000E269391891420DD80744761C20788006C9
:1008E00002D5E069B84205DDAE42E6DB3AF8160013
:1008F0000028E2D1A069C01BA0612046FFF7FEFEE0
:10090000D8E90010CDE90010002017E03AF81810DF
:100910006A4602A800F0FCFDB0F1FF3F81460BD013
:1009200000250DF1080B05E0D4E901211BF80500B5
:1009300090476D1C4D45F7D308F10100B042804649
:10094000E4DB206A384420622046FFF7EDFEBDE874
:10095000FF9F00008AAD00002DE9F0418046D21DC6
:1009600022F007020025D2E90002F52915A614D0CD
:10097000011E72F1000106DA0023D0EB030063EBE5
:10098000020211A608E0D8F800108B0701D50FA6C7
:1009900002E0490701D50EA601251146002408F101
:1009A000240704E000F05CF930323A55641C50EA48
:1009B0000102F7D12B46324621464046BDE8F041C0
:1009C00000F093B9000000002D0000002B00000093
:1009D0002000000030B4002100F1240408E002F0FF
:1009E0000705D208303542EA4372DB086554491CDA
:1009F00052EA0305F3D10468002310A2250707D5A6
:100A0000A40600D421B1C46901230DA2641EC461EF
:100A100030BC00F06AB910B5044621461068FFF7F3
:100A20009DFE02462046BDE810400023D2E7D21DBD
:100A300022F00701D1E90023CCE70000000000000C
:100A400030000000F0B40D460188090502D5214CA4
:100A50007C4402E01F4C7C440E34002100F124064B
:100A600008E002F00F071209E75D42EA03721B0972
:100A70007754491C52EA0307F3D102780023120786
:100A800004D5702D06D009B1022311342246F0BCE2
:100A900000F02BB901231034F8E770B504460D4679
:100AA00021461068FFF75AFE024629462046BDE857
:100AB00070400023C6E7D21D22F00703D3E90023CC
:100AC000C0E70368126843F0200303600823C36192
:100AD0000023B7E7ECAB00002DE9F05F8946044640
:100AE0004FF0000ADFF874B1FB44C0F820A02046A4
:100AF000E1688847002874D0252806D0D4E9012170
:100B00009047206A401C2062F1E700265F4620469D
:100B1000E16888472028054607DB312D05D2781982
:100B200010F8200C08B10643F1E7B00701D526F014
:100B30000406C4F81CA00027C4F818A02A2D09D068
:100B400028460AF088F838B304EB8708303DC8F827
:100B5000185019E059F8041B204604EB87029161F4
:100B6000E1688847012F054618D1E069002820DA9E
:100B700026F020061DE0D8F8180000EB800005EBF9
:100B800040003038C8F818002046E168884705461C
:100B90000AF061F80028EED1012F0AD02E2D08D1DD
:100BA0002046E16888477F1C0546022F46F0200654
:100BB000C4DBA069002803DA404246F00106A061C8
:100BC000F00701D026F010066C2D0BD0682D09D04F
:100BD0004C2D39D06A2D35D0742D35D07A2D33D0A7
:100BE00016E038E0E1682F4620468847B8420546BF
:100BF00009D16C2F26D04FF48060E168064320466F
:100C00008847054604E06C2F1AD04FF480700643E5
:100C10000DB3A5F14100192802D8203546F400662D
:100C20004A462946204626604E46FFF76FFB80B1B4
:100C300001280BD0F61D26F0070000F1080956E741
:100C40004020E4E78020D8E70020D6E706F1040939
:100C50004DE7284652E7206ABDE8F09F7CAB0000D4
:100C600030B5B0F10A024FEA900E71F100034EEA7E
:100C7000817EB0EB0E0061EB91014FEA101E4EEA4F
:100C8000017E10EB0E0041EB11114FEA102E4EEADF
:100C9000016E10EB0E0041EB11214FEA104E4EEAAF
:100CA000014E10EB0E0041EB1141401841F10001E3
:100CB0004FEAD00040EA41704FEAD10110EB8005C5
:100CC0004FEA810444EA907444EB01046D1944EB4B
:100CD0000404521BA3414FF0000348BF0A3200D561
:100CE00030BD401C41F1000130BD2DE9F0470D46FB
:100CF00099469246044600F124080168880604D506
:100D0000E06921F01001216000E00120A84201DD2E
:100D1000471B00E00027A1697A1902EB0900081AB5
:100D2000A0612078C00602D42046FFF7E7FC002629
:100D300008E0D4E901211AF806009047206A401C17
:100D4000761C20624E45F4DB2078C0060AD520468A
:100D5000FFF7D4FC06E0D4E9012130209047206A57
:100D6000401C2062381EA7F10107F4DC07E0D4E93B
:100D7000012118F805009047206A401C2062281EB7
:100D8000A5F10105F3DC2046FFF7CEFC2078000634
:100D900002D50220BDE8F0870120FBE770472DE96E
:100DA000FF4F0C461E464FF0FF378BB0D2E90001D3
:100DB000DDF860800A908A46C1F30A5505B93D46C0
:100DC000002108464FF00000BAF1000F00F4400087
:100DD00005DA00EB80004FF4400101EA50004FEAD1
:100DE0009059B9F1010F00DDB9460A9850EA4A005E
:100DF0000ED044F61050A5F2FF3545432F14B8F13C
:100E0000000F1ED07542291E1EDDC9F100021CE034
:100E1000B8F1010F4FF0000001D0302103E0F243A0
:100E200005E02154401CB042FBDB3046002200218B
:100E300021540B99C1F80880C1E900200FB0BDE82A
:100E4000F08FBD1B6D1CDEE74A4600DA694206A83A
:100E500000F0F4FB06AB93E8070003AB83E8070060
:100E600050460A9900F0A1FC8DE80700A0F500505B
:100E70001F3800900398002D0ADD42F21F014A46F8
:100E80000844002303A90390684600F00AFF09E024
:100E9000A0F500504A461F38002303A90390684676
:100EA00000F014FF8DE807000004000C03D04FF0A1
:100EB000FF30410800E01046B8F1000F03D00022D7
:100EC000009215461EE0751E05D4FFF7C9FE3032AC
:100ED00062556D1EF9D5B3460122084302D00022A7
:100EE0007F1C04E02078302801D100227F1E002AD8
:100EF000099784D01DE0112D07DAFFF7B1FE3032DB
:100F000062556D1C50EA0102F5D1084302D00098E9
:100F1000C8B10EE00021681E05E0235C625C6354EA
:100F20002254401E491C8142F7DBAB46A81B401EE1
:100F30000990002004F80B000B98099AC0F808806B
:100F4000C0E9002B7AE711264FF0000857E72DE99A
:100F5000F04F88460446D21D22F0070191B0D1E936
:100F60000001CDE90A0109F04EFE02460B98C00FC0
:100F700001D02D2007E02068810701D52B2002E059
:100F8000202101EAC000032A099001D0072A05DBCD
:100F900003464146204600F011FB0BE12078800615
:100FA00001D5E06900E00620B8F1650F814606D062
:100FB000B8F1660F18D0B8F1670F70D131E000209A
:100FC000B9F1110F009001DB112301E009F10103D8
:100FD0000AAA01A90CA8FFF7E2FEDDE90C700026C1
:100FE00009F10105834647E001204B4600904FF090
:100FF00000470AAA01A90CA8FFF7D1FEDDE90DB050
:101000000C995D46002610B909F101000D18B9EBE5
:10101000050003D4C0F1FF3609F10105A5EB090075
:101020002BE0B9F1010F01DA4FF001090020B9F10D
:10103000110F0090484601DD112300E003460AAA83
:1010400001A90CA8FFF7ABFEDDE90C704D460026A8
:101050008346207800070AD4AB4500DA5D4601A834
:10106000012D04DD411911F8011C302907D04F452D
:1010700002DA17F1040F04DA012082460FE06D1E38
:10108000EEE7002F02DCED1B3E4403E0781CA84293
:1010900000DD7D1CB81B00F1010A4FF000472078ED
:1010A000000703D4AA4501DB4FF0FF3A0021B7F156
:1010B000004F0DF143088DF8431024D002202B235C
:1010C000002F01DA7F422D230A21021EA0F1010028
:1010D00000DC5FB197FBF1FC97FBF1F201FB1C7C9C
:1010E00017460CF1300C08F801CDEEE7A8F101002D
:1010F00003702188090501D5452100E06521A0F193
:10110000010800F8011C09980FA9A1EB0807FF1DB1
:1011100000B10120411901EBEA70A1693844081AB5
:10112000401EA0612078C00602D42046FFF7E6FAF0
:10113000099828B1D4E901219047206A401C206217
:101140002078C00622D52046FFF7D8FA1EE0002EF0
:1011500004DBB34502DD01A8805D00E03020D4E966
:1011600001219047206A401C2062761CAAF10100F0
:101170005FEA000A0AD100F01DFAC0680168405C0D
:10118000D4E901219047206A401C2062281EA5F165
:101190000105DCDC07E0D4E9012118F8010B9047D8
:1011A000206A401C2062381EA7F10107F3DC2046AC
:1011B000FFF7BAFA032011B041E600002DE9F04F25
:1011C00004460D46D21D22F0070089B0D0E90097F1
:1011D0004846394609F017FD0246F80F01D02D2385
:1011E00007E02068810701D52B2302E0202101EAD6
:1011F000C0038DF820300BB1012000E00020032A4D
:10120000824601D0072A04DB2946204600F0D6F9A1
:101210003FE12078800601D40D2500E0E569C7F3A1
:101220000A560D2D49DA00214FEA175B08464FF0A8
:101230000000002F00F4400007DA00EB80004FF4BC
:10124000400100EBD07001EA60008115012901DD49
:101250004FF0FF3100224FEA850CBCF1180F06D386
:101260001346ACF118004FF08052C24003E04FF437
:10127000801323FA0CF30CF10C0CBCF1200F04D3F7
:10128000ACF1200C09FA0CF001E007FA0CF000298F
:101290004FF0004801DD18B90FE00ED140450CD3E6
:1012A00019EB02095F4121B9404502D19F4329EA68
:1012B0000209BBEB175F00D0761C2088000502D521
:1012C0007B48784402E07A487844193808AA3023E9
:1012D00002F80A30037C0AF10101002E0AF1020A29
:1012E00053546A4602DC4FF0300101E04FF0310107
:1012F0004FF001088DF8001002D0A6F2FF3603E08F
:1013000059EA470100D06B4E002D02DC2178090715
:1013100004D54FF002082E218DF80110C44600219B
:101320000BE0C7F303433F01C35C491C6D1E02F889
:101330000830052908F1010801DA002DF1DC00214F
:101340000CE000EB1973491C1B786D1E082902F88C
:1013500008304FEA091908F1010801DA002DF0DC24
:1013600021688B0602D516E0A8F10108E04505DDED
:1013700002EB080313F8013C302BF5D0B8F1000F55
:1013800009DD02EB080313F8013C2E2B03D10907FA
:1013900001D4A8F10108002D05DD3E2102F8081056
:1013A0006D1E08F10108407C002E02F8080008F1CB
:1013B000010804DA2D20764202F8080002E02B2012
:1013C00002F808000A214FF47A70864208F10108F9
:1013D0000BDB96FBF0F3303302F8083096FBF0F3AA
:1013E00008F1010800FB136601E0642E0CDB6420A9
:1013F00096FBF0F3303302F8083096FBF0F308F177
:10140000010800FB136601E00A2E06DB96FBF1F0F3
:10141000303002F8080008F1010896FBF1F001FBFA
:101420001060303002F80800A16908F1010808EBEB
:10143000050202EB0A00081AA0612078C00602D457
:101440002046FFF75BF9216A08AE01EB0A00206233
:1014500004E0D4E9012116F8010B9047BAF1010A22
:10146000F7D22078C00602D52046FFF747F96E462E
:1014700009E016F8010B3E280FD0D4E9012190476E
:10148000206A401C2062B8F10108F2D22046FFF722
:101490004BF909B00320BDE8F08F206A2844206290
:1014A00003E0D4E90121302090476D1EEBD3F8E72B
:1014B000C6A3000002FCFFFF10B5436913B1AFF3F0
:1014C000008001E0FFF753F9012010BD127800F110
:1014D00024010A7000224A700122EDE711684FF0E2
:1014E000FF32E9E710B5436913B1AFF3008001E0C3
:1014F000FFF7D4F9012010BD128800F12401828485
:101500000022C2840122EDE711684FF0FF32E9E7C3
:1015100070B516460C46054600F044F8036893F88B
:101520000101012806D0FF2C0FD8185D68B10120F9
:101530002C7070BDD3F807013246214603F2071321
:1015400003442846BDE8704018474FF0FF3070BD97
:1015500000487047CC4400247546FFF7F9FFAE46BB
:1015600005006946534620F00700854618B020B5AF
:10157000FEF746FFBDE820404FF000064FF00007A1
:101580004FF000084FF0000B21F00701AC46ACE82B
:10159000C009ACE8C009ACE8C009ACE8C0098D4698
:1015A0007047000010B500F005F8001D10BD00BF29
:1015B0000598000000487047EC4400242DE9F041F4
:1015C0001F46044603260168072A01F4006004DB75
:1015D00008B116A505E016A503E008B115A500E0C1
:1015E00015A521F010002060A069C01EA0610FB1F8
:1015F000401EA0612046FFF781F84FB1D4E90121D8
:1016000038469047206A401C2062C01C206206E0D9
:10161000206AFAE7D4E9012115F8010B9047761EFC
:10162000F8D22046FFF780F8BDE8F0814E414E0029
:101630006E616E00494E4600696E66002DE9F04706
:10164000814616468AB0354878440DC88DE80D00AD
:1016500032487844801C03AC0DC884E80D0041F684
:101660009B300844372190FBF1F290FBF1F5A5F196
:10167000800501FB12041B3C02D56442012000E0FE
:101680000020DFF898A080460027FA44AAF1BE0A9D
:101690000EE0E0070AD03246684607EB4701012317
:1016A0000AEB810100F012FB8DE8070064107F1C3B
:1016B000002CEED1194F7F44AE3F19E0E80715D05A
:1016C00007EB04100DF1180A90E80E008AE80E00EE
:1016D000C068F04201D1981908903246012306A94A
:1016E00003A800F0F3FA03AB83E807006D10641C55
:1016F000002DE3D14FF0010332466946B8F1000FE7
:1017000003A802D000F0CDFA01E000F0DFFAC9E949
:101710000001C9F808200AB0BDE8F087D0A0000099
:1017200010B50446AFF300802046BDE81040FEF738
:1017300052BE00004FF0013C50F8042B51F8043B1E
:101740009A4215D1A2EB0C03934313EACC130BD1AD
:1017500050F8042B51F8043B9A4209D1A2EB0C0338
:10176000934313EACC13E7D04FF00000704700BF5B
:10177000D01A01BAB1FA81F101F0180122FA01F090
:10178000CB40C1F12001DBB2C0B2C01A2CFA01F388
:10179000D11A914311EAC311E6D1704701491820CB
:1017A000ABBEFEE72600020070475FEA400C08BFB0
:1017B00091F0000F4FEA8C234FEAC12243EA5151C6
:1017C0004FEA1C5018BF00F5F0404FEA300018BF38
:1017D00041F000415FEA6C5C00F02980BCF1FF3F02
:1017E00008BF40F080407047130C06BF12044FF052
:1017F000100C4FF0000C130E04BF12020CF1080C79
:10180000130F04BF12010CF1040C930F04BF9200DC
:101810000CF1020CD30F04BF52000CF1010C114665
:101820004FF00002A0F11F00A0EB0C00704711F078
:10183000004F08BF704731F000413FF4D5AF0B0CAB
:1018400006BF09044FF0100C4FF0000C0B0E04BF44
:1018500009020CF1080C0B0F04BF09010CF1040C78
:101860008B0F04BF89000CF1020CCB0F04BF4900A1
:101870000CF1010CCCF12003A0EB0C0022FA03F3D5
:1018800002FA0CF241EA030100F10100704720F076
:101890007F4C80EA030023F07F47ACEB070303F59E
:1018A0007C5300F0004003F1FF032DE980494FEA2B
:1018B000154B09B44FEA144325EA0B4E24EA0348BA
:1018C0000FF2042606EB132749083E785FEA32023E
:1018D00003FB0667C7F5000707FB06F64FEA543718
:1018E0004FEAD64606F1020607FB066CCCF1005C17
:1018F0004FEA1C472CEA074C07FB06F40CFB06F5E5
:1019000004EB15464FEA961634BF00204FF0004016
:101910004FEAD13706FB07FC4FEA1C4C0CFB0BF7D8
:10192000D21B03FB0CF761EB07010CFB0EF7B0EBCE
:10193000074072EB17420CFB08F734BFA2EB0742DB
:10194000B2EB074261EB17414FEA0C444FEA9107B3
:1019500006FB07FC4FEA1C4C0CFB0BF7B0EBC74037
:1019600072EB573203FB0CF734BFA2EBC742B2EB6A
:10197000C74261EB57310CFB0EF7B0EBC70072EBBF
:1019800057720CFB08F734BFA2EBC702B2EBC702D9
:1019900061EB5771039F4FEA816141EA921104EBB9
:1019A000CC044FEAD1374FEA826206FB07FC42EAD9
:1019B00090124FEA80604FEA1C4C0CFB0BF7D21BD5
:1019C00003FB0CF761EB07010CFB0EF7B0EB0740D4
:1019D00072EB17420CFB08F734BFA2EB0742B2EBE5
:1019E000074261EB17414FEA8C554FEA910704EB30
:1019F0009C2406FB07FC4FEA1C4C0CFB0BF7B0EBDE
:101A0000C74072EB573203FB0CF734BFA2EBC7425F
:101A1000B2EBC74261EB57310CFB0EF7B0EBC700DE
:101A200072EB57720CFB08F734BFA2EBC702B2EBA4
:101A3000C70261EB577115EB4C254FEA816141EA12
:101A400092114FEA82624FEAD13742EA901206FBC6
:101A500007FC44F100044FEA80604FEA1C4C0CFB89
:101A60000BF7D21B03FB0CF761EB07010CFB0EF726
:101A7000B0EB074072EB17420CFB08F734BFA2EB48
:101A80000742B2EB074261EB174115EB1C154FEA19
:101A9000813141EA92414FEA823242EA90424FEA72
:101AA00080304FEA0C7644F1000448EA03434EEAE2
:101AB0000B484FF0000EB2EB080C71EB030724BF8C
:101AC000624639464EEB0E0E4FF0000B00185241A5
:101AD00049414BEB0B0BB2EB080C71EB03077BF1AD
:101AE000000B24BF624639464EEB0E0E4FF0000B42
:101AF0000018524149414BEB0B0BB2EB080C71EB58
:101B000003077BF1000B24BF624639464EEB0E0EF5
:101B100051EA020718BF46F0010616EB0E7655F1A2
:101B2000000254F1000103D5BDE88901BDE8008839
:101B3000BDE88901BDE80048B619524141EB0101F9
:101B4000A3F10103704780807F7E7D7C7B7A79786A
:101B5000777676757473727171706F6E6E6D6C6C72
:101B60006B6A6A6968686766666564646363626114
:101B70006160605F5F5E5E5D5D5C5C5B5B5A5A5995
:101B80005958585757565655555554545353525201
:101B90005251515050504F4F4F4E4E4D4D4D4C4C59
:101BA0004C4B4B4B4A4A4A494949484848474747A2
:101BB00047464646454545444444444343434342DF
:101BC000424242414141002B9C4630D477002BD009
:101BD0001CB54FEA370703B44FF010004FF0100167
:101BE000BAF1000F06D0BCF1000FDCBF40F00800D6
:101BF00040F008014FF000000FBCBDE810400BF1B1
:101C0000010BBBF1010F08BF5FEA170722BF12F1FA
:101C1000010211F101014FF0004143F1000300F016
:101C2000004043EA00007047F9D35708D0E746EA7E
:101C3000064613F1400F4FEA16461FDD13F1200F41
:101C4000DFBF16430A46002120335B42BED0C3F1FA
:101C5000200746EA064602FA07F74FEA164646EA22
:101C60000706C3F1200722FA03F201FA07F721FA67
:101C700003F14FF0000342EA0702A7E746EA020633
:101C800046EA06464FEA164646EA0106BCBF46EA61
:101C90000646360C4FF000034FF000024FF00001F3
:101CA00094E72DE9804C9A46934670B491E8380049
:101CB00007C831EA400C48BF34EA430C03D5FFF7AC
:101CC000E6FDFFF780FFF0BCBDE8008C2DE9804CFD
:101CD0009A46934670B491E8380007C810F0804FD8
:101CE00008BF13F0804F03D100F005F8FFF76BFF3A
:101CF000F0BCBDE8008C20F07F4780EA030023F0B1
:101D00007F4C07EB0C03A3F57C5300F00040A3F1DC
:101D1000FE0392F0000F00F0B38095F0000F00F08A
:101D200077802DE901494FEA11404FEA144621EA34
:101D3000004800FB06FC24EA064708FB06F607FB02
:101D400008F800FB07F718EB06484CEB164C4FEA77
:101D5000124B18EB07484FEA15464CEB174022EAA6
:101D60000B4E0BFB06FC25EA06470EFB06F607FBAF
:101D70000EFE0BFB07F71EEB064E4CEB164C4FF01E
:101D800000061EEB074E4CEB174B18EB0B0840F10F
:101D9000000018EB0E0B58EB000840F100008F1A02
:101DA0004FF000013CBFC943661B14BFB5EB040CE8
:101DB00000213CBFC943F61B4FEA17444EEA8E0E82
:101DC00027EA04454FEA1C4704FB07622CEA074C4C
:101DD00005FB07F70CFB05F604FB0CFC16EB0746AE
:101DE00042EB174216EB0C4642EB1C421BEB06067D
:101DF00058EB0202414146EA9E0601D5BDE8018941
:101E0000B619524141EB0101A3F10103BDE801897B
:101E10004FEA14454FEA114724EA054621EA074CE8
:101E200005FB07F406FB07F70CFB06F105FB0CFCB2
:101E300011EB074144EB17444FEA124711EB0C41F9
:101E400044EB1C4422EA074C05FB07F206FB07F7AC
:101E50000CFB06F605FB0CFC16EB074642EB1742A3
:101E600016EB0C4642EB1C456A1854F1000148BFC2
:101E70007047B619524141EB0101A3F101037047CC
:101E800095F0000F37D04FEA11424FEA144721EA8C
:101E9000024624EA074C02FB07F106FB07F70CFB9E
:101EA00006F402FB0CFC14EB074441EB17414FEA2C
:101EB000154714EB0C4441EB1C4125EA074C02FB8F
:101EC00007F506FB07F70CFB06F602FB0CFC16EB0E
:101ED000074645EB174516EB0C4645EB1C4212191D
:101EE00051F1000148BF7047B619524141EB010161
:101EF000A3F1010370474FEA14454FEA114724EA62
:101F0000054621EA074C05FB07F106FB07F70CFB2A
:101F100006F24FF0000605FB0CFC12EB074241EB0A
:101F2000174112EB0C4251EB1C4148BF704792180D
:101F300041EB0101A3F101037047FEE704284FF0D4
:101F4000000070470020704710B505490022054881
:101F500007F0C6F80449034807F0B4F8002010BDA4
:101F6000B0110024D4040024B009002470B5054643
:101F70000C460748294607F0A5F8054807F076F80B
:101F80002188284689B208F0CBF9002070BD0000F6
:101F9000D4040024002070470A4610B50849D1F83F
:101FA000BC12D1F81412002901D0012010BD014645
:101FB000034807F095F8BDE81040014807F026B93E
:101FC000D4040024014800F069BC0000040300248C
:101FD000014800F063BC00007C03002410B52C4ACB
:101FE000016891423AD02A4A1832914236D0284AA2
:101FF0003032914232D0264A483291422ED0244A81
:10200000603291422AD0224A7832914226D0204A28
:102010009032914222D01E4AA83291421ED01D4ACF
:1020200091421BD01B4A1832914217D0194A3032C4
:10203000914213D0174A483291420FD0154A60326C
:1020400091420BD0134A7832914207D0114A903214
:10205000914203D00F4AA832914214D1CAB2103A29
:102060001823B2FBF3F20C4C02F00703E35CC365E8
:10207000032A04D96FF30901091D816506E06FF396
:102080000901816502E021F0FF018165806D10BDCD
:102090001000024010040240F2AD000810B50168C3
:1020A0000123224CCAB2A1421BD0204C1434A142BD
:1020B00017D01E4C2834A14213D01C4C3C34A142F2
:1020C0000FD01A4C5034A1420BD0184C6434A142AA
:1020D00007D0164C7834A14203D0144C8C34A14262
:1020E0000FD1083A1421B2FBF1F1114A02EB81023F
:1020F00002660F4A8032426601F01F018B40836600
:1021000010BD103A1824B2FBF4F20A4C2144A8295D
:1021100000D80832084901EB820101660649803186
:10212000416602F01F018B40836610BD08540258BF
:1021300000580258F0FBFDBF000802400279521E11
:10214000072A31D8194B016899421BD0174B143319
:10215000994217D0154B2833994213D0134B3C3377
:1021600099420FD0114B503399420BD00F4B64332F
:10217000994207D00D4B7833994203D00B4B8C33E7
:10218000994207D10A4901EB8201C16608494031F1
:10219000016706E0074901EB8201C166054940314C
:1021A00001670121914041677047000008540258BF
:1021B0000059025800090240014610B500208B6901
:1021C0004FF0C0748A6A002B0ED0B3F5005F1AD0AE
:1021D00062B3012A2AD0022A28D0032A03D1C96A6D
:1021E000C90100D5012010BD1AB1012A06D0022A6A
:1021F000F9D1C96AC901F6D5012010BDC96AA14249
:10220000FBD1012010BD52B1012A0AD0022A06D00A
:10221000032AF7D1C96AA142F4D1012010BD0120DF
:1022200010BDC96AC901FBD5012010BD012010BD38
:10223000704772B6FEE7000010B50B480168001D3C
:102240000468001D0068084400280BD007490822D4
:1022500005F04AF8054904222046BDE81040103137
:1022600005F042B810BD000000E8F11F3A0000245C
:102270002DE9F84F044601F015FA00905CB194F88E
:102280003500022809D080206065002084F83400E1
:102290000120BDE8F88F0120FBE7D14ED04FD04997
:1022A0001836DFF83C833037DFF83493DFF830A39B
:1022B00008F14808DFF828B309F1600920680AF13D
:1022C000780A0BF1900B88422ED0B0422CD0B84245
:1022D0002AD0404528D0484526D0504524D05845DE
:1022E00022D0BF4AA83290421ED0BE4A90421BD094
:1022F000BC4A1832904217D0BA4A3032904213D0BA
:10230000B84A483290420FD0B64A603290420BD061
:10231000B44A7832904207D0B24A9032904203D009
:10232000B04AA83290420AD1026822F01E0202602E
:102330002068426922F080024261256804E0026858
:1023400022F00E0202602568206888424DD0B0421B
:102350004BD0B84249D0404547D0484545D050457C
:1023600043D0584541D09E4AA83290423DD09D4A24
:1023700090423AD09B4A1832904236D0994A303235
:10238000904232D0974A483290422ED0954A6032DD
:1023900090422AD0934A7832904226D0914A903285
:1023A000904222D08F4AA83290421ED08E4A90424C
:1023B0001BD08D4A1432904217D08B4A283290425B
:1023C00013D0894A3C3290420FD0874A5032904213
:1023D0000BD0854A6432904207D0834A78329042CB
:1023E00003D0814A8C32904204D1206E026822F4DC
:1023F000807202607A49206888422ED0B0422CD088
:10240000B8422AD0404528D0484526D0504524D04F
:10241000584522D07249A83188421ED0714988425D
:102420001BD070491831884217D06E49303188422C
:1024300013D06C49483188420FD06A4960318842D4
:102440000BD068497831884207D06649903188427C
:1024500003D06449A831884204D1016821F0010108
:10246000016013E0016821F0010101600EE001F05C
:1024700019F90099401A052808D92020343420621F
:102480000320607000202070012002E72868C00748
:10249000EDD1534A0121206890422ED0B0422CD079
:1024A000B8422AD0404528D0484526D0504524D0AF
:1024B000584522D04A4BA83398421ED0494B9842E7
:1024C0001BD0484B1833984217D0464B30339842B4
:1024D00013D0444B483398420FD0424B603398425C
:1024E0000BD0404B7833984207D03E4B9033984204
:1024F00003D03C4BA833984208D1A06D94F85C30CF
:1025000003F01F053F23AB40836007E0A06D94F804
:102510005C3003F01F0301FA03F34360206890422C
:102520004DD0B0424BD0B84249D0404547D0484545
:1025300045D0504543D0584541D0294AA832904211
:102540003DD0284A90423AD0264A1832904236D09E
:10255000244A3032904232D0224A483290422ED021
:10256000204A603290422AD01E4A7832904226D0C9
:102570001C4A9032904222D01A4AA83290421ED071
:10258000194A90421BD0184A1432904217D0164A6A
:102590002832904213D0144A3C3290420FD0124A53
:1025A000503290420BD0104A6432904207D00E4A0B
:1025B0007832904203D00C4A8C3290420BD1D4E94D
:1025C00019205060E06E30B1026822F4807202601F
:1025D000D4E91C205060343461700020207058E62B
:1025E0001000024010040240085402582DE9F05F28
:1025F000002808D090F83510022906D080214165C6
:102600000120BDE8F09F0120FBE7A14AA04BA04CB0
:1026100018329F4D30339E4E4834DFF874B2603527
:10262000DFF870C27836DFF86C82DFF868920CF160
:10263000300CDFF860A208F16008016809F1780940
:10264000944F0AF1900A594531D091422FD09942C6
:102650002DD0A1422BD0A94229D0B14227D0DFF8FA
:1026600030E20EF1900E714521D0DFF824E20EF138
:10267000A80E71451BD0DFF81CE2AEF1180E7145B3
:1026800015D0B94213D0DFF80CE20EF1180E7145E7
:102690000DD061450BD0DFF8FCE10EF1480E71451D
:1026A00005D0414503D0494501D0514537D14FF0C0
:1026B000040E80F835E0594527D0914225D0994243
:1026C00023D0A14221D0A9421FD0B1421DD07048D1
:1026D0009030814219D06E48A830814215D06D48A3
:1026E0001838814211D0B9420FD06A48183081425F
:1026F0000BD0614509D067484830814205D041453B
:1027000003D0494501D0514504D1086820F00100AB
:102710000860BAE0086820F001000860B5E0D1F870
:1027200000E02EF00E0EC1F800E00168DE465945CB
:1027300031D091422FD099422DD0A1422BD0A94225
:1027400029D0B14227D0DFF848B10BF1900B5945A1
:1027500021D0DFF83CB10BF1A80B59451BD0DFF8B5
:1027600034B1ABF1180B594515D0B94213D0DFF88D
:1027700024B10BF1180B59450DD061450BD0DFF892
:1027800014B10BF1480B594505D0414503D04945DB
:1027900001D0514506D1D1F800B02BF0010BC1F8A2
:1027A00000B005E0D1F800B02BF0010BC1F800B08B
:1027B00001684FF0010B714546D0914244D09942D7
:1027C00042D0A14240D0A9423ED0B1423CD0304A92
:1027D0009032914238D02E4AA832914234D02D4ABC
:1027E000183A914230D0B9422ED02A4A183291423A
:1027F0002AD0614528D0274A4832914224D0414509
:1028000022D0494520D051451ED0234A91421BD0A9
:10281000214A1432914217D01F4A2832914213D0D4
:102820001D4A3C3291420FD01B4A503291420BD08C
:10283000194A6432914207D0174A7832914203D044
:10284000154A8C32914218D1016E0A6822F48072C6
:102850000A60816D90F85C2002F01F020BFA02F210
:102860004A60D0E919215160C16E31B10A6822F481
:1028700080720A60D0E91C21516080F835B00021D7
:1028800080F83410016D01B188470020B9E60000DE
:102890001000024028040240085402582DE9FF5F4E
:1028A0000446002001904FF41651FD480068B0FB2B
:1028B000F1F00090A56D2E682968FA4FDFF8E4B3B7
:1028C000DFF8E083DFF8DC930BF1180BDFF8D4A31B
:1028D00008F13008206809F148090AF1600AB84295
:1028E0003BD05A46904238D0404536D0484534D047
:1028F000504532D0EB4A783290422ED0E94A90329D
:1029000090422AD0E74AA832904226D0E64A904226
:1029100023D0E54A183290421FD0E34B303398421F
:102920001BD0E14B4833984217D0DFF87CC30CF141
:10293000600C604511D0DFF870C30CF1780C604575
:102940000BD0DFF864C30CF1900C604505D0DFF8C4
:1029500058E30EF1A80E70457ED194F85C10082360
:1029600001F01F0103FA01F232424BD0B84232D0DB
:10297000584530D040452ED048452CD050452AD01F
:10298000C8497831884226D0C6499031884222D041
:10299000C449A83188421ED0C34988421BD0C249CD
:1029A0001831884217D0C0493031884213D0BE490F
:1029B000483188420FD0BC49603188420BD0BA49B7
:1029C0007831884207D0B8499031884203D0B6495F
:1029D000A831884203D1016801F0040102E00168D6
:1029E00001F0080171B1016821F00401016094F85F
:1029F0005C0000F01F0003FA00F2AA60606D40F076
:102A00000100606594F85C00012100F01F00814026
:102A1000314240D02068B84234D0584532D0404589
:102A200030D048452ED050452CD09E4A7832904226
:102A300028D09C4A9032904224D09A4AA8329042A0
:102A400020D0994A90421DD0974A1832904219D00E
:102A5000954A3032904200E0D2E113D0924A483297
:102A600090420FD0904A603290420BD08E4A78321A
:102A7000904207D08C4A9032904203D08A4AA832C2
:102A800090427DD1406910F0800F04D0A960606D44
:102A900040F00200606594F85C00042100F01F0023
:102AA000814031423ED02068B84232D0584530D0C3
:102AB00040452ED048452CD050452AD0794A78320E
:102AC000904226D0774A9032904222D0754AA8325E
:102AD00090421ED0744A90421BD0734A18329042E2
:102AE00017D0714A3032904213D06F4A4832904228
:102AF0000FD06D4A603290420BD06B4A78329042D0
:102B000007D0694A9032904203D0674AA832904277
:102B10004ED1006810F0020F04D0A960606D40F043
:102B20000400606594F85C00102100F01F008140F3
:102B3000314260D02068B84234D0584532D0404548
:102B400030D048452ED050452CD0564A783290424D
:102B500028D0544A9032904224D0524AA83290420F
:102B600020D0514A90421DD04F4A1832904219D07D
:102B70004D4A3032904215D04B4A4832904200E0E4
:102B800014E00FD0484A603290420BD0464A783267
:102B9000904207D0444A9032904203D0424AA83231
:102BA000904207D1006800F0080006E0006872E774
:102BB0000068B7E7006800F0040058B1A960206819
:102BC000016849030CD50068000304D4216C09B1E5
:102BD000204688470FE0A16C69B1204688470AE08B
:102BE0000168C90503D4016821F008010160216C66
:102BF00009B12046884794F85C00202100F01F00AE
:102C0000814031427BD02068B84232D0584530D024
:102C100040452ED048452CD050452AD0214A783204
:102C2000904226D01F4A9032904222D01D4AA832AC
:102C300090421ED01C4A90421BD01B4A1832904230
:102C400017D0194A3032904213D0174A4832904276
:102C50000FD0154A603290420BD0134A783290421E
:102C600007D0114A9032904203D00F4AA8329042C6
:102C700003D1006800F0100002E0006800F00200DC
:102C8000E8B3A96094F83500042812D020680168E0
:102C900049033DD50068000335D4616C79B305E084
:102CA00074000024100002401004024020468847AF
:102CB0003FE02068016821F0160101602068416949
:102CC00021F080014161206C08B9A06C20B120681E
:102CD000016821F00801016094F85C0000F01F0118
:102CE0003F208840A860012084F83500002084F847
:102CF0003400216D002974D004B0204600E018E0B3
:102D0000BDE8F05F0847E16B99B12046884710E0C5
:102D10000168C90509D4016821F010010160012092
:102D200084F83500002084F83400E16B09B12046B6
:102D30008847606D002854D0606DC00758D00420CB
:102D400084F835002068B84231D058452FD040452E
:102D50002DD048452BD0504529D0B749884226D0A0
:102D6000B5491831884222D0B349303188421ED04B
:102D7000B24988421BD0B1491831884217D0AF49B7
:102D80003031884213D0AD49483188420FD0AB4929
:102D9000603188420BD0A9497831884207D0A749D1
:102DA0009031884203D0A549A831884204D10168F6
:102DB00021F00101016003E0016821F001010160DF
:102DC00021680198009A401C0190904202D808683E
:102DD000C007F6D10868C00704D0032084F8350086
:102DE00003E087E0012084F83500002084F83400F7
:102DF000E16C00297ED004B02046BDE8F05F0847B2
:102E00008F4EB0421BD08E4E1436B04217D08C4E2F
:102E10002836B04213D08A4E3C36B0420FD0884E8E
:102E20005036B0420BD0864E6436B04207D0844E46
:102E30007836B04203D0824E8C36B0425AD1066802
:102E40004FF0040E94F85CB00BF01F0B0EFA0BFE63
:102E50001EEA010FCDF80CE05ED05FEA467E5BD53E
:102E600003986860300411D5F00307D4A16C0029E1
:102E700040D004B02046BDE8F05F0847216C00292F
:102E800038D004B02046BDE8F05F0847B0063BD418
:102E90002068B8422DD068496039884229D0404521
:102EA00027D0484525D0504523D06349884220D0BB
:102EB0006149183188421CD05F493031884218D0AE
:102EC0005E49884215D0904213D05C493031884227
:102ED0000FD098420DD059496031884209D05749E6
:102EE0007831884205D0604503D05449A8318842E2
:102EF00006D100E07CE0016821F00801016003E0F8
:102F0000016821F004010160216C002970D004B037
:102F10002046BDE8F05F08474FF0020E0EFA0BFEA8
:102F20001EEA010FCDF808E063D05FEA867E60D527
:102F300002986860300411D5F00307D4616C002951
:102F400078D004B02046BDE8F05F0847E16B002967
:102F500070D004B02046BDE8F05F0847B0063FD40B
:102F60002068B8422DD034496039884229D0404584
:102F700027D0484525D0504523D02F49884220D01E
:102F80002D49183188421CD02B493031884218D045
:102F90002A49884215D0904213D0284930318842BE
:102FA0000FD098420DD025496031884209D023497D
:102FB0007831884205D0604503D02049A831884245
:102FC00004D1016821F01401016003E0016821F0DF
:102FD0000A010160012084F83500002084F83400E3
:102FE000E16B002926D004B02046BDE8F05F084719
:102FF00020E0082202FA0BF20A421BD0310719D551
:10300000016821F00E01016094F85C0000F01F01DE
:10301000012000FA01F16960606584F83500002044
:1030200084F83400E16C002904D004B02046BDE8E7
:10303000F05F0847BDE8FF9F88000240100402408F
:10304000085402582DE9F05F044600F02BFB0646B9
:10305000002C7DD0F44F0222DFF8CC830025DFF86E
:10306000C893DFF8C4A308F13008DFF8BCB309F156
:10307000480920680AF1600A0BF1780BB84232D097
:10308000E949183188422ED040452CD048452AD0F5
:10309000504528D0584526D0E3499031884222D067
:1030A000E149A83188421ED0E04988421BD0DF495F
:1030B0001831884217D0DD493031884213D0DB49BE
:1030C000483188420FD0D949603188420BD0D74966
:1030D0007831884207D0D5499031884203D0D3490E
:1030E000A83188427ED184F8352084F83450B84223
:1030F00034D0CD491831884230D040452ED0484593
:103100002CD050452AD0584528D0C7499031884204
:1031100024D0C549A831884220D0C44988421DD056
:10312000C2491831884219D0C0493031884215D07F
:10313000BE494831884211D0BC49603188420DD027
:10314000BA497831884209D0B8499031884200E0C4
:1031500009E003D0B549A831884207D1016821F0C0
:103160000101016013E00120BDE8F09F016821F03A
:10317000010101600BE000F095FA801B052806D9DB
:1031800020206065032084F835000120ECE72068EA
:103190000068C007EFD122681168A5480140D4E952
:1031A00002031843D4E9043633431843A369184390
:1031B000E3691843236A18430843616A042903D169
:1031C000D4E90B13194308439A4909686FF30F01B7
:1031D000B1F1005F11D36168A1F12903052B0AD970
:1031E000163B00E02EE0032B05D9083B012B02D94A
:1031F0004F39032901D840F48010106020684069DD
:1032000020F00701606A40EA010604280DD1A06A97
:103210000643E06A48B12046FEF7CEFF28B14020C1
:103220006065012084F835009EE7206846612046ED
:10323000FEF7D4FE94F85C1001F01F023F2191408C
:10324000816066E07C4988421BD07B4B14339842F6
:1032500017D0794B2833984213D0774B3C339842A0
:103260000FD0754B503398420BD0734B6433984258
:1032700007D0714B7833984203D06F4B8C33984210
:103280007ED1884211D06C49143188420DD06A49F0
:103290002831884209D068493C31884205D06649C6
:1032A0005031884201D06449643184F8352084F873
:1032B0003450026861490A40A16840297ED08029C3
:1032C0007DD00021E36841EAD301236941EAD301BB
:1032D000636941EAD301A36941EAD301E36941EAA1
:1032E000D301236A41EA1311114301605249206856
:1032F000494208441421B0FBF1F08000E06520460B
:10330000FEF76CFE94F85C1001F01F020121914061
:1033100041602068B84256D043491831884252D0A3
:10332000404550D048454ED050454CD058454AD0E5
:103330003D499031884246D03B49A831884242D02D
:103340003A4988423FD03949183188423BD0374901
:103350003031884237D035494831884233D03349FB
:10336000603188422FD03149783188422BD02F49A3
:103370009031884227D02D49A831884223D000E0DF
:103380002DE02D4988421ED02B49143188421AD095
:1033900029492831884216D027493C31884212D029
:1033A0002549503188420ED02349643188420AD0E1
:1033B00021497831884206D01F4901E00AE00BE03C
:1033C0008C31884229D12046FEF768FEA06880280B
:1033D0000CD00CE0102175E74FF4804172E74020DB
:1033E0006065032084F835000120BDE66560216E2C
:1033F00020790860D4E9191048606068401E0728E9
:1034000008D82046FEF79AFEE06E0560D4E91C104D
:10341000486002E0E566256765676565012084F818
:1034200035000020A0E60000100002401004024019
:103430003F8010FE0010005C085402580F00FEFF91
:1034400070B5044600F02EF90546601C02D0044811
:103450000078044400F026F9401BA042FAD370BD66
:10346000680000242DE9F84F00227B4D03264FF021
:1034700001080F274FF0B04CE6E008FA02F31C40B9
:103480009A46002C7ED00B7903F00303012B01D068
:10349000022B1BD1D0F80890530006FA03FB29EA4F
:1034A0000B09D1F80CB00BFA03FB4BEA090BC0F87F
:1034B00008B0436823EA0A0391F80490C9F300199D
:1034C00009FA02F949EA0309C0F804900B79DB43D1
:1034D0009B070ED0D0F80C90530006FA03FA29EAA5
:1034E0000A09D1F808A00AFA03FA4AEA090AC0F858
:1034F0000CA00B7903F00303022B14D1D30800EBCB
:103500008303D3F820A04FEA42794FEAD96907FA3A
:1035100009FB2AEA0B0AD1F810B00BFA09FB4BEAB7
:103520000A0BC3F820B0D0F80090530006FA03FA53
:1035300029EA0A0991F804A00AF0030A0AFA03FA30
:103540004AEA090AC0F800A04B6813F4403F7AD059
:10355000424BD3F8009049F00209C3F800901B6871
:1035600003F00203009322F0030909F1B049D9F8EE
:1035700008B493074FEA137A07FA0AF32BEA030B0E
:10358000374B00E05FE0984201D100232DE0354B3E
:10359000984201D1012328E0334B984201D1022304
:1035A00023E0324B984201D103231EE0304B984276
:1035B00001D1042319E02F4B984201D1052314E0D7
:1035C0002D4B984201D106230FE02C4B984201D19C
:1035D00007230AE02A4B984201D1082305E0294B32
:1035E000984201D1092300E00A2303FA0AF343EACF
:1035F0000B03C9F80834DCF80030A343D1F8049079
:103600005FEAC92900D52343CCF80030DCF8043048
:10361000A343D1F804905FEA892900D52343CCF86D
:1036200004306B68A343D1F804905FEA893900D570
:1036300023436B602B68A343D1F804905FEAC93938
:1036400000D523432B60521C0C6834FA02F37FF43C
:1036500014AFBDE8F88F000080000058F444025811
:10366000000002580004025800080258000C0258DA
:10367000001002580014025800180258001C02588A
:103680000020025800240258002A01D081617047AE
:10369000090481617047000001480068000C704710
:1036A0000010005C0148806870470000680000243A
:1036B00090F84120202A01D00220704790F8402045
:1036C000012A20D0012280F84020242280F84120C5
:1036D0000268136823F0010313600268136823F47F
:1036E00080531360026813680B43136001680A6813
:1036F00042F001020A60202180F84110002180F888
:103700004010002070470220704790F84120202A86
:1037100001D00220704790F84020012A1ED00122DB
:1037200080F84020242280F841200268136823F0AA
:10373000010313600268136823F4706343EA0121F4
:10374000116001680A6842F001020A60202180F8D5
:103750004110002180F8401000207047022070477F
:1037600070B50446002C04D094F84100002510B137
:1037700006E0012070BD84F84050204600F056F865
:10378000242084F841002068016821F001010160D3
:103790002168606820F0706008612068816821F409
:1037A00000418160E068012831D02168A06840F4C0
:1037B00004408860E06802282FD02068416821F426
:1037C0000061416020684168174A114341602068E8
:1037D000C16821F40041C160D4E904010843A16932
:1037E00040EA01202168C860D4E907010843216844
:1037F00008602068016841F00101016065642020D3
:1038000084F84100256384F84250002070BD21688F
:10381000A06840F400408860CCE72068416841F42B
:1038200000614160CEE70000008000022DE9F04712
:10383000B8B00446142132A8FCF736FFC02102A814
:10384000FCF732FF534E12275148002521680836F5
:10385000504C4FF00209DFF840A181424FF00408BC
:103860002AD108210020CDE90210239502A801F0F9
:103870003BFF08B1FEF7DDFC206840F0020020604D
:10388000206800F0020001904FF4C070329033972E
:103890003495CDF8D490CDF8D88032A95046FFF7B2
:1038A000E1FD306840F400103060306800F4001032
:1038B000019038B0BDE8F0873848814228D108210E
:1038C0000020CDE90210239502A801F00DFF08B1F8
:1038D000FEF7AFFC206840F002002060206800F096
:1038E000020001904FF44060329033973495CDF848
:1038F000D490CDF8D88032A95046FFF7B3FD306898
:1039000040F480003060306800F480000190D0E71F
:1039100023488142CDD108210020CDE90210239512
:1039200002A801F0E1FE08B1FEF783FC206840F038
:1039300004002060206800F004000190206840F03E
:1039400001002060206800F0010001904FF4007039
:103950003290339734953595CDF8D88032A91148F7
:10396000FFF780FD4FF48070329033973495359592
:10397000CDF8D88032A90C48FFF774FD306840F4C8
:1039800000003060306800F40000019091E7000012
:1039900000540040E044025800040258005800401F
:1039A000005C004000080258000002582DE9F04178
:1039B0000446002C04D094F84D00002718B107E00D
:1039C0000120BDE8F08184F84C70204600F0A4F896
:1039D000022084F84D0020680168C90703D00168FF
:1039E00021F001010160206807656068042803D0A8
:1039F000062801D00A2852D16069022836D0E06832
:103A000008B1022600E00126A06830281FD0B028A7
:103A10001DD0002500214FF4805001F06DFB21697D
:103A2000B1F1007F15D02021E9407143B0FBF1F0E6
:103A3000616900EB80004000B0FBF1F0401D0A21FD
:103A4000B0FBF1F000F00101401A400810E0012540
:103A5000E0E74FF48071E940B0FBF1F0616900EB01
:103A600080004000B0FBF1F0401DE8E7022000219B
:103A7000012901D1012801D0FF2805D9206D40F08E
:103A80001000206501209CE700B90121000440EAF4
:103A900001612068026D1E4B1A4011430165D4E993
:103AA0000110A2690143E06810430143206A014309
:103AB000606A0143206901432068026D154B1A407A
:103AC000114341F001010165216840F6F8708861F9
:103AD0002068016821F4803101602068C168E269D2
:103AE00021F400011143C1606068042803D0062856
:103AF00001D00A2806D12068C168A26A21F00041DD
:103B00001143C1602765012084F84D00002058E76B
:103B1000FFFF00FE4090FFFD2DE9F04FB7B00546D6
:103B2000142132A8FCF7C0FDC02102A8FCF7BCFD9F
:103B30007D490227286800267C4C4FF00508DFF8F5
:103B4000F091884269D181140020CDE902101A96C3
:103B500002A801F0C9FD08B1FEF76BFB73481030F5
:103B6000016841F480510160006800F480500190C8
:103B7000206840F001002060206800F00100019002
:103B8000F0203290339734963597CDF8D88032A90B
:103B90004846FFF767FC684C664820602520606057
:103BA000A660E6604FF4806727614FF40068C4F8B0
:103BB00014804FF40059C4F818904FF4807AC4F878
:103BC0001CA04FF4003BC4F820B066622046FFF70B
:103BD00039FA08B1FEF72DFBAC64A5635548564C85
:103BE000183078342060262060604020A060E660B5
:103BF0002761C4F81480C4F81890C4F81CA0C4F855
:103C000020B066622046FFF71DFA08B1FEF711FBEF
:103C10006C64A56337B0BDE8F08F48490625DFF82E
:103C20000CB1DFF81CA188420BF1080B3CD18114C8
:103C30000020CDE902101A9602A801F055FD08B146
:103C4000FEF7F7FADBF8000040F48040CBF8000004
:103C5000DBF8000000F480400190206840F0040090
:103C60002060206800F004000190206840F002000D
:103C70002060206800F0020001903295339734965E
:103C80003597CDF8D88032A95046FFF7EBFB4FF4BB
:103C900040503290339734963597CDF8D88032A97A
:103CA0002848FFF7DFFBB5E727498842B2D18114E6
:103CB0000020CDE902101A9602A801F015FD08B106
:103CC000FEF7B7FADBF8000040F40040CBF8000044
:103CD000DBF8000000F400400190206840F0010093
:103CE0002060206800F001000190206840F004008E
:103CF0002060206800F0040001904FF400403290F2
:103D0000339734963596369532A94846FFF7AAFB85
:103D10004FF4E0503290339734963596369532A969
:103D20005046FFF79FFB75E700300140E044025822
:103D30000000025810000240040300240038004034
:103D40000008025800040258003C00400248816804
:103D500002781144816070476800002410B5032088
:103D600000F0D6F802F046FB0F490A68C2F30323BD
:103D70000E4AD35C03F01F03D840096801F00F011D
:103D8000515C0B4A01F01F0120FA01F11160094951
:103D900008600F2000F010F808B1012010BD00F0FD
:103DA0007BF8002010BD00001844025822AE000825
:103DB000780000247400002470B504460F4D2A7862
:103DC000002A0CD04FF47A700D49B0FBF2F009686C
:103DD000B1FBF0F002F02AFF18B1012070BD012004
:103DE00070BD102C07D200222146501E00F070F842
:103DF0006C60002070BD012070BD000068000024D0
:103E000074000024134A41781160124908310A688D
:103E100022F001020A600B1F42681A60027BC37A1B
:103E2000120742EA0362837A42EAC342437B42EAD0
:103E30008342837B42EA4342C37B42EA0342437AA2
:103E400042EA0322037A007842EA430202430A600C
:103E50007047000098ED00E0BFF35F8F04480168F1
:103E600021F4803101600249002070310860704700
:103E700024ED00E0074940F0010008600548703873
:103E8000016841F480310160BFF34F8FBFF36F8F42
:103E90007047000094ED00E008B50548016841F066
:103EA00002010160006800F00200009008BD0000FF
:103EB000F4440258002809DB012100F01F02914060
:103EC0004009800000F1E020C0F8001170470000B8
:103ED000F0B40D460D4B1B68C3F30223C3F1070476
:103EE000042C00D90424191D072901D2002300E065
:103EF000DB1E012606FA04F1491E294099409E4026
:103F0000761E16403143F0BC06F095BE0CED00E085
:103F100000F00701054A10684FF6FF03184040EA19
:103F20000120034908431060704700000CED00E0D9
:103F30000000FA0501680122C0F8D824002280F8A8
:103F4000CC24886940F000608861486D024A1043C3
:103F500048650020704700000300001070470068AB
:103F600041620020704770B50368586A002907D085
:103F70009C6A00EB14440020491E4FF482750AE04D
:103F800040EA024098620DE005EB80069E5904EB82
:103F90001644401CC0B28842F6D305EB810144EAC6
:103FA00002405850002070BDD0F8E00405F0CABCB3
:103FB00001EBC10200EB8202D0F8E004126A05F0C6
:103FC000EEBB01EBC10200EB8202D0F8E004D2F8B4
:103FD000602205F052BCD0F8E00405F0B5BC0A063A
:103FE00001F00F0101EBC10100EB810101D514319A
:103FF00001E001F51571006806F01CBC70B50446BF
:104000004FF0010201F00F004FF000050B0600EB2E
:10401000C00104EB810102D514314A7002E001F5C0
:1040200015714D70087094F89404012808D084F834
:104030009424206806F010F984F89454002070BD90
:10404000022070BD70B5044601F00F002279904245
:1040500001D9012070BD0B064FF0010201F00F01E4
:104060004FF0000501EBC10104EB810102D51431D1
:104070004A7002E001F515714D708D70087094F86A
:104080009404012808D084F89424206806F054FA97
:1040900084F89454002070BD022070BD01F00F011F
:1040A00001EBC10100EB8100D0F8680270472DE9F7
:1040B000F04104464FF0010601F00F004FF00005FB
:1040C0000F0600EBC00104EB810102D514314E70E4
:1040D00002E001F515714D7008708A600B714A7825
:1040E00002B14883022B00D14D7194F89404012849
:1040F00009D084F89464206805F0EEFF284684F81F
:104100009454BDE8F0810220FBE710B501F00F04E4
:1041100004EBC40100EB810101F51571CA600B616C
:1041200000234B614B700C708379012B00D1CA6165
:104130008279006806F058FA002010BD70B5044678
:104140000D4605F00F002179884201D9012070BD8C
:1041500029064FF000064FF0010206D500EBC00122
:1041600004EB810114314A7006E005EBC50104EB54
:10417000810101F515714E708A70087094F89404ED
:10418000012807D084F89424206806F001FA280753
:1041900002D007E0022070BDA17904F29C422068A1
:1041A00006F0A0F984F89464002070BD10B501F009
:1041B0000F0404EBC40100EB81011431CA600B61F0
:1041C00000234B6101234B700C708379012B00D1CC
:1041D000CA618279006806F007FA002010BD2DE957
:1041E000F84F04462568284606F0CEFB00287ED10D
:1041F000206806F0F5FB002879D0D5F80808C0F350
:104200000D20C4F8D404206806F0EAFB800704D52A
:104210002068416901F002014161206806F0E0FB7D
:10422000C10604F29C40009035D52068816921F0D8
:10423000100181612F6A07F00F0000EBC00004EB52
:10424000800606F51576C7F34340022802D00628FB
:1042500012D01BE047F6F070074217D0C7F30A12DE
:10426000F1681746284606F0BFFBF0683844F06056
:1042700070693844706109E000990822284606F008
:10428000B3FB7069C7F30A11084470612068816943
:1042900041F010018161206806F0A2FB00034FF09D
:1042A000080B4FF000094FF001085ED5002620688A
:1042B00006F075FB824655E05FEACA704FD0206871
:1042C000F1B206F085FB0746F80707D005EB46106C
:1042D000C0F8088B3146204603F068FA380709D544
:1042E00005EB4610C0F808BB3146204600E015E259
:1042F00003F038FAF80604D505EB46111020C1F892
:10430000080BB8071CD56869000605D5D5F8040860
:1043100040F48061C5F8041806EBC60004EB800089
:1043200000F51570C178012905D180F80390204669
:10433000F1B200F0F9F905EB46100221C0F8081BB4
:10434000B80604D505EB46102021C0F8081BB804B8
:1043500005D505EB46104FF40051C0F8081B761C3C
:104360004FEA5A0ABAF1000FA6D1206806F038FBCE
:1043700040036CD5206806F00BFB8246002663E004
:104380005FEACA705DD02068F1B206F00FFB074605
:10439000F80723D006F00F0108FA01F0D5F8341819
:1043A0008143C5F8341805EB4610C0F80889A07998
:1043B00001280FD106EBC60004EB8000D0E90721ED
:1043C0001144016236B9606A20B920680121009A5F
:1043D00006F088F82046F1B2FFF7EAFD380703D56A
:1043E00005EB4610C0F808B9F80604D505EB4611F0
:1043F0001020C1F80809780604D505EB46104021C5
:10440000C0F80819B80716D53146284606F08AFACA
:1044100006EBC60004EB80001430C178012905D1F9
:1044200080F803902046F1B200F07AF905EB4611CE
:104430000220C1F80809380603D53146204603F0AA
:1044400027FA761C4FEA5A0ABAF1000F98D1206871
:1044500006F0C6FA002811DAD5F8040820F00101A8
:10446000C5F8041894F8CC04012839D0204600F08F
:1044700032FA2068416901F000414161206806F08C
:10448000AFFA00050BD5D5F80808C00702D02046C2
:1044900000F064FA2068416901F40061416120681C
:1044A00006F09EFA00010AD52068416901F000611A
:1044B000416194F8CC04D0B1204600F04FFA206856
:1044C00006F08EFAC0046ED5D5F8040820F001017C
:1044D000C5F804182068102106F024FA00212DE008
:1044E00084F8CC9400212046FFF738FDC1E784F81A
:1044F000CC842068406DC0F38300C4F8D00401214F
:104500002046FFF72BFDDAE705EB41104FF67F322F
:1045100000F510608260036823F400130360C0F8A4
:104520000822D0F8002222F40012C0F80022D0F8AD
:10453000002242F00062C0F80022491C2079884223
:10454000E2D8D5F81C0840F00111C5F81C18E07B32
:1045500060B1D5F8840840F00B01C5F88418D5F88F
:10456000440840F00B01C5F844180CE0D5F81408D5
:1045700042F22B010843C5F81408D5F8100840F0A2
:104580000B01C5F81018D5F8000820F4FE61C5F835
:104590000018A1792068009A05F0A4FF20684169FD
:1045A00001F480514161206806F01AFA800415D5A3
:1045B000206805F0D3FD206806F0D6F9E07101F01F
:1045C000D3FEE2790146206806F08EFA204600F01C
:1045D0006BF92068416901F400514161206806F0DF
:1045E000FFF9000707D5204600F079F920684169F6
:1045F00001F008014161206806F0F2F9000615D5C6
:10460000A86920F08001A96101260CE006EBC60034
:1046100004EB800090F85702012803D12046F1B244
:10462000FFF7DDFC761C2079B042EFD8206806F059
:10463000D7F9C0021FD5012615E005EB4610D0F8CA
:10464000001906EBC60004EB8000027E012A09D1A6
:10465000002907DA80F81780F0B240F08001204688
:10466000FFF7BDFC761C2079B042E6D8206841698E
:1046700001F480114161206806F0B2F9800230D562
:10468000012026E005EB4011D1F8001B00EBC00231
:1046900004EB820292F85832012B19D1002917DA63
:1046A00094F8D43401F4803103F0010399420FD11E
:1046B00082F85782A96941F08002AA6169690906F6
:1046C00006D4D5F8040840F40070C5F8040803E0E7
:1046D000401C21798142D5D82068416901F400113C
:1046E0004161206806F07CF9400007D52046FFF7BD
:1046F0005BFC2068416901F080414161206806F05F
:104700006FF940070AD520684568680702D520463A
:10471000FFF761FC2068416829434160BDE8F88FDC
:10472000D0F8E00405F065B9D0F8E00405F076B9FA
:10473000F8B50446002C04D094F89504002510B177
:1047400006E00120F8BD84F89454204600F05CF89F
:10475000032084F89504206805F0BEFE207C8DF8C7
:10476000000094E80F0005F007FD022618B184F858
:1047700095640120F8BD2068002106F06FF918B19A
:1047800084F895640120F8BD002101270CE001EBBD
:10479000C10004EB800047750175C1850576C561D0
:1047A00005624562491CC9B220798842EFD80021D0
:1047B0000DE001EBC10004EB800000F515704570C1
:1047C000017005718560C5600561491CC9B2207919
:1047D0008842EED8207C8DF8000094E80F0005F0A8
:1047E000C5FD18B184F895640120F8BD657484F89E
:1047F0009574207B012802D12046FFF79BFB20689F
:1048000005F0A6FD0020F8BD10B5B8B0044614218F
:1048100032A8FBF749FFC02102A8FBF745FF1F495B
:104820002068884237D100204FF48021CDE9021062
:104830008800249002A800F057FF08B1FDF7F9FCAA
:1048400000F0D0F81648016841F0010101600068ED
:1048500000F0010001904FF4C050329002203390DC
:104860000021349135900A20369032A90D48FEF788
:10487000F9FD0B480838016841F0006101600068EB
:1048800000F000600190002265201146FFF720FB38
:104890006520FFF70FFB38B010BD00000000084096
:1048A000E04402580000025870B504460125E07942
:1048B00000280ED0022801D0FDF7BBFCD4F8E0049C
:1048C000294605F01CF9D4F8E004BDE8704005F075
:1048D000CFB80025F2E7D0F8E00405F0F9B8D0F839
:1048E000E00405F0FFB810B5044694F894040128DC
:1048F0000AD0012084F894046174206806F0DEF880
:10490000002084F8940410BD022010BDD0F8E024EB
:1049100000F29C41104605F0FEB810B50446206830
:1049200094F89414012909D0012184F89414C168E1
:10493000490609D5617B012902D005E0022010BD9E
:10494000816B41F480318163206805F0C5FF2068E8
:1049500005F0F0FC002084F8940410BD10B5044666
:10496000D4F8E00405F019F92068D0F8001E41F0F1
:104970000101C0F8001EE07A002804D00248016856
:1049800041F00601016010BD10ED00E070B5144962
:104990000A68D243520708D5096801F0070181422D
:1049A00001D0012070BD002070BD0A6822F007020E
:1049B00002430A60FEF776FE0446094D4FF47A760C
:1049C000083D06E0FEF76EFE001BB04201D9012053
:1049D00070BD2868C0438004F4D4002070BD00007E
:1049E0000C4802580248016841F08071016070472C
:1049F0000C48025838B50446FEF754FE05461CB173
:104A000094F8410010B109E0012038BD204600F0C3
:104A100041F841F28831204600F0BAF82068016878
:104A200021F4F852A168491E42EA01210160A06CFC
:104A3000002220212B460090204602F078FF00281B
:104A4000E3D1E268E16923790A43216A41EA03611B
:104A50000A4321680B680D4D2B401A430A60D4E9C4
:104A600005210A4321684B68094D2B40258A43EAFA
:104A700005431A434A6021680A6842F001020A604D
:104A800000216164012184F8411038BD2FFFFF002F
:104A9000FEF8E0FF2DE9F041B8B00446142132A839
:104AA000FBF702FEC02102A8FBF7FEFD3349206898
:104AB000884260D100204FF00071CDE9021000243F
:104AC000159402A800F010FE08B1FDF7B2FB2C48C7
:104AD000016841F480410160006800F48040019069
:104AE00027480C30016841F010010160016801F0B5
:104AF00010010191016841F002010160016801F0BB
:104B000002010191016841F008010160006800F0B4
:104B1000080001904FF00408CDF8C88002253395B5
:104B20003494032635960927369732A91548FEF79F
:104B300099FCCDF8C880339534943596369732A9D0
:104B4000DFF844804046FEF78DFC4FF46050329011
:104B5000339534943596369732A90C48FEF782FC8B
:104B6000402032903395349435960A20369032A9FD
:104B70004046FEF777FC38B0BDE8F08100500052A7
:104B8000D44402580010025800040258000C025885
:104B90008164704710B501F0E7FB05490968054AD3
:104BA000C1F30211515C01F01F01C84010BD0000AB
:104BB0002044025822AE000810B569490A6802F084
:104BC00003020968C1F30511654B1B1D1B6803F047
:104BD0000103634C0C342468C4F3CC0414FB03F3CA
:104BE00000EE103AB8EE400A002971D09FED5D1A30
:104BF0009FED5D2A5A4BF7EE000A0833F2B3012A03
:104C00007DD0022A7AD001EE901A1968F8EE611A66
:104C1000C2EE212AC1F3080101EE901AF8EE611AE2
:104C200040EE011A31EEA00A22EE800A1968C1F3A3
:104C3000462101EE101AB8EE411A31EE201AC0EEEC
:104C4000011ABCEEE11A80ED001A1968C1F30641A1
:104C500001EE101AB8EE411A31EE201AC0EE011A18
:104C6000BCEEE11A80ED011A1968C1F3066101EE8C
:104C7000101AB8EE411A71EE200A00E006E080EE4C
:104C8000201ABCEEC10A80ED020A10BD344A283A4F
:104C90001468A4061ED51268C2F3C104334AE24068
:104CA00001EE902AF8EE612A01EE901A1968F8EEEA
:104CB000611A82EEA12AC1F3080101EE901AF8EE02
:104CC000611A40EE011A31EEA00A22EE000AADE7A9
:104CD00041E014E001EE901A1968F8EE611AC2EE94
:104CE000212AC1F3080101EE901AF8EE611A40EE94
:104CF000011A31EEA00A22EE800A97E715E001EED4
:104D0000901ADFED1B2A1968F8EE611A82EEA12ACB
:104D1000C1F3080101EE901AF8EE611A40EE011A93
:104D200031EEA00A22EE000A80E701EE901ADFEDD4
:104D3000112A1968F8EE611A82EEA12AC1F308015E
:104D400001EE901AF8EE611A40EE011A31EEA00A57
:104D500022EE000A6AE7002101604160816010BD17
:104D600028440258000000390024744C0090D003FD
:104D70000024744A20BCBE4B10B569490A6802F091
:104D800003020968C1F30531654B1B1D1B68C3F3A2
:104D90000013634C14342468C4F3CC0414FB03F3F1
:104DA00000EE103AB8EE400A002971D09FED5D1A6E
:104DB0005B4BF7EE000A1033F2B39FED5B2A012A3A
:104DC0007FD0022A7CD001EE901A1968F8EE611AA1
:104DD000C2EE212AC1F3080101EE901AF8EE611A21
:104DE00040EE011A31EEA00A22EE800A1968C1F3E2
:104DF000462101EE101AB8EE411A31EE201AC0EE2B
:104E0000011ABCEEE11A80ED001A1968C1F30641DF
:104E100001EE101AB8EE411A31EE201AC0EE011A56
:104E2000BCEEE11A80ED011A1968C1F3066101EECA
:104E3000101AB8EE411A00E008E071EE200A80EE88
:104E4000201ABCEEC10A80ED020A10BD344A283A8D
:104E50001468A4061ED51268C2F3C104334AE240A6
:104E600001EE902AF8EE612A01EE901A1968F8EE28
:104E7000611A82EEA12AC1F3080101EE901AF8EE40
:104E8000611A40EE011A31EEA00A22EE000AADE7E7
:104E900041E016E001EE901ADFED252A1968F8EEE0
:104EA000611A82EEA12AC1F3080101EE901AF8EE10
:104EB000611A40EE011A31EEA00A22EE000A95E7CF
:104EC00013E001EE901A1968F8EE611AC2EE212A79
:104ED000C1F3080101EE901AF8EE611A40EE011AD2
:104EE00031EEA00A22EE800A80E701EE901ADFED93
:104EF000112A1968F8EE611A82EEA12AC1F308019D
:104F000001EE901AF8EE611A40EE011A31EEA00A95
:104F100022EE000A6AE7002101604160816010BD55
:104F200028440258000000390024744A0090D0033D
:104F30000024744C20BCBE4B10B569490A6802F0CD
:104F400003020968C1F30551654B1B1D1B68C3F3C0
:104F50000023634C1C342468C4F3CC0414FB03F317
:104F600000EE103AB8EE400A002971D09FED5D1AAC
:104F70005B4BF7EE000A1833F2B39FED5B2A012A70
:104F80007FD0022A7CD001EE901A1968F8EE611ADF
:104F9000C2EE212AC1F3080101EE901AF8EE611A5F
:104FA00040EE011A31EEA00A22EE800A1968C1F320
:104FB000462101EE101AB8EE411A31EE201AC0EE69
:104FC000011ABCEEE11A80ED001A1968C1F306411E
:104FD00001EE101AB8EE411A31EE201AC0EE011A95
:104FE000BCEEE11A80ED011A1968C1F3066101EE09
:104FF000101AB8EE411A00E008E071EE200A80EEC7
:10500000201ABCEEC10A80ED020A10BD344A283ACB
:105010001468A4061ED51268C2F3C104334AE240E4
:1050200001EE902AF8EE612A01EE901A1968F8EE66
:10503000611A82EEA12AC1F3080101EE901AF8EE7E
:10504000611A40EE011A31EEA00A22EE000AADE725
:1050500041E016E001EE901ADFED252A1968F8EE1E
:10506000611A82EEA12AC1F3080101EE901AF8EE4E
:10507000611A40EE011A31EEA00A22EE000A95E70D
:1050800013E001EE901A1968F8EE611AC2EE212AB7
:10509000C1F3080101EE901AF8EE611A40EE011A10
:1050A00031EEA00A22EE800A80E701EE901ADFEDD1
:1050B000112A1968F8EE611A82EEA12AC1F30801DB
:1050C00001EE901AF8EE611A40EE011A31EEA00AD4
:1050D00022EE000A6AE7002101604160816010BD94
:1050E00028440258000000390024744A0090D0037C
:1050F0000024744C20BCBE4B2DE9F04F89B0FD4C10
:10510000FB4A80F48079DFF8E8834FF0805725115F
:10511000F94BDFF8E8A3503A59EA0109A8F104066F
:105120004FF0005C36D080F4007959EA01097FD055
:10513000DFF8BC9380F4806B5BEA010B09F108098E
:105140006FD080F4006B5BEA010B6BD080F4805B66
:105150005BEA010B67D080F4005B5BEA010B4FF464
:10516000803A4FF4003E6ED080F4002B5BEA010BD6
:105170006AD080F4803B5BEA010B75D080F48046F6
:105180000E4372D080F4004008436FD0002009B075
:10519000BDE8F08FD8F8000000F00700052845D2E0
:1051A000DFE800F0030D174221001068800104D5EC
:1051B00006A8FFF701FD0798E9E70020E7E7106878
:1051C000000104D503A8FFF7D7FD0398DFE700200F
:1051D000DDE71068800004D56846FFF7ADFE009853
:1051E000D5E70020D3E7306800F040501168490748
:1051F00000D530B11168C9050AD5B84208D1284692
:10520000C5E71068C0F3C10024FA00F0BFE70FE063
:105210001168890303D5604501D11846B7E700201E
:10522000B5E759E0AAE0FBE05046B0E70020AEE762
:10523000D8F8000000F4E070802824D005DC58B1D4
:10524000402807D115E03DE18AE1C02842D0B0F501
:10525000807F22D000209AE71068800107D506A839
:10526000FFF7AAFC079892E7B6E1D1E115E200202A
:105270008DE71068000104D503A8FFF77DFD0398B2
:1052800085E7002083E71068800004D56846FFF7B3
:1052900053FE00987BE7002079E7306800F040502B
:1052A0001168490700D530B11168C90509D5B84260
:1052B00007D128466BE71068C0F3C10024FA00F05C
:1052C00065E71168890303D5604501D118465EE79B
:1052D00000205CE750465AE7D9F8000000F460006F
:1052E000B0F5800F21D004DC58B1B0F5001F06D115
:1052F00011E0B0F5C00F3FD0B0F5000F1FD0002077
:1053000045E71068800104D506A8FFF755FC07980B
:105310003DE700203BE71068000104D503A8FFF734
:105320002BFD039833E7002031E71068800004D597
:105330006846FFF701FE009829E7002027E730685C
:1053400000F040501168490700D530B11168C90517
:1053500009D5B84207D1284619E71068C0F3C10043
:1053600024FA00F013E71168890303D5604501D1E1
:1053700018460CE700200AE7504608E7D9F8000075
:1053800000F0E060B0F1007F21D004DC58B1B0F152
:10539000807F06D111E0B0F1407F3FD0B0F1806F47
:1053A0001FD00020F3E61068800104D506A8FFF79F
:1053B00003FC0798EBE60020E9E61068000104D53D
:1053C00003A8FFF7D9FC0398E1E60020DFE61068A8
:1053D000800004D56846FFF7AFFD0098D7E60020AF
:1053E000D5E6306800F040501168490700D530B16B
:1053F0001168C90509D5B84207D12846C7E6106823
:10540000C0F3C10024FA00F0C1E61168890303D596
:10541000604501D11846BAE60020B8E65046B6E627
:10542000D8F8000000F4E040B0F5005F21D004DCC3
:1054300058B1B0F5805F06D111E0B0F5405F3FD0C4
:10544000B0F5804F1FD00020A1E61068800104D580
:1054500006A8FFF7B1FB079899E6002097E61068C9
:10546000000104D503A8FFF787FC03988FE600200E
:105470008DE61068800004D56846FFF75DFD009852
:1054800085E6002083E6306800F040501168490747
:1054900000D530B11168C90509D5B84207D12846F1
:1054A00075E61068C0F3C10024FA00F06FE61168D9
:1054B000890303D5604501D1184668E6002066E6F9
:1054C000504664E6D8F8000000F4E020B0F5403F14
:1054D0002DD015DCE0B150451DD0704516D11068B7
:1054E000800022D56846FFF727FD01984FE60000AF
:1054F000504402580090D00340787D010080BB00EA
:10550000B0F5802F1ED0B0F5A02F22D000203EE6AF
:1055100000F04CFF3BE61068000104D503A8FFF73C
:105520002BFC049833E6002031E600202FE61068BB
:10553000400705D51068C0F3C10024FA00F026E644
:10554000002024E61068C00501D528461FE600208B
:105550001DE61068800301D5184618E6002016E6FF
:10556000D9F8000000F4403088B1504519D070459A
:1055700030D1306800F040501168490700D5D0B1F3
:105580001168C9051DD5B8421BD12846FFE5106832
:10559000000104D503A8FFF7EFFB0398F7E500200F
:1055A000F5E51068800004D56846FFF7C5FC029851
:1055B000EDE50020EBE51068C0F3C10024FA00F02F
:1055C000E5E51168890303D5604501D11846DEE59C
:1055D0000020DCE50020DAE5306800F4803048B1D6
:1055E000504513D1106800010ED503A8FFF7C4FB86
:1055F0000598CCE51068800104D506A8FFF7DCFA11
:105600000798C4E50020C2E50020C0E50020BEE503
:10561000D9F8000000F0E040B0F1405F24D00CDC8D
:1056200098B1B84214D060450DD11068800019D5EA
:105630006846FFF781FC0198A9E5B0F1804F1ED0C4
:10564000B0F1A04F22D00020A1E5FFF7A3FA9EE51C
:105650001068000104D503A8FFF78EFB049896E5B7
:10566000002094E5002092E51068400705D51068F9
:10567000C0F3C10024FA00F089E5002087E5106836
:10568000C00501D5284682E5002080E5106880032A
:1056900001D518467BE5002079E5D8F8000000F038
:1056A000405058B1B84210D060451AD1106800017E
:1056B00015D503A8FFF760FB049868E51068800320
:1056C00001D5184663E5002061E51068800104D526
:1056D00006A8FFF771FA079859E5002057E5002062
:1056E00055E5002053E500002DE9FC5F0446002548
:1056F0000026F94F2068DFF8E483C043010104F17C
:105700000800019004F1280000900DD4A06EB8B1FB
:10571000B0F5801F19D0B0F5001F1CD0B0F5401FA8
:1057200000D00125EDB12E462088C043C00535D4F8
:10573000A06D05282FD2DFE800F01D22282F2F00B2
:10574000386840F400303860ECE70198022102F03C
:1057500015F90546E6E70098022102F0A1F9054691
:10576000E0E7D8F80000A16E20F440100843C8F824
:105770000000D9E7386840F4003038600CE0019848
:10578000002102F0FBF8054606E00098002102F037
:1057900087F9054600E0012565B12E462088C04303
:1057A000800518D4E06D802831D00CDC20B340286F
:1057B0000ED126E0D8F80000A16D20F007000843C4
:1057C000C8F80000EAE7C02803D0B0F5807F00D019
:1057D000012515B32E462088DFF80493C043400509
:1057E0002DD4D4F8A800B0F5800F43D01EDCA8B3A8
:1057F000B0F5001F20D137E0386840F40030386041
:10580000E7E70198002102F0B9F80546E1E70098C2
:10581000002102F045F90546DBE7D8F80000E16D0C
:1058200020F4E0700843C8F80000D4E7B0F5C00FDA
:1058300003D0B0F5000F00D001250DB32E4620880F
:10584000C04300052FD4D4F8AC00B0F1007F54D091
:1058500020DCE8B3B0F1807F22D148E0FFE7386870
:1058600040F400303860E8E70198002102F086F843
:105870000546E2E70098002102F012F90546DCE750
:10588000D9F80000D4F8A81020F460000843C9F843
:105890000000D4E7B0F1407F03D0B0F1806F00D0BA
:1058A000012585B32E462068C04380010AD4E06CF0
:1058B00030B1102832D0202836D0302800D0012531
:1058C0008DB32E462088C043C00446D4206E00E02D
:1058D00008E0B0F5005F5CD036DCA0B3B0F5805FC7
:1058E00038D150E0386840F400303860D9E701988A
:1058F000002102F043F80546D3E70098002102F0AA
:10590000CFF80546CDE7FFE7D9F80000D4F8AC1092
:1059100020F0E0600843C9F80000C4E7386840F4AC
:1059200000303860CCE705E00198022102F026F84B
:105930000546C5E76948001F0168E26C21F03001A7
:1059400011430160BEE719E0B0F5405F03D0B0F548
:10595000804F00D0012515B32E462088C043800417
:105960002FD4606EB0F5403F29D021DC38B3B0F5BC
:10597000803F38D0B0F5003F20D13AE0386840F49D
:1059800000303860E7E70198002101F0F7FF054695
:10599000E1E70098002102F083F80546DBE7D8F83C
:1059A0000000216E20F4E0400843C8F80000D4E76E
:1059B000B0F5802F03D0B0F5A02F00D00125F5B1B0
:1059C0002E462088C04340042BD4D4F8B000B0F158
:1059D000405F24D01CDC10B3B0F1805F4ED0B0F13A
:1059E000005F1BD151E00198012101F0C7FF05467E
:1059F000E5E70098012102F053F80546DFE7D8F803
:105A00000000616E20F4E0200843C8F80000D8E7E9
:105A1000B0F1804F03D0B0F1A04F00D001259DB36D
:105A20002E462088C04300040AD4206F30B1B0F164
:105A3000805F3CD0B0F1005F3ED00125ADB32E4673
:105A40002068C043C0010AD4A06C30B101284DD0F9
:105A5000022850D0032800D001253DB32E462068EF
:105A6000DFF880B0C043400261D41F48016841F4B0
:105A700080710160FDF716FE824652E00198012117
:105A800001F07CFF0546CAE705E00098012102F01D
:105A900007F80546C3E7D9F80000D4F8B01020F0A5
:105AA000E0400843C9F80000BBE70BE029E0386894
:105AB00040F400303860C1E70198012101F05EFF39
:105AC0000546BBE7D8F80000216F20F0405008439E
:105AD000C8F80000B4E700002C44025850440258B3
